:020000040800F2
:10000000C81600200D02000871440008393F00089E
:1000100069440008F9100008A14C00080000000025
:100020000000000000000000000000008144000803
:1000300069120008000000007944000889440008A3
:1000400027020008270200082702000827020008EC
:1000500027020008270200082702000827020008DC
:1000600027020008270200082702000827020008CC
:1000700027020008270200082702000827020008BC
:1000800027020008270200082702000827020008AC
:10009000270200082702000827020008270200089C
:1000A000270200082702000827020008270200088C
:1000B000270200082702000827020008270200087C
:1000C000270200082702000827020008270200086C
:1000D00027020008014C0008270200082702000838
:1000E000270200082702000827020008270200084C
:1000F000270200082702000827020008270200083C
:10010000270200082702000827020008270200082B
:10011000270200082702000827020008270200081B
:100120002702000827020008191200082702000809
:1001300027020008270200082702000827020008FB
:1001400027020008270200082702000827020008EB
:1001500027020008270200082702000827020008DB
:1001600027020008270200082702000827020008CB
:1001700027020008270200082702000800000000EC
:1001800027020008270200082702000827020008AB
:10019000270200082702000827020008270200089B
:1001A000270200082702000827020008270200088B
:1001B000270200082702000827020008270200087B
:1001C000270200082702000800000000270200089C
:1001D000270200082702000827020008270200085B
:1001E000270200082702000827020008270200084B
:1001F0002702000827020008DFF80CD000F092F96F
:1002000000480047F14C0008C81600200648804707
:1002100006480047FEE7FEE7FEE7FEE7FEE7FEE7EB
:10022000FEE7FEE7FEE7FEE759450008F901000892
:100230002DE9F05F0546002092469B46884606461B
:10024000814640241BE0284641464746224600F0AE
:1002500016F953465A46C01A914110D31146184612
:10026000224600F0FDF82D1A67EB01084F462246A2
:100270000120002100F0F4F817EB00094E41201E88
:10028000A4F10104DFDC484631462A464346BDE876
:10029000F09F40EA01039B0703D009E008C9121F41
:1002A00008C0042AFAD203E011F8013B00F8013B30
:1002B000521EF9D27047D2B201E000F8012B491E5C
:1002C000FBD270470022F6E710B513460A460446F3
:1002D0001946FFF7F0FF204610BD00000FB400B52F
:1002E0008DB010A909900B9000914FF0FF300A904B
:1002F00000200C9005480690054807906A4609A81A
:100300000F9900F0E1F80DB05DF814FBE50400086A
:10031000030500082DE9FF5F1D464FF0FF3BD5E9BF
:10032000014691465F464FF00008A9697F1C01987D
:100330008847296A824688470028F6D1BAF1FF3FEC
:100340000CD024F4C064002E19DD600614D5BAF177
:100350002B0F09D0BAF12D0F0ED103E0584604B08F
:10036000BDE8F09F44F48064A9697F1C0198884728
:10037000761E8246002E02DDBAF1300F03D0B9F1AD
:10038000000F26D032E0A969761E44F400747F1C69
:10039000019888478246002E05DDBAF1780F06D015
:1003A000BAF1580F03D0B9F1000F10D01EE0B9F127
:1003B000000F02D0B9F1100F18D1A969761E24F4EC
:1003C00000747F1C019888478246102002E00820B4
:1003D00000E00A20814609E008FB0908A969761EA9
:1003E00044F400747F1C019888478246002E05DD86
:1003F0004946504600F053F80028EDDAE9690198C3
:100400008847A00502D46FF00100A8E7E00725D1D6
:10041000600613D5600502D5C8F1000000E0404633
:1004200029680A1D2A600968220501D5087015E0AF
:10043000220701D5088011E008600FE02868011D3F
:1004400029600068210502D580F8008006E02107B8
:1004500002D5A0F8008001E0C0F8008038467EE7B1
:10046000202A04DB203A00FA02F100207047914074
:10047000C2F1200320FA03F3194390407047202A69
:1004800004DB203A21FA02F00021704721FA02F33E
:10049000D040C2F1200291400843194670473A28E3
:1004A00000D2303820F02002412A01D3A2F13700D7
:1004B000884201D34FF0FF307047000002681144BA
:1004C0001378016018467047D160044951610449AE
:1004D000116200211161114600F042B8BD0400080C
:1004E00055050008426842B1016811F8013B23B18B
:1004F000521EC0E90012184670470121C160881ED3
:10050000704742685AB1C368016843B983688B4237
:1005100005D0491E521CC0E90012002070474FF060
:10052000FF3070471CB50948009009480190054606
:10053000009C06E0E06840F0010394E8070098475B
:100540001034AC42F6D3FFF75BFE0000CC55000838
:10055000EC550008C0B24FF4F05100F097B900001C
:100560002DE9F34F8BB04FF0000801F10C000C4661
:100570004FF0010B46460DF1080A01906269012116
:1005800001989047051E2DD0252D2CD0216A884733
:10059000C0B16269012101989047216A884700280B
:1005A000F7D1411E62690198904700E0761CA1696D
:1005B0000B988847216A88470028F7D1E1690B9892
:1005C0008847DBE7A1690B9888470746A84201D115
:1005D000761CD3E7E1690B9888477F1C02D1B8F1FC
:1005E000000F6FD046E1002762693D463946019809
:1005F00090472A2804D1626901210198904701257A
:10060000DFF884926269012101989047A0F13001DE
:100610000A290AD24F45E5DC07EB870100EB4107C9
:10062000303FDFD445F01005ECE7E90601D46FF068
:1006300000476C280AD04C2814D0682815D06A28A6
:100640000DD074281CD07A281AD01DE062690121CF
:10065000019890476C2802D045F0040514E045F05D
:1006600002050DE045F020050AE0626901210198CC
:100670009047682802D045F0080505E045F400657C
:100680006269012101989047C4E9015765283DD06E
:1006900019DC58287AD00CDC452837D004DC252812
:1006A00026D0412831D131E046282FD047282CD1FF
:1006B0002CE05B2877D0612828D063287CD0642880
:1006C00023D15AE0D0E06F2848D008DC66281DD03E
:1006D00067281BD0692821D06E2816D127E0702802
:1006E00045D0732868D0752847D078280DD14DE0C3
:1006F000A1690B988847054625283FF469AFE16951
:100700000B9888476D1C3FF46AAFB3E023466A46F6
:100710006FF001000B99AFF300809EE045F04000C0
:100720006060A80723464FF0000236D43EE0E80799
:100730007FF447AF2068011D21600068290501D5BD
:1007400006701BE7290701D5068017E7A90703D51F
:10075000F117C0E9006111E706600FE745F04000BE
:100760006060A80723464FF0080216D41EE040F64A
:100770000E0125EA0100606016E045F0400060606F
:10078000A80723464FF00A0207D40FE045F04000C7
:100790006060A80708D5234610226FF001000B996E
:1007A000AFF3008059E007E0234610226FF001000C
:1007B0000B99FFF7AFFD50E04FF000094F464B4655
:1007C000632802D05B2806D040E0E80601D401206F
:1007D000A06001273AE062690121019890475E28F4
:1007E00005D14FF001096269494601989047216996
:1007F00039B900210A46534643F82120491C0829EB
:10080000FADBB0B3216969B9C11700EBD1625311AA
:100810000AEB830122F01F02821A01200B6890402C
:1008200003430B6062690121019890475D28E8D17C
:10083000B9F1000F09D00020514651F82020D243D1
:1008400041F82020401C0828F7DB02AB2246009725
:100850006FF001000B99AFF3008000280CDA401C08
:1008600008D1BBF1000F05D04FF0FF300DB0BDE84F
:10087000F08FFFE74046F9E7E90701D108F10108E9
:1008800006444FF0000B79E6CCCCCC0C7F2801D984
:10089000002208E0064A02EB5002C007127800D19D
:1008A000120902F00F02012090400840704700003A
:1008B00080520008000000002DE9F04145F20030B0
:1008C0000221C0F6000004F071FA40F6F80640F28A
:1008D000E84840F218041425C2F20006C2F20008EB
:1008E000C2F200040027307858B1D8F80000214641
:1008F00000F06EFC3770208877281CBF20885728AE
:1009000015D06420013D00F07FFF2806EBD140F2B6
:10091000240043F24431C2F20000C1F22211006807
:1009200088420ED111A0BDE8F04104F097BC40F21E
:1009300020000121C2F200000170BDE8F04100F08A
:100940001BB805A004F08AFC48F20000C0F60000C5
:10095000BDE8F04103F0C4BB6A756D7020746F2070
:10096000412073656374696F6E0D00006F746120C0
:100970007570646174610D002DE9F0418EB040F234
:100980002004C2F20004207888B345F2B950C0F6C2
:10099000000004F063FC45F22840C0F6000004F0BB
:1009A0005DFC45F21B50C0F6000004F057FC45F218
:1009B0007750C0F6000004F051FC45F29250C0F6AA
:1009C000000004F04BFC45F2C040C0F6000004F00B
:1009D00045FC45F24B50C0F6000004F03FFC45F2E8
:1009E000AF50C0F6000004F039FC0020207040F643
:1009F000F800C2F200000178002968D040F2140625
:100A00000021C2F2000601703068E8B3810761D4AA
:100A1000010700F1AC80400759D540F2E84040F2B0
:100A20004441C2F20000C2F20001006800F0D0FBB5
:100A300041F2BC20C2F2000000881A2840F0A781D1
:100A4000306807AA20F00400306040F244400FF202
:100A50002C41C2F200001346CDE90022CDE902226A
:100A600004920592FFF73AFC082840F0E58140F235
:100A700044410820C2F200011A2200F08DFA45F22A
:100A8000F140C0F60000D8E140F2E84040F218041E
:100A9000C2F20000C2F200042146006800F098FB98
:100AA0002088312800F090802088322800F02E81A4
:100AB0002088332800F05E812088342800F06B8184
:100AC0002088352800F0AF812088372847D00EB025
:100AD000BDE8F08140F2E84040F25F45C2F200001C
:100AE000C2F200052946006800F072FB41F2BC2307
:100AF0002A78C2F2000395F801C095F802E01F8839
:100B0000852F08BF012A00F0AA8018880128DED1AD
:100B1000042ADCD1062004F09BFB40F2EC40326852
:100B2000C2F20000D0F8000410F0070122F0020029
:100B3000306011D040F2100048F20002C2F2000012
:100B4000C0F60002006802EB80204A0140F2EC414E
:100B5000C2F2000100F0A4FA642000F055FE45F254
:100B60001940C0F6000004F079FB04F09DF840F253
:100B7000E84040F21804C2F20000C2F2000421462C
:100B8000006800F025FB2078002241F2BC23A0F190
:100B90003101C2F20003C9B2092938BF0122082974
:100BA0001A8094D840F224033168C2F20003A0F105
:100BB000300241F003013160D1B2A3A09A770EB0A8
:100BC000BDE8F04104F0F2B845F24430C0F6000050
:100BD00004F044FB0120072100F032FA45F24942BB
:100BE00045F23941C0F60002C0F60001002808BFF6
:100BF0001146084604F032FB45F2B950C0F6000039
:100C000004F02CFB45F22840C0F6000004F026FB5F
:100C100045F21B50C0F6000004F020FB45F277506F
:100C2000C0F6000004F01AFB45F29250C0F6000036
:100C300004F014FB45F2C040C0F6000004F00EFBC7
:100C400045F24B50C0F6000004F008FB45F2AF50EF
:100C5000C0F600000EB0BDE8F04104F0FFBA326803
:100C600005F1030822F0010232600020802341F2E6
:100C700021064446277880EA0720002701B2024671
:100C80004000002948BF86EA4200072F07F101070C
:100C9000F4D3013B01341904ECD10EEB0C01FF2914
:100CA00062D180B2B5F8831009BAB0EB114F5BD1B5
:100CB000062004F0CDFA40F2EC4040F21002C2F2FD
:100CC0000000C2F20002D0F8001401F00703CC08C3
:100CD00014604D1CC0F8005400EBC3108022414644
:100CE000FFF7D7FA68077FF4F2AE48F2000040F24F
:100CF000EC41C0F60000C2F2000100EB84204FF48A
:100D000080720EB0BDE8F04100F0CAB945F2503033
:100D1000C0F6000004F0A2FA45F24430C0F600002C
:100D200004F09CFA0120072100F08AF945F24942BB
:100D300045F23941C0F60002C0F60001002808BFA4
:100D40001146084604F08AFA3068002140F003009A
:100D5000306040F2EC40C2F20000C0F80014C0F86D
:100D600004140EB0BDE8F08115200EB0BDE8F041CE
:100D700004F06EBA45F2B930C0F6000004F06EFA25
:100D8000306840F0040030600EB0BDE8F08131A062
:100D900004F064FA14E007AC08201A22214600256A
:100DA000CDF83350CDE90B55CDE90955CDE90755BF
:100DB00000F0C2F842A021468DF8365003F0F6FF4D
:100DC00045F2B950C0F6000004F048FA45F2284058
:100DD000C0F6000004F042FA45F21B50C0F60000D5
:100DE00004F03CFA45F27750C0F6000004F036FA01
:100DF00045F29250C0F6000004F030FA45F2C040CF
:100E0000C0F6000004F02AFA45F24B50C0F600008C
:100E100004F024FA45F2AF50C0F6000004F01EFAC8
:100E20000EB0BDE8F08145F270403168C0F60000B8
:100E300041F0080131600DE717A004F00FFA00F04F
:100E400047F80EB0BDE8F081626C6F636B3A2564C1
:100E50000D0A0000496E636F7272656374206C65E1
:100E60006E677468206F66204F54412076657273F8
:100E7000696F6E206E756D6265720D005645522D5C
:100E800025642E25642E25642D25642D25642D25AD
:100E9000642D25643A256400496E636F7272656340
:100EA0007420666F726D6174206F66204F5441200C
:100EB00076657273696F6E206E756D6265720D0076
:100EC0005645523A205B25735D0D0A000000000074
:100ED00080B545F2B950C0F6000004F0BFF945F204
:100EE0002840C0F6000004F0B9F945F21B50C0F6E6
:100EF000000004F0B3F945F27750C0F6000004F0AA
:100F0000ADF945F29250C0F6000004F0A7F945F2A1
:100F1000C040C0F6000004F0A1F945F24B50C0F605
:100F2000000004F09BF945F2AF50C0F60000BDE8A8
:100F3000804004F093B9000010B584B0044640F638
:100F40005C50CDE90012C2F20000A121012364220D
:100F50000292224601F080F838B1024604A02146F0
:100F600004B0BDE8104003F021BF04B010BD00BFC5
:100F700072656164206661696C20617420616464DB
:100F8000722025642C207374617475733D25640D83
:100F90000A000000000000002DE9F04F83B08AB382
:100FA00040F65C579346884682464FF06409C2F289
:100FB000000700BF1FFA8AF50AF00700C0F1080613
:100FC000A0211FFA8BF00123B042384638BF5E469D
:100FD0002A46CDF80890F4B2CDE9008401F0D0F9AA
:100FE00098B900BFA0210A226423384600F068FFA8
:100FF0000028F7D1ABEB040BA2445FEA0B4058FA90
:1010000086F8D7D103B0BDE8F08F024603A0294689
:1010100003B0BDE8F04F03F0C9BE00BF777269743A
:1010200065206661696C20617420616464722025AA
:10103000642C207374617475733D25640D0A00007F
:1010400070B586B00C4605460026009600F000FDFF
:101050000220059001A869460196CDE9035400F0ED
:10106000E7FB044600F078FC1CB1009903A003F0F4
:101070009DFE00F071FC204606B070BD45726173A4
:1010800065206661696C65642061742073656374B2
:101090006F7220256C750D0A000000000000000032
:1010A0002DE9F04114460D46064600F0D1FCACB1E6
:1010B0000FF2340804E000BF013C06F104060DD035
:1010C00055F8042B02200023314600F051FC07465E
:1010D0000028F1D0404604F0C1F8EDE700F03CFCF8
:1010E000F8B2BDE8F08100BF77726974652066616F
:1010F000696C65640D000000FEE700000000000060
:1011000000230281C0E900317047000000000000A8
:10111000B2FA82F34FEA531CBAB370B5B0F800E0EC
:1011200003890EF10104B4FBF3F505FB1343448876
:10113000A34228D0A2F1010C002400BF4568234639
:101140000C5D9C4505F80E400688058906F10106F0
:10115000B6FBF5F404FB156606800DD0B0F800E090
:1011600004890EF10105B5FBF4F606FB145445881D
:10117000AC4203F10104E1D1581C4FF0000C904245
:1011800028BF4FF0010CBDE870406046704700007A
:1011900080B5B0F800C0B0F808E00CF10102B2FB75
:1011A000FEF303FB1E2243889A4201D1002080BD3A
:1011B000426802F80C10018802890131B1FBF2F398
:1011C00003FB12110180012080BD0000000000001F
:1011D00003884288934208BF7047B0B5002500BF1E
:1011E0001FFA85FED0F804C001351CF8022001F872
:1011F0000E20B0F802C002890CF10103B3FBF2F437
:1012000004FB1232038842809342E9D1BDE8B0402A
:10121000704700000000000040F6FC40C2F20000F1
:1012200000F036B9000000004EF6FC50CEF200008F
:10123000016841F08071016041F6B470CEF20000A7
:101240000068C00741F20000CEF2000005D04CF665
:101250005561CCF2AC51C0F8B01F0021416001686B
:1012600041F001010160704770470000000000007C
:10127000EFF3108072B600BFFEE700000000000030
:101280002DE9F04140F6A06843F60C46C2F2000892
:101290000446C4F202060020C8F8180000F04CFD15
:1012A0003168C90335D4306810F0F20F306837D098
:1012B000800705D5D8F8180040F02000C8F81800BD
:1012C0003068C00605D5D8F8180040F01000C8F8FE
:1012D00018003068800605D5D8F8180040F00800DE
:1012E000C8F818003068400605D5D8F8180040F056
:1012F0000400C8F818003068000605D5D8F81800B2
:1013000040F00200C8F818000120F2213160BDE869
:10131000F0810546671C0DD08CB90320BDE8F08133
:10132000C0074FF0000008BFBDE8F0810121316027
:10133000BDE8F0813068C003B5D5002FFAD000F0C9
:10134000FBFC401BA042F5D90320BDE8F081000062
:1013500070B50446866D00F0EFFC94F83510022954
:1013600025D105462068216C0268002922F016026A
:101370000260426922F08001416101D1A16C19B182
:10138000016821F008010160016821F0010101609C
:1013900020680068C0070ED000F0CEFC401B062875
:1013A000F6D320206065032084F835000CE080200F
:1013B0006065012008E0E06D3F2101FA00F0B060B7
:1013C000012084F835000020002184F8341070BD1D
:1013D00090F83510022909D1052180F835100068F0
:1013E000016821F001010160002070478021416502
:1013F000012070470000000028B190F83510022944
:1014000003D1022070470120704710B502684AF6E8
:10141000AB2C02F0F803CAF6AA2CA3F11004116851
:10142000A4FB0C3C21F00101116001464FEA1C13A2
:1014300045F2F82C0020106050604FF0210E9060B3
:10144000C0F6000CD0605F2C10614FF03F04C2F872
:1014500014E040F2FF3E22EA0E021CF8033088BF7F
:101460000432C1E9162304FA03F39360C1E90F00C3
:10147000C1E91100C1E91300486581F8350081F820
:10148000340010BD00000000406D704700000000F7
:10149000F0B581B00021009140F2040148F2B51589
:1014A000C2F20001C1F64E3508220B68D0E9166180
:1014B0008A40A3FB053537683A420CD003681C68A4
:1014C000640708D51C6824F004041C60B260426DF7
:1014D00042F00102426501228A403A4208D0036884
:1014E0005B691B0604D5B260426D42F002024265A0
:1014F00004228A403A4208D003681B689B0704D53F
:10150000B260426D42F00402426510228A403A42C3
:1015100016D001680B681B0712D5B2600A68520327
:101520000A6806D4D20506D40A6822F008020A60C6
:1015300001E011033FD4016C11B1044688472046F5
:10154000C26D202101FA02F33B4241D001680F68CD
:10155000FF063DD5B36090F83530052B0B681AD1E6
:1015600023F016030B604B6923F080034B61036C7F
:101570000BB9836C1BB10B6823F008030B603F2190
:101580009140B160012180F83510016D002280F892
:101590003420D9BB3EE05A030A6810D4D20512D4D5
:1015A0000A6822F010020A60012180F8351000213B
:1015B00080F8341007E0816C0029BED1C0E7110328
:1015C00001D4416C00E0C16B11B10446884720464C
:1015D000416DF9B1416DC90716D0052180F835106C
:1015E0000168AA0A0B6823F001030B60009B01331A
:1015F0000093934202D80B68DB07F7D1012180F8F2
:101600003510002180F83410C16C19B101B0BDE86B
:10161000F040084701B0F0BDB0B5044600F08CFBC7
:10162000CCB10546022084F835000021206884F8FA
:101630003410016821F00101016000BF20680168D9
:10164000C9070AD000F078FB401B0528F6D9032112
:10165000202203207AE00120B0BD48F23F0204F1CD
:10166000040C0168CEF210021140D4F818E09CE896
:101670002C10114362691943E3692943256A41EA41
:101680000C01114341EA0302616A2A43042942EA38
:101690000E0303D1D4E90B252A4313430360042925
:1016A000426922F0070241EA02012DD1D4E90A532E
:1016B00041EA050143B3BEF5005F08D0BEF1000F5B
:1016C00012D1022D16D0012D07D09DB119E0032DA6
:1016D00017D8DFE805F00B0F0B02A3F1C072B2FAC6
:1016E00082F252094AB90FE0032D02D2012222B937
:1016F0000AE006D1C3F3006232B10120002140228A
:1017000024E00022002AF8D100F0F8024AF6AB23C8
:10171000103ACAF6AA23A2FB0335416140F2FF3119
:101720005F2A20EA010045F2F8214FEA1513C0F6BE
:1017300000014FF03F02C95C88BF0430C4E91601C4
:1017400002FA01F18160002201210020626584F823
:101750003510B0BD0000000090F834C0BCF1010F9E
:1017600001D10220704770B54FF0010C80F834C0F1
:10177000D0F858E090F835C0BCF1010F3DD14FF0E2
:10178000020C80F835C04FF0000CC0F854C0D0F8FF
:1017900000C08468056CC06DDCF80060402C26F445
:1017A0008026CCF80060CCF804300B4604BF13460A
:1017B0000A463F21CCF8083001FA00F0CCF80C20A2
:1017C000CEF80800DCF8000040F01600CCF800006D
:1017D000DCF8140040F08000CCF814002DB1DCF8E7
:1017E000000040F00800CCF80000DCF8000040F0F9
:1017F0000100CCF80000002070BD002180F83410FA
:10180000022070BD00000000B0B5044600F094FA5C
:1018100040F208010546C2F20001621C097818BFB7
:101820000C4400BF00F088FA401BA042FAD3B0BDC0
:101830002DE9F04381B040F6A068C2F2000898F8A4
:101840001420012A03D1022001B0BDE8F083044630
:10185000012088F814004CF250308946FFF710FD43
:10186000002870D14FF0FF31C9F80010216801291C
:1018700028D143F610456068C4F2020504232169AB
:1018800002282A6808BF4FF4004322F4407203285C
:101890002A6008BF48F20403286818432860080239
:1018A000296880B2084340F480302860BFF34F8F2E
:1018B0004CF25030FFF7E4FC296848F204029143EF
:1018C000296040E0D4E9027139448F423BD243F6AB
:1018D0001046FD00C4F202062069C1B200020329CD
:1018E0004FF4407138BF81B230680B2F20F4407044
:1018F0003060306840EA01003060306820F0F80065
:101900003060284688BF20303168084340F002002C
:101910003060306840F480303060BFF34F8F4CF25D
:101920005030FFF7ADFC316821F0FA01316040B969
:10193000D4E90212013711448F4205F10805CBD3D7
:1019400001E0C9F80070002188F8141001B0BDE86A
:10195000F08300000000000043F610410020C4F2B4
:1019600002010A6842F000420A607047000000006D
:101970002DE9F04140F6A064C2F20004277D012F5A
:1019800002D10220BDE8F0810546012020754CF20D
:1019900050301E4690460F46FFF772FC002850D18B
:1019A0002846032D43F61045C4F2020541D8DFE86E
:1019B00000F002300F1E286820F44070286028686C
:1019C0002860286840F00100286087F800802EE039
:1019D000286820F440702860286840F4007028606F
:1019E000286840F001002860C7F800801FE02868E0
:1019F00020F440702860286840F44070286028680F
:101A000040F001002860C7F80080BFF36F8F7E6050
:101A10000DE0286820F440702860286840F4807049
:101A20002860286840F001002860A7F80080BFF314
:101A30004F8F4CF25030FFF723FC296821F0010151
:101A4000296000212175BDE8F08100000000000040
:101A500043F60440C4F20200C168B1F1FF3FC4BFC5
:101A60000020704740F22311C4F26751016048F62C
:101A7000AB11CCF6EF510160C068C00F7047000099
:101A80002DE9F04F82B000F13E42019102F1FF7763
:101A900042F20042C4F202020A2190424FEAB72603
:101AA00008BF0921092E00F1200E38BF4FEAB721E7
:101AB000002400270025009124E000BF03210368D3
:101AC00001FA04F26FF0030101EA55069343036043
:101AD00007F01C030F2101FA03F35EF80610994387
:101AE0004EF80610C1689143C160416821EA0A01BD
:101AF000416081689143816001350437102D04F104
:101B000002043CD0012101FA05FA01991AEA010800
:101B1000F2D043F6004125F00303C4F2010107F0BF
:101B20000C0BA1F57E7C0F2101FA0BF95CF8033058
:101B3000009903EA090301FA0BF29342BED143F67E
:101B4000004643F60C41C4F20106C4F201013268BA
:101B500022EA08023260726822EA080272600A68A9
:101B600022EA08020A60AA08B36823EA0803B360FD
:101B70005CF8223023EA09034CF822309EE702B0D9
:101B8000BDE8F08F000000002DE9F04F83B000F1B8
:101B90003E430A2203F1FF7742F20043C4F20203FC
:101BA0004FEAB726984200F1200308BF0922092E08
:101BB000009338BF4FEAB722002500244FF0000AF7
:101BC000019208E00AF1010A0234BAF1100F05F19E
:101BD000040500F0A48001220F6802FA0AFC17EA4B
:101BE0000C09EFD04F68032207F0030B02FA04F848
:101BF000ABF10106012E11D8C7F300178668D1F8A2
:101C00000CE026EA08060EFA04F2324382604268CB
:101C100007FA0AF722EA0C023A434260BBF1030FCB
:101C20001CD0C2688F6822EA0802A740BBF1020FED
:101C300042EA0702C26011D16FF0030205F01C06F0
:101C400002EA5A0E009A0F2352F80EC0B3400F69F1
:101C50002CEA0303B7403B4342F80E3002684B685E
:101C600003F0030722EA0802A74013F4403F42EAC8
:101C700007020260A6D043F6440343F6004EC4F2C6
:101C80000203C4F2010E4FF6084C0F261A68CFF675
:101C9000FF7C42F480421A601A682AF0030302F4BF
:101CA000804202920EEB0302029B05F00C0352F8F5
:101CB0000C709E40B743019E06FA03F33B4342F883
:101CC0000C30DEF808204B6842EA0907DE0258BFF4
:101CD00022EA090743F60C4C9E02C4F2010CCEF82E
:101CE0000870DCF8002042EA090758BF22EA090719
:101CF0009E03CCF80070DEF8042042EA090758BFC2
:101D000022EA0907DB03CEF80470DEF8002042EA7D
:101D1000090758BF22EA0907CEF8007052E703B05E
:101D2000BDE8F08F00000000002A08BF09048161AF
:101D3000704700000000000041F2C020C2F2000025
:101D4000006870470000000090F84120202A03D16D
:101D500090F84020012A01D102207047242280F807
:101D600041200268136823F001031360136823F411
:101D700080531360136819431160116841F0010129
:101D80001160202180F84110002180F840100020CF
:101D9000704700000000000090F84120202A03D185
:101DA00090F84020012A01D102207047242280F8B7
:101DB00041200268136823F001031360136823F4C1
:101DC000706343EA01211160116841F00101116063
:101DD000202180F84110002180F840100020704739
:101DE000A8B110B5242180F84110016804460A68A2
:101DF00022F001020A6000F053FC0020606484F8C5
:101E00004100206384F8420084F8400010BD0120A6
:101E1000704700000000000000284FD010B590F877
:101E2000411031B9002180F84010044600F058FC00
:101E30002046242180F8411090E80610C46822F062
:101E400070620B68012C23F001030B600A614FF4F0
:101E500004428B6808BF4FF4004223F400438B60B8
:101E600042EA0C028A604A68022C22F4006200F105
:101E7000100408BF02F500624A604A6842F000722E
:101E800042F400424A60CA6822F40042CA601CCC94
:101E90001A4342EA0422CA60D0E907231A430A60BF
:101EA0000A6842F001020A6000214164202280F8A1
:101EB0004120016380F84210002010BD01207047CE
:101EC0002DE9F04F81B000270097044690F84100BB
:101ED000202807D120688069000403D494F84000CA
:101EE000012803D1022001B0BDE8F08F012084F861
:101EF0004000242084F8410048F208001D4660F3A9
:101F00009F214FF000085F1C4FF02009C4F8448067
:101F1000E06893460128084622688A4618BF40F4C4
:101F200000605060FFF708FF216806468A698969EA
:101F300002F0200201F01001891810D02068816998
:101F4000C9061CD51021C16131E000BF206881693C
:101F5000806901F0200100F010004018EED1002F40
:101F6000F4D0FFF7E9FE002D60D0801BA842EDD928
:101F70005CE000BF2068806980062FD520688069FA
:101F800080065CD420462946324601F0D9FF78BB52
:101F9000002FF3D0FFF7D0FE002DEBD0801BA8421E
:101FA000ECD9E7E720688069800634D5206880692D
:101FB00080060FD420462946324601F0C1FFF8B909
:101FC000002FF3D0FFF7B8FE002DEBD0801BA84206
:101FD000ECD9E7E72068C0F81C9011E0606C40F095
:101FE0002000606484F8419084F8428084F8408046
:101FF000606C042804D12068C0F81C90C4F84480A8
:1020000000985A4601300090009851460098584573
:10201000FFF47EAF0AE0606C40F02000606484F85A
:10202000419084F8428084F84080E9E7202084F8D9
:102030004100606C40F020006064012005E02068F1
:102040002021C161002084F84110002184F8401053
:1020500001B0BDE8F08F00002DE9F04F81B00446DB
:1020600090F84100202807D10A9E4EB10B9F3FB146
:1020700094F84000012807D1022001B0BDE8F08F9C
:102080004FF40070606476E19B46924688460120DA
:1020900084F84000FFF750FE21680546896909046D
:1020A00028D4222084F84100402084F842000020F7
:1020B0006064666249F600095FFA8BF167856063C8
:1020C00020684246CFF600496FF39F22436890464E
:1020D00042EA014103EA09020C9E114401F5005154
:1020E0004160806980073CD4771C28E020688069C3
:1020F0000004D6D5192120462A4601F021FF0028E8
:1021000040F03981FFF718FE401B1A28EED32068F3
:1021100080690004EAD5606C40F0200060642020F3
:1021200084F84100002084F8420022E120688069A0
:10213000800740F1118120688069800711D4204612
:1021400031462A4601F0FCFE002840F01181002FA4
:10215000F1D0FFF7F1FD002EE8D0401BB042EAD9E4
:10216000E4E7BBF1010F206823D04FEA1A21816216
:10217000806980071CD4771C08E02068806980078C
:1021800040F1EA8020688069800711D420463146FA
:102190002A4601F0D5FE002840F0EA80002FF1D059
:1021A000FFF7CAFD002EE8D0401BB042EAD9E4E7B1
:1021B00020685FFA8AF181622068806940061CD439
:1021C000771C08E020688069400640F1C5802068DF
:1021D0008069400611D4204631462A4601F0B0FEFF
:1021E000002840F0C580002FF1D0FFF7A5FD002E9C
:1021F000E8D0401BB042EAD9E4E7608DB0F5807FBB
:1022000040460CD32168012222850023C0F201132D
:1022100051F8042F02EA090203F510530DE0628D14
:1022200021682285D2B251F8043F03EA090343EA48
:10223000024242F20043C0F2002340F2000A1A4375
:10224000771CC0F2011A4FF0010B09F580691043A9
:10225000086004E02068806940077FF55CAF206873
:102260008069400711D4204631462A4601F068FEB5
:10227000002840F08080002FF1D0FFF75DFD002E98
:10228000E8D0401BB042EAD9E4E72068616A406ABE
:102290000870218D606A01306062481E2085618D62
:1022A00001396185618DD1B3000405D037E0206824
:1022B000806900067FF52FAF20688069000610D482
:1022C000204631462A4601F03BFE002853D1002F1C
:1022D000F2D0FFF731FD002EE9D0401BB042EBD920
:1022E000E5E7608DB0F5807F08D32068A4F828B0BA
:1022F000524650F8041F01EA09010BE0618D206885
:102300002185C9B250F8042F02EA090242EA0141CC
:102310004FF000721143434641EA08010160608DAD
:1023200000289CD1204631462A4601F0A5FE10BB6C
:10233000206820214EF60003C161CFF60063426899
:102340001A40426084F84110002084F8420084F86A
:10235000400001B0BDE8F08F606C40F02000606488
:10236000202084F84100002084F8420084F84000D6
:10237000002084F84000012001B0BDE8F08F00008B
:102380002DE9F04F81B0044690F84100202807D194
:102390000A9E4EB10B9F3FB194F84000012807D12F
:1023A000022001B0BDE8F08F4FF40070606472E16C
:1023B0009B4692468946012084F84000FFF7BCFC0A
:1023C00021680546896909042CD4212084F841003C
:1023D000402084F8420000206064666249F60048AC
:1023E0006785CFF60048216860635FFA8BF2484644
:1023F0006FF39F204B68A8F58067814640EA024052
:1024000003EA070210440C9E40F0807040F4005034
:102410004860886980073CD4771C28E02068806980
:102420000004D2D5192120462A4601F089FD002852
:1024300040F03181FFF780FC401B1A28EED3206862
:1024400080690004EAD5606C40F0200060642020C0
:1024500084F84100002084F842001AE12068806975
:10246000800740F1098120688069800711D42046E7
:1024700031462A4601F064FD002840F00981002F12
:10248000F1D0FFF759FC002EE8D0401BB042EAD94A
:10249000E4E7BBF1010F206823D04FEA1A218162E3
:1024A000806980071CD4771C08E020688069800759
:1024B00040F1E28020688069800711D420463146CF
:1024C0002A4601F03DFD002840F0E280002FF1D0C7
:1024D000FFF732FC002EE8D0401BB042EAD9E4E717
:1024E00020685FFA8AF181622068806900061CD446
:1024F000771C08E020688069000640F1BD802068F4
:102500008069000611D4204631462A4601F018FDA4
:10251000002840F0BD80002FF1D0FFF70DFC002E09
:10252000E8D0401BB042EAD9E4E7608DB0F5807F87
:1025300048460AD32168FF222285002351F8042F40
:10254000C0F2FF1302EA08020BE0628D21682285C7
:10255000D2B251F8043F03EA080343EA02424FF0C3
:10256000007340F2000A1A43771CC0F2FF1A4FF0C2
:10257000FF0B1043086004E02068806980077FF546
:1025800062AF20688069800710D4204631462A4611
:1025900001F0D6FC00287ED1002FF2D0FFF7CCFB53
:1025A000002EE9D0401BB042EBD9E5E7616A206814
:1025B00011F8012B82626162618D01396185218D83
:1025C00001392185628DD2B3090406D037E0206835
:1025D000806900067FF537AF20688069000610D457
:1025E000204631462A4601F0ABFC002853D1002F8B
:1025F000F2D0FFF7A1FB002EE9D0401BB042EBD98F
:10260000E5E7608DB0F5807F08D32068A4F828B096
:10261000524650F8041F01EA08010BE0618D206862
:102620002185C9B250F8042F02EA080242EA0141AA
:102630004FF0007211434B4641EA09010160608D81
:1026400000289ED1204631462A4601F015FD10BBD8
:10265000206820214EF60003C161CFF60063426876
:102660001A40426084F84110002084F8420084F847
:10267000400001B0BDE8F08F606C40F02000606465
:10268000202084F84100002084F8420084F84000B3
:10269000002084F84000012001B0BDE8F08F000068
:1026A00010B541F600440068C4F20204A4F5E2311A
:1026B000884218BF10BD43F64000C4F20200016812
:1026C00021F48001016010212046FFF7D9F9202173
:1026D0002046BDE81040FFF7D3B90000000000001D
:1026E00070B5AAB0044645F6000501A89021002661
:1026F0002996CDE927662696C4F200052596FDF7B2
:10270000E1FD2068A84201D02AB070BD4FF400401E
:10271000019001A81B9600F037F908B1FEF7A8FD5B
:1027200043F6300425A9C4F20204206840F080007A
:102730002060206800F080000090009830202590F4
:102740001220269001202790032028900420299011
:1027500005F5E230FFF718FA206940F480002061A7
:10276000206900F48000009000982AB070BD00003D
:1027700040F2080041F2C021C2F20000C2F20001A2
:1027800000780A68104408607047000000000000EC
:1027900080B5032000F0A0F80F2000F005F800F04D
:1027A0002BF8002080BD0000B0B540F2080140F2D7
:1027B0000402C2F20001C2F200024FF47A7304462E
:1027C00009781268B3FBF1F1B2FBF1F1084600F0B1
:1027D00083FF0F2C4FF001050CD858B94FF0FF3094
:1027E00000222146002500F047F840F20C00C2F21A
:1027F000000004602846B0BD82B043F64000C4F239
:102800000200016841F080510160016801F08051CF
:1028100001910199416841F480414160406800F4B0
:1028200080400090009802B0704700000000000057
:10283000002848BF70471C214EF2801300F01F0291
:1028400001EAD000CEF2000301219140C150BFF354
:102850004F8FBFF36F8F7047002848BF70471C2110
:102860004EF2001300F01F0201EAD000CEF2000386
:1028700001219140C150704770B54EF60C5C4FF08D
:10288000FF36CEF2000C00F1604505F56445DCF83A
:102890000030C3F3022E8EF00703042B28BF04235D
:1028A000BEF1030406FA03F321EA030100F00F036B
:1028B00038BF0024043B0028634406FA04F048BFF4
:1028C00003F10C05A14022EA000008430001287032
:1028D00070BD0000000000004EF60C514FF6FF03E3
:1028E000CEF200010A681A4060F30A2242F08060CA
:1028F00040F0FD7008607047B0B582B043F640000C
:1029000047F20005C4F20200C4F20005016841F07C
:1029100080510160006800F08050019001982868A3
:1029200040F480302860FFF707FA04466868C00367
:1029300006D4FFF701FA001BB0F57A7FF6D910E054
:10294000286840F400302860FFF7F6F9044600BF1D
:102950006868800308D4FFF7EFF9001BB0F57A7FB1
:10296000F6D9032002B0B0BD002002B0B0BD000017
:1029700047F20000C4F20000016841F48071016078
:1029800070470000000000002DE9F04782B0D0F849
:1029900000A043F6900604465FEACA70C4F202063D
:1029A0001AD14FF000095FEA0A3028D556F8040C16
:1029B000E16B20F44010B1F5801F40EA010046F8B9
:1029C000040CB1FA81F04FEA501808BF4FF001092A
:1029D0005FEACA2018D429E056F8880C20F40000D9
:1029E00046F8880C606B56F8881C014346F8881C32
:1029F000B0FA80F04FEA50195FEA0A30D6D44FF0AF
:102A000000085FEACA2011D556F8040C216C20F4A6
:102A10004000B1F5800F40EA010008BF4FF0010906
:102A2000002908BF4FF0010846F8040C5FEA8A60ED
:102A300059D556F8500C47F2000740F0805046F840
:102A4000500CC4F2000756F8500C00F08050019072
:102A50000198386840F480703860FFF76DF90546DA
:102A60003868C00505D4FFF767F9401B6428F7D91B
:102A70005CE256F8200C10F440701BD0216B01F47E
:102A80004071884216D056F8200C56F8201C41F4AC
:102A9000803146F8201C56F8201C20F4407021F4A8
:102AA000803146F8201C46F8200C56F8200CC00750
:102AB00040F0C1814FF6FF43206B56F8882CC0F6DA
:102AC000FF7300F4407122F4F8120340B1F5407F27
:102AD00008BF1A436FF31F3046F8882C56F8201CA5
:102AE000084346F8200C2768F80632D478043ED410
:102AF000380444D4F8034AD4B80350D4780656D4E2
:102B000038065CD4F80562D4B80568D478056ED46C
:102B1000380575D4F8047CD4B80400F183807802B9
:102B200000F18980B80200F18F80780300F19B806A
:102B3000380200F1A180780100F1A880380100F18D
:102B4000AF80F80000F1B8805FEACA1040F1C080A1
:102B5000CDE056F8040C20F0807046F8040CA06B11
:102B600056F8041C084346F8040C7804C0D53068B5
:102B7000616E20F44030084330603804BAD53068C4
:102B8000A16E20F4402008433060F803B4D53068CB
:102B9000E16E20F4401008433060B803AED53068D1
:102BA000216F20F44000084330607806A8D53068D3
:102BB000616C20F00300084330603806A2D530680D
:102BC000A16C20F00C0008433060F8059CD53068FB
:102BD000E16C20F0300008433060B80596D53068CD
:102BE000216D20F0C00008433060780590D5306832
:102BF000616D20F440700843306038057FF58AAF7E
:102C00003068A16D20F4406008433060F8047FF51F
:102C100083AF3068E16D20F4405008433060B80461
:102C20007FF57DAF3068216E20F44040084330606E
:102C300078027FF577AF3068A16F20F0806008439D
:102C40003060B8027FF571AF3068E16F20F000604E
:102C5000B1F1006F40EA010008BF4FF00108306099
:102C600078037FF565AF3068616F20F040700843EE
:102C7000306038027FF55FAF3068D4F8801020F004
:102C800080500843306078017FF558AF3068D4F841
:102C9000841020F000500843306038017FF551AFB8
:102CA00056F8040CD4F8881020F00070084346F859
:102CB000040CF8007FF548AF56F8040CD4F88C10DB
:102CC00020F08060084346F8040C5FEACA100ED476
:102CD000B9F1010F0BD017F0007008D1380719D4E3
:102CE000B8F1000F16D1002002B0BDE8F08756F809
:102CF000900C20F0806046F8900CFFF71DF8054618
:102D000056F8900C000119D5FFF716F8401B6428FF
:102D1000F6D90BE156F8900C20F0805046F8900C54
:102D2000FFF70AF8054600BF56F8900C800015D54D
:102D3000FFF702F8401B6428F6D9F7E02068C107C6
:102D400003D0616B002900F08880010340F1998075
:102D5000E16BB1F5801F40F0948098E0206801039A
:102D600001D5E16B19B1C1021ED5216CE1B956F84C
:102D7000081C56F8082C01F4403102F0E042D4E976
:102D800005371144A26A41EA83116FF0FF0341EA5B
:102D9000076146F8081C56F8041C03EB022221F4D4
:102DA000F851114346F8041C810214D5E16FB1F1CA
:102DB000006F10D156F8081C56F8082C01F070610D
:102DC00002F0E0426369276A114441EA831141EA53
:102DD000074146F8081C000718D556F8080C56F8A5
:102DE000081C00F0706001F4403162690844E16938
:102DF00040EA8210E36A40EA017046F8080C56F88F
:102E0000040C20F44030184346F8040C56F8900C9B
:102E100040F0805046F8900CFEF78EFF044600BF4D
:102E200056F8900C80003FF55EAFFEF785FF001B63
:102E30006528F5D37AE0FEF77FFF054641F2883733
:102E400056F8200C80073FF535AEFEF775FF401BA6
:102E5000B8424FF00300F3D969E056F80C1C56F85D
:102E60000C2C01F4403102F07062D4E901351144B8
:102E700041EA831141EA057146F80C1C01033FF554
:102E800067AFC1021DD5216CB1F5800F19D156F87D
:102E90000C1C56F80C2C01F4403102F0E04263683F
:102EA0001144E26841EA8311656A41EA026146F829
:102EB0000C1C56F8041C6A1E21F01F01114346F831
:102EC000041CC10110D556F80C1C56F80C2C01F04E
:102ED000706102F0E04263682569114441EA8311A0
:102EE00041EA054146F80C1C80010CD56068A368D6
:102EF000D4E90321090441EA801040EA026040EA73
:102F0000037046F80C0C56F8900C40F0806046F8C0
:102F1000900CFEF711FF054656F8900C00013FF5A6
:102F2000DDAEFEF709FF401B6428F5D9032002B08F
:102F3000BDE8F0870000000000286DD02DE9F041C9
:102F400043F608080446C4F202080D46D8F8F80310
:102F500000F00F0088420CD2D8F8F80320F00F00E0
:102F60002843C8F8F803D8F8F80300F00F00A84287
:102F700067D12068810717D5410705D5D8F800101B
:102F800041F4E051C8F80010010705D5D8F8001049
:102F900041F46041C8F80010D8F80010A26821F090
:102FA000F0011143C8F80010C00737D1D8F8F80372
:102FB00000F00F00A8420CD9D8F8F80320F00F0059
:102FC0002843C8F8F803D8F8F80300F00F00A84227
:102FD00037D12068410707D5D8F80010E26821F4FE
:102FE000E0511143C8F80010000708D5D8F80000D8
:102FF000216920F4604040EAC100C8F80000D8F818
:10300000000000F00C0008283AD004285BD147F6F5
:103010004000C0F27D105AE001207047606858F807
:10302000081C022806D0012809D189030CD40120EC
:10303000BDE8F081890107D40120BDE8F08189074E
:1030400002D40120BDE8F081D8F8001021F003017E
:103050000843C8F80000FEF76FFE064641F28837C5
:10306000D8F80000616800F00C00B0EB810F9DD033
:10307000FEF762FE801BB842F2D90320BDE8F08162
:1030800058F8042C58F8040C400247F6400058F851
:10309000041CC0F27D105CBF42F20040C0F2F4009C
:1030A000C1F3881102F03F02A0FB01010023FDF7EC
:1030B000BFF858F8041C0222C1F3014102EB4101A0
:1030C000B0FBF1F003E042F20040C0F2F400D8F8A7
:1030D000001045F2C022C0F60002C1F30311515C9A
:1030E00040F20C02C2F20002C84040F20401C2F2F7
:1030F000000108601068FFF757FB0020BDE8F08171
:1031000040F2040043F60801C2F20000C4F20201DA
:1031100045F2D02200680968C0F60002C1F382219E
:10312000515CC8407047000040F2040043F60801BB
:10313000C2F20000C4F2020145F2D0220068096820
:10314000C0F60002C1F34231515CC8407047000034
:1031500010B543F60404C4F20204606800F00C00E9
:10316000082806D0042823D147F64000C0F27D107D
:1031700010BD22682068400247F640002168C0F276
:103180007D105CBF42F20040C0F2F400C1F3881130
:1031900002F03F02A0FB01010023FDF749F821687E
:1031A0000222C1F3014102EB4101B0FBF1F010BD7D
:1031B00042F20040C0F2F40010BD00000000000028
:1031C000C8B12DE9F04182B00446007843F600060C
:1031D000C007C4F202064AD0B06800F00C00042810
:1031E0000BD13068800342D5606800283FD10120B0
:1031F00002B0BDE8F08101207047B06800F00C001B
:10320000082802D170684002EBD4656830682DB19F
:10321000B5F5A02F09D0B5F5803F0AD020F4803055
:103220003060306820F4802005E040F48020306079
:10323000306840F480303060FEF77EFD002D05469A
:1032400012D000BF3068800311D4FEF775FD401B1B
:103250006428F7D924E100BFFEF76EFD401B642807
:103260004FF0030000F2038130688003F4D420782B
:1032700080071BD5B06810F00C0F09D0B06800F0C3
:103280000C00082840F089807068400200F18580B9
:103290003068800703D5E068012840F0A1803068DD
:1032A000216920F0F80040EAC10030602078000772
:1032B0003BD4207840074CD4A56995B3B06800F0A2
:1032C0000C00082840F0A080012D706800F0888074
:1032D00000F48001E269914240F0828000F03F01F9
:1032E000226A91427CD147F6C071626A0140B1EB1B
:1032F000821F75D1A16A4FF6FF72C903914300F492
:103300004032A1F580318A426AD1E16A00F07062F0
:10331000B2EB016F64D1216B00F0E040B0EB017FB4
:103320005ED1002002B0BDE8F08160690028706FB6
:103330005AD040F001007067FEF7FEFC054600BF62
:10334000706F8007B5D4FEF7F7FC401B0228F7D951
:10335000A6E0306C5FEAC00808D4306C40F08050C2
:103360003064306C00F080500190019847F2000703
:10337000C4F200073868C00524D4386840F480706F
:103380003860FEF7D9FC05463868C0051AD4FEF748
:10339000D3FC401B6428F7D982E0E068002830683D
:1033A00054D040F001003060FEF7C6FC054600BF77
:1033B000306880073FF573AFFEF7BEFC401B022864
:1033C000F6D96DE0A568306F1DB1052D52D0012DE5
:1033D00054D020F001003067306F20F004004FE03F
:1033E000012002B0BDE8F08120F001007067FEF717
:1033F000A3FC0546706F80077FF55BAFFEF79CFC72
:10340000401B0228F6D94BE0306820F08070306015
:10341000FEF792FC022D05460CD100BF30688001FA
:1034200055D5FEF789FC401B02284FF00300F5D963
:103430001DE000BF306880017FF573AFFEF77CFCB4
:10344000401B02284FF00300F4D910E020F00100E7
:103450003060FEF771FC0546306880077FF526AFC7
:10346000FEF76AFC401B02284FF00300F4D902B0BB
:10347000BDE8F08140F004003067306F40F001009B
:103480003067FEF759FC002D054641F2883712D00F
:10349000306F800712D4FEF74FFC401BB842F7D9BB
:1034A000032002B0BDE8F081FEF746FC401BB842A5
:1034B0004FF00300DBD8306F8007F5D4B8F1000F70
:1034C0003FF5FAAE306C20F080503064F4E604F141
:1034D0001C07256B8FCF0843D9034FF6FF7340EAD3
:1034E0008210994340EA0760A1F58031084340EA21
:1034F00005707060306840F080703060FEF71CFC32
:10350000044600BF306880013FF50BAFFEF714FCA6
:10351000001B02284FF00300F4D9A8E700000000C8
:1035200090B110B5022180F85D10016804460A6868
:1035300022F040020A6000F07FF80020206684F844
:103540005D0084F85C0010BD0120704700000000A1
:1035500028B1416A29B100210161142106E001204E
:1035600070474168B1F5827F02D01C210022425091
:10357000B0B50025856290F85D1029B980F85C50DF
:10358000044600F071F82046022180F85D100168C1
:10359000D0F80CE0BEF5E06F4EF400640B6898BF05
:1035A0000125B4F5706F23F040034FEA053C0B6032
:1035B00001D000258562D0E90154D0E9043205F438
:1035C000827504F404442C4403F00203234402F003
:1035D00001021A44836903F40074C569224405F0AA
:1035E00038042244046A04F08004856A224405F405
:1035F0000054224304240A600EF4706504EA134266
:10360000436A45EA0C0503F01003446B2A4304F0B7
:1036100008051A432A434A60CA6922F40062CA6153
:1036200000210166012280F85D20BDE8B040084617
:10363000704700000000000043F200010068C4F27F
:103640000101884218BF704743F6440201F550401B
:10365000C4F20202E021136823F480531360FEF7E2
:103660000FBA00000000000080B586B043F20001F0
:103670000068C4F20101002288420592CDE90322CC
:103680000292019201D006B080BD43F63000C4F230
:103690000200436943F480534361436903F4805358
:1036A0000093009B036843F001030360006800F08F
:1036B000010000900098E02001900220CDE9020274
:1036C000032004900520059001F5504001A9FEF764
:1036D0005BFA06B080BD0000411E0020B0EB116F08
:1036E00001D0012070474EF21002F023CEF200020A
:1036F00051604EF62351CEF200010B70072190600D
:1037000011607047000000007047000000000000DA
:103710007047000000000000B0B504460168C06FAB
:10372000D4F880508968090622D5212820D100BF0D
:10373000206850E8020F216820F0800041E8020272
:10374000002AF5D1206F38B1FDF702FE20B1206FBD
:10375000FDF79AFE202829D0206850E8000F216844
:1037600020F0C00041E80002002AF5D12020E067E7
:103770002068806840064FF0000045D5222D18BF14
:10378000B0BD00BF206850E8020F216820F0400063
:1037900041E80202002AF5D1606F68B1FDF7D8FD5B
:1037A00050B1606FFDF770FE202805D11020C4F8DD
:1037B00084000320B0BD00BF206850E8000F2168DE
:1037C00020F4907041E80002002AF5D1206850E80A
:1037D000020F216820F0010041E80202002AF5D121
:1037E000206E01280AD100BF206850E8000F216830
:1037F00020F0100041E80002002AF5D12020C4F892
:10380000800000202066A066B0BD0000000000001F
:10381000C8B110B52421C167016804460A6822F0C6
:1038200001020A6000220A604A608A6000F0ECF936
:103830000020C4F88400E067C4F880002066606659
:1038400084F8780010BD01207047000000000000DF
:103850007047000000000000B0B5026840F62F037A
:10386000D16915680B409468202B05F0200E07D114
:10387000BEF1000F04D0816E41B3BDE8B0400847EF
:1038800040F60F03194209D040F2201304F0010C56
:10389000C0F200432B4013EB0C0324D1CB06036E84
:1038A00015D5012B13D115F0100310D01021116282
:1038B000916849062CD4B0F85810B0F85A20B0F8E6
:1038C0005A30002B18BF914240F04081B0BDCB026E
:1038D00011D514F480030ED04FF480111162BDE8AD
:1038E000B040FFF715BFCB0718BF15F480736AD13E
:1038F0008B0772D47CE00A0640F10B8115F0800240
:1039000000F00781C16E0029E0D0BDE8B040084753
:10391000426F116849688BB2002B49D0B0F85850FB
:10392000AB4245D2A0F85A10D169B1F5807F33D0AF
:10393000016851E8001F026821F4807142E8001319
:10394000002BF5D1016851E8021F026821F0010146
:1039500042E80213002BF5D1016851E8021F02680A
:1039600021F0400142E80213002BF5D12021C0F8DC
:1039700080100021016600BF016851E8001F026845
:1039800021F0100142E80013002BF5D1416F0446ED
:103990000846FDF7DDFC204602214166B0F85810CC
:1039A000B0F85A20891A89B2BDE8B040FFF7ACBE22
:1039B000B0F8581099427FF489AFD269B2F5807F90
:1039C0007FF484AFE9E001231362D0F8843043F040
:1039D0000103C0F884308B070AD5BCF1000F07D073
:1039E00002231362D0F8843043F00403C0F884301B
:1039F0004B070AD5BCF1000F07D004231362D0F89F
:103A0000843043F00203C0F884300B070AD55CEA27
:103A10000E0307D008231362D0F8843043F0080364
:103A2000C0F884300B050BD515F0806308D04FF437
:103A300000631362D0F8842042F02002C0F8842092
:103A4000D0F88420002A3FF441AF890607D5BEF1A3
:103A5000000F04D0816E11B10446884720460168EA
:103A6000D0F8842002F02802896801F0400189180A
:103A700006D10446FFF7ECFE0020C4F88400B0BD78
:103A8000016851E8001F026821F4907142E80013B8
:103A9000002BF5D1016851E8021F026821F00101F5
:103AA00042E80213002BF5D1016E01290AD100BFB3
:103AB000016851E8001F026821F0100142E800137C
:103AC000002BF5D12021C0F880100021016602688A
:103AD00081669168490635D5016851E8021F026880
:103AE00021F0400142E80213002BF5D1416F49B3A8
:103AF00044F2097204460846C0F600020A65FDF762
:103B000067FC00283FF4E2AE606F016DBDE8B04095
:103B1000084749067FF5DAAE15F0400108BFB0BD91
:103B2000016851E8001F026821F0400142E80013DB
:103B3000002BF5D12021C1670021C166BDE8B0404E
:103B400000F0F6B9BDE8B040FFF782BE891A00BFA9
:103B5000026852E8002F036822F4907243E80025BF
:103B6000002DF5D1026852E8022F036822F001020D
:103B700043E80225002DF5D12022C0F88020002244
:103B800002668266026852E8002F036822F0100283
:103B900043E80025002DF5D189B202224266BDE836
:103BA000B040FFF7B1BD000010B5C8B10446C06F0A
:103BB00028B9002084F87800204600F045F8242039
:103BC000E0672068616A0029026822F00101016053
:103BD00002D0204600F0CCFC204600F061FE08B187
:103BE000012010BD2068416821F490414160816846
:103BF00021F02A018160016841F001010160204645
:103C0000BDE8104000F024BD10B5044641F20000AC
:103C1000C4F201002168814218BF10BD43F644017F
:103C200000F57440C4F202010A6822F010020A6032
:103C30004FF44041FDF724FF606FFDF7DDFB2520C9
:103C4000BDE81040FEF7F4BD70B5AAB0044641F2DD
:103C5000000501A8902100262996CDE92766269621
:103C6000C4F201052596FCF72DFB2068A84201D07F
:103C70002AB070BD4020019001A81296FEF784FE84
:103C800008B1FDF7F5FA43F630000026C4F2020051
:103C9000416941F010014161416901F01001009159
:103CA0000099016841F002010160006825A900F057
:103CB0000200009000984FF440402590022026908A
:103CC000032028900420299005F574402796FDF7DD
:103CD0005BFF40F6FC4546F24040C2F20005C4F2EC
:103CE000020028604FF00060C5E901064FF48060D3
:103CF000EE60C5E904062846C5E90666C5E908661A
:103D0000FDF78AFC08B1FDF7B3FA25200021002257
:103D10006567AC63FEF7B0FD2520FEF79DFD2AB078
:103D200070BD000000000000D0F88030202B0AD1C8
:103D300094460A4600294FF0010118BFBCF1000F5C
:103D400004D10846704702210846704710B54FF06D
:103D5000000EC0F860E003685B681B020AD500BF74
:103D6000036853E8003F046843F0806344E800318F
:103D70000029F5D142652221A0F858C0C0F884E09E
:103D8000C0F88010436F13B344F2C17144F6690464
:103D9000C0F60001C0F60004C3E90F1444F2197123
:103DA0000024C0F60001C3E913140168044624315D
:103DB00018466346FDF7D0FC0146204639B1102174
:103DC000C0F884102021C0F88010012121E0016991
:103DD00051B100BF016851E8001F026841F48071D1
:103DE00042E80013002BF5D1016851E8021F026878
:103DF00041F0010142E80213002BF5D1016851E8BE
:103E0000021F026841F0400142E80213002BF5D185
:103E10000021BDE810400846704700000000000087
:103E20007047000000000000704700000000000024
:103E30002DE9F04381B00446C06F202808D18846A0
:103E40000120002918BF002A06D101B0BDE8F08387
:103E5000022001B0BDE8F0831D460020C4F88400B4
:103E60002120E0671646FDF767FFA4F85060A4F82C
:103E700052600646A168B1F5805F02D12069002832
:103E800050D0C1464FF00008B4F8520058B36F1C30
:103E90000EE0B9F1000F1DD0206819F8011B8162F6
:103EA000B4F852000138A4F85200B4F85200D0B16E
:103EB0002068C0690006ECD4002FF9D0FDF73CFF64
:103EC00001464FF0030045B3891BA94225D820685D
:103ED0000068EDE738F8020B21684FF000096FF336
:103EE0005F208862DCE72068C069400614D46F1C3C
:103EF00004E000BF2068C06940060DD4002FF9D04F
:103F0000FDF71AFF01464FF0030035B1891BA942A6
:103F100003D820680068EDE700202021E16701B0A8
:103F2000BDE8F0834FF00009AEE70000000000009C
:103F30007047000000000000FEE7000000000000E5
:103F40002DE9F04381B0044600688369DB0602D4A2
:103F50000021002049E00D461021C16120688169DF
:103F6000890635D41646002705F101094FF00008EF
:103F700008E048F0200801272068816901F020014D
:103F8000394329D1B9F1000FF6D0FDF7D5FE15B1AF
:103F9000801BA842F0D92068426894F842108369D7
:103FA0001B040BD512F4804208D1202906D04168A9
:103FB00041F480414160FDF7BFFE064620688069FC
:103FC0008006D9D4FDF7B8FE801B1A28F6D3D0E7B7
:103FD0000122042132B907E0B7FA87F14A0948F013
:103FE00004010AB12022C261012022689369DF0521
:103FF00007D45F050DD49B0513D4D0B901B0BDE83B
:10400000F08341F001014FF48070D06101205F0521
:10401000F1D541F008014FF48060D06101209B058B
:10402000EBD541F002014FF40070D061012000286F
:10403000E4D093699B0701D5002393629369DB0762
:1040400003D1936943F0010393614EF6000753686F
:10405000CFF600673B405360626C114361642021DE
:1040600084F84110002184F8421084F8401001B017
:10407000BDE8F0830000000070B504460068806968
:10408000800619D415460E4608E000BF20688069F6
:10409000800615D52068806980060DD420463146FB
:1040A0002A46FFF74DFF48B9FDF746FE002EEDD03A
:1040B000401BB042EED9E9E7002070BD012070BD81
:1040C000606C40F020006064202084F841000020F3
:1040D00084F8420084F84000012070BD0000000018
:1040E0002DE9F04381B0046821466FF31201B1F16C
:1040F000005F03D14168481C022837D250A001F06C
:10410000ADF845F2B950C0F6000001F0A7F845F24D
:104110002840C0F6000001F0A1F845F21B50C0F69F
:10412000000001F09BF845F27750C0F6000001F066
:1041300095F845F29250C0F6000001F08FF845F274
:10414000C040C0F6000001F089F845F24B50C0F6BF
:10415000000001F083F845F2AF50C0F6000001F016
:104160007DF801B0BDE8F043FCF706BCEFF310802A
:1041700072B64FF68C604EF28417CFF6FF70CEF217
:1041800000078946002140F6146539504FF69060CB
:10419000CFF6FF70C2F2000539504FF69460CFF6AB
:1041A000FF7039502846FFF7B7FA00261021C4F2F5
:1041B00002064FF010083046FDF762FC06F58060FD
:1041C0000221FDF75DFC2846FFF722FB40F65C501C
:1041D000C2F20000FDF704FE40F6B050C2F200004B
:1041E000FFF79EF920203860BFF34F8FBFF36F8F2A
:1041F000C7F8000140222968C1F820800A620862DD
:104200004FF08060386048F20001BFF34F8FBFF37A
:104210006F8FC7F800014EF60850CEF20000C0F6CE
:1042200000010160204600F01BF840F69C60494602
:10423000C2F20000C0F8009001B0BDE8F0430847AA
:104240004661696C656420746F206A756D702074B6
:104250006F204172656120410D00000000000000E8
:1042600080F308887047000080B582B043F63000C4
:104270000022C4F20200016841F48001016000687C
:10428000002100F48000019001983A20FEF7F4FA32
:104290003A2002B0BDE88040FEF7DEBA0000000020
:1042A0002DE9F04387B043F630000027C4F2020046
:1042B0000697CDE90477CDE902770168002441F043
:1042C000040101600168C4F2020401F004010191DB
:1042D0000199016841F0800101600168012201F04B
:1042E000800101910199016841F0010101600168BB
:1042F000102601F0010101910199016841F00201CC
:1043000001600068102100F0020001900198204631
:104310004FF00108FDF708FD04F580650221002239
:1043200028464FF00209FDF7FFFCCDE9026802AE16
:1043300003200590204631460497FDF725FC2846CA
:104340003146CDE90298CDE90477FDF71DFC07B0B1
:10435000BDE8F0830000000010B540F65C5045F663
:104360000001C2F2000042F63122C4F20001C4F2A0
:10437000D302C0E90012002181600122C0E90321BB
:10438000C0E90511C0E90711FDF746FD08B1FCF7CA
:104390006FFF40F65C500021C2F20000FDF7D4FC34
:1043A00008B1FCF765FF40F65C540021C2F200043E
:1043B0002046FDF7F1FC08B1FCF75AFF20680168C0
:1043C00041F00101016010BD80B540F6B05043F2EC
:1043D0000001C2F20000C4F201014FF4E06201608A
:1043E0004FF48271416000218160C0E90321416185
:1043F0004FF4007282610822C0E90721C0E9091167
:1044000007224163C0E90B21FFF7A2F8002808BF8B
:1044100080BDBDE88040FCF72BBF0000000000001D
:1044200010B540F6146441F20000C2F20004C4F278
:1044300001000C2120604FF4E13060600020C4E9ED
:1044400002002061C4E90510C4E90700606220464B
:10445000FFF7AAFB08B1FCF70BFF2068016841F0E9
:104460001001016010BD0000FEE700000000000028
:10447000FEE70000000000007047000000000000A0
:104480007047000000000000FEF772B90000000055
:1044900010B594B007AC34212046FBF713FF002081
:1044A0000690CDE90400CDE90200FEF761FA43F67B
:1044B0004000C4F20200016841F0805101600068D0
:1044C00000F08050019047F200000199C4F2000012
:1044D000016841F44041016000684FF4800100F43C
:1044E000404001900198012007904FF480300890DF
:1044F00002200D900E9119210F914FF4D871CDE942
:104500001010CDE912002046FEF75AFE18B1EFF365
:10451000108072B6FEE7FEF7EFF920B1EFF31080DE
:1045200072B600BFFEE70F20029002200390002029
:1045300004904FF4A05005904FF48050069002A8CC
:104540000721FEF7F9FC20B1EFF3108072B600BF2F
:10455000FEE714B010BD00004EF68850CEF2000009
:10456000016841F470010160704700000000000024
:10457000416A0A070CD4CA0715D18A071ED44A0714
:1045800027D4CA0630D48A0639D44A0642D454E025
:104590000268D0F834C0536823F4004343EA0C03A4
:1045A0005360CA07E9D00268D0F828C0536823F4E2
:1045B000003343EA0C0353608A07E0D50268D0F861
:1045C0002CC0536823F4803343EA0C0353604A073A
:1045D000D7D50268D0F830C0536823F4802343EA6B
:1045E0000C035360CA06CED50268D0F838C0936871
:1045F00023F4805343EA0C0393608A06C5D502680E
:10460000D0F83CC0936823F4005343EA0C03936052
:104610004A0612D50268D0F840C05368BCF5801F26
:1046200023F4801343EA0C03536006D1536823F448
:10463000C00C436C43EA0C035360090658BF704733
:104640000168806C4A6822F4002210434860704779
:10465000B0B582B004460020C4F88400FDF76CFBBE
:10466000216805460968090718D54FF40011002292
:104670006FF07E40009020462B4600F025FA68B18E
:10468000206850E8000F216820F0800041E8000217
:10469000002AF5D1032020217C222FE02068006829
:1046A000400723D54FF4800100226FF07E40009038
:1046B00020462B4600F008FAC0B100BF206850E841
:1046C000000F216820F4907041E80002002AF5D123
:1046D000206850E8020F216820F0010041E8020242
:1046E000002AF5D103202021802207E02020E06766
:1046F000C4F880000021642200202166A15000211E
:1047000084F8781002B0B0BD806B0021A0F85A1078
:10471000FFF79EB800000000806B0368C26FD0F8FE
:1047200080C09B681B0611D5212A0FD10022A0F85A
:10473000522000BF026852E8002F036822F0C00236
:1047400043E800210029F5D12021C167016889686B
:1047500049062DD5BCF1220F2AD10021A0F85A100C
:10476000016851E8001F026821F4907142E80013CB
:10477000002BF5D1016851E8021F026821F0010108
:1047800042E80213002BF5D1016E01290AD100BFC6
:10479000016851E8001F026821F0100142E800138F
:1047A000002BF5D12021C0F8801000210166816620
:1047B000D0F8841041F01001C0F88410FFF748B819
:1047C0008446C069B0F5807FDCF8380030D0002224
:1047D000A0F85A20026852E8002F036822F4807281
:1047E00043E800210029F5D1016851E8021F026861
:1047F00021F0010142E80213002BF5D1016851E8D4
:10480000021F026821F0400142E80213002BF5D19B
:104810002021C0F88010016E012909D1016851E8FA
:10482000001F026821F0100142E80013002BF5D1AF
:1048300000224266016E012911D1A0F85A20DCF84D
:1048400000104A68B0F8581093B28B4238BFA0F8F5
:104850005A20B0F85A20891A89B2FEF755BFFFF7DF
:10486000DFBA0000000000000146806B01224266B2
:10487000026E012A11D1B0F858205308A0F85A301E
:10488000096849688BB2934298BFA0F85A10B0F8F3
:104890005A10511A89B2FEF737BFFFF7C5BA0000A8
:1048A00070B506460268806846F6F314D6E903310F
:1048B00001437569D6F81CC01068CEF6FF74294311
:1048C0002040084340EA0C001060506820F440503B
:1048D00018435060B06947F2FF73316AC4F20003B5
:1048E0000843916821F430619A4240EA01004FF098
:1048F0001001906018DC44F6FF30C4F200008242E0
:104900002BDC44F20040C4F2000082424AD044F65C
:104910000000C4F2000082426BD143F69000C4F262
:1049200002000068010951E040F6FF70C4F2010086
:10493000824225DC47F60000C4F20000824238D0F3
:1049400047F60040C4F20000824252D143F6900084
:10495000C4F202000068810B38E044F60040C4F263
:10496000000082422CD045F20000C4F200008242D6
:104970003FD143F69000C4F202000068010A25E02E
:1049800041F20040C4F20100824224D041F2000012
:10499000C4F2010082422CD143F69000C4F202001E
:1049A00001681EE043F69000C4F20200006881082E
:1049B0000CE043F69000C4F202000068010B05E031
:1049C00043F69000C4F202000068810945F2E82233
:1049D000C0F6000209E043F69000C4F2020000684D
:1049E000810A45F2D822C0F6000201F0030052F815
:1049F000201042F20040BCF5004FC0F2F4000DD18F
:104A0000082919D80025DFE801F0051F2917271705
:104A100017175400FEF774FB08BB45E008290FD8B0
:104A20000025DFE801F00515310D2F0D0D0D4B00B0
:104A3000FEF766FB48BB37E00020012578B933E07C
:104A40000020012508BB2FE0FEF76EFB38B92BE0F4
:104A5000FEF76AFBC8B927E0FEF77AFB20B371685E
:104A60004A0802EB40004FF6EF72B0FBF1F0A0F104
:104A70001001914217D84FF6F0710140C0F3420087
:104A800008440DE0FEF764FB70B171684FF6EF72F9
:104A900000EB5100B0FBF1F0A0F11001914202D8FF
:104AA0003168C86000E001250020C6E91A002846E8
:104AB00070BD4FF400400028D1D1F5E74FF400401D
:104AC0000028E2D1F0E700002DE9F04381B0044670
:104AD0000068C0690840401AB0FA80F0400990426E
:104AE00055D1DDF820800D461646994608F101079C
:104AF00009E000BF2068C0692840401BB0FA80F080
:104B00004009B04243D1002FF4D0FDF715F9B8F1B8
:104B1000000F01464FF003003AD0A1EB09014145D7
:104B200036D8206801684907E4D5402D18BF802D8C
:104B3000E0D0C16909072ED4C1690905DAD54FF45F
:104B400000610162206850E8000F216820F4907035
:104B500041E80002002AF5D1206850E8020F2168E0
:104B600020F0010041E80202002AF5D1206E012860
:104B70000AD100BF206850E8000F216820F0100023
:104B800041E80002002AF5D1032020212AE000207C
:104B900001B0BDE8F0830821016200BF206850E841
:104BA000000F216820F4907041E80002002AF5D13E
:104BB000206850E8020F216820F0010041E802025D
:104BC000002AF5D1206E01280AD100BF206850E8E4
:104BD000000F216820F0100041E80002002AF5D102
:104BE000012008212022C4F8802000222266A2662B
:104BF000C4F8841084F8782001B0BDE8F083000088
:104C000040F61460C2F200000068C169C90640D5D0
:104C100010B51021016240F61460C2F20000FEF7E8
:104C20007BFD40F6FC4041F2BC21C2F20000C2F222
:104C3000000100684068C0F5806008800888D0B135
:104C400008880022B2EB902F15D140F2E844C2F25E
:104C5000000420680A8840F6F901C2F20001FCF75E
:104C600057FA20680021FCF793FA40F6F80001217A
:104C7000C2F20000017040F6146040F6F901C2F281
:104C80000000C2F200014FF48062FFF74DF8BDE86A
:104C9000104040F61460C2F20000FEF7DDBD0000D7
:104CA000FEE70000000000004EF60C500422CEF299
:104CB0000000C0F2FA52BFF34F8F016801F4E061C7
:104CC00011430160BFF34F8F00BFFDE700000000FC
:104CD00080B582B0019040F61460C2F2000001A9D4
:104CE00001224FF0FF33FFF7A3F8019802B080BD17
:104CF000FDF74EFDFFF7CCFBFFF7D2FAFFF7B4FA52
:104D0000FFF72AFBFFF78CFBFFF75EFBFCF78CFA43
:104D10001FA000F0A3FA40F2E84040F6BC61C2F2E6
:104D20000000C2F200014FF480620068FCF7E8F96D
:104D300040F6146040F6F901C2F20000C2F2000130
:104D40004FF48062FEF7F0FFFBF7B6FD40F214046B
:104D500040F2EC45C2F20004C2F20005002604E075
:104D6000D5F804040130C5F804040A20FCF74CFD12
:104D7000FBF702FE2078C007F7D0D5F804046428BA
:104D8000EED3432000F064FAC5F80464E8E700BFFE
:104D900068656C6C6F2068657265206973204220BD
:104DA00073656374696F6E0D000000000FB4054BEE
:104DB00010B503A9044A029800F018F810BC5DF879
:104DC00014FB0000D14C00080000002002E008C8DD
:104DD000121F08C1002AFAD170477047002001E075
:104DE00001C1121F002AFBD1704700002DE9FF4FBF
:104DF0008DB00F460546002606E025280BD0DDE9DC
:104E00000F1290476D1C761C28780028F5D111B040
:104E10003046BDE8F08F0024A246A1460122EC49AD
:104E200000E0044315F8013F203B02FA03F008427A
:104E3000F7D128782A2810D06FF02F022878A0F117
:104E40003001092914D80AEB8A0102EB410144F030
:104E5000020400EB010A6D1CF0E701CF5FEA000AD3
:104E600003D544F40054CAF1000A44F002046D1C56
:104E700028782E2817D115F8010F44F004042A28A9
:104E80000ED06FF02F022878A0F1300109290AD83E
:104E900009EB890102EB410100EB01096D1CF2E70E
:104EA00057F8049B6D1C28786C280FD006DC4C2822
:104EB00017D068280DD06A2814D104E0742810D0C7
:104EC0007A280FD10DE044F400140AE044F4801471
:104ED00001E044F440146978814202D104F5801461
:104EE0006D1C6D1C2A786E2A1FD00CDC632A31D011
:104EF00004DC002A8BD0582A11D1A3E0642A68D0A0
:104F0000692A0CD165E0732A2ED004DC6F2A73D095
:104F1000702A04D19BE0752A6FD0782A6ED0104693
:104F2000DDE90F129047761C50E1C4F302500228CD
:104F300006D0032809D0042801CF09D0066045E136
:104F400001CFF117C0E9006140E101CF06803DE1EA
:104F500006703BE117F8040B8DF8000000208DF877
:104F60000100EB46012003E057F804BB4FF0FF308F
:104F700061074FF0000102D40DE008F101018846FD
:104F800049450FDA8045F8DB1BF808100029F4D1F9
:104F900008E008F1010188468142FADB1BF808109D
:104FA0000029F6D1DDE90F23AAEB0800814621464E
:104FB00000F036F9304400EB080604E0DDE90F129A
:104FC0001BF8010B9047B8F10108F7D2214648467B
:104FD000F7E00A21C4F302534FF0000B0891022BB3
:104FE00004D001CFC117032B09D00AE0FF1D27F021
:104FF0000707F7E8020108E032E01FE020E000B216
:10500000C117042B01D140B2C117031E71F1000377
:1050100007DA4FF0000CD0EB0C006CEB01012D23F4
:1050200002E0230504D52B238DF82430012303E06F
:10503000E30701D02023F7E7984658E00A2110E063
:1050400010210EE010204FF0000B08900CE0102112
:105050004FF0000B44F004044FF00809089103E0FE
:1050600008214FF0000B0891C4F30253022B04D027
:1050700001CF0021032B06D006E0FF1D27F0070714
:10508000F7E8020103E080B2042B00D1C0B24FF078
:10509000000823072BD5702A07D0DDF820C08CF03C
:1050A000100C5CEA0B0C05D00EE040238DF8243088
:1050B000012308E050EA010306D030238DF82430A4
:1050C0008DF8252002239846DDF820C08CF0080CCE
:1050D0005CEA0B0C0BD150EA010301D1630706D542
:1050E00030238DF824304FF00108A9F10109582A26
:1050F00004D038A20B9208AA0A920BE03AA2F9E770
:105100005B46089AFBF794F80B9B9B5C0A9A521E2D
:105110000A92137050EA0102F2D10A98ADEB000036
:1051200000F1200B600702D524F4803401E04FF039
:105130000109D94502DDA9EB0B0000E0002000EBDE
:105140000B0141440890AAEB010AE00306D4DDE913
:105150000F232146504600F063F806444FF0000943
:1051600008E009A911F80900DDE90F12904709F1DB
:105170000109761CC145F4DBE0030CD5DDE90F2302
:105180002146504600F04CF8064404E0DDE90F12D9
:1051900030209047761C0899481E08900029F5DCBD
:1051A00008E00A980A990078491C0A91DDE90F1273
:1051B0009047761CBBF10001ABF1010BF1DC2146FD
:1051C0005046DDE90F2300F019F806446D1C1BE67C
:1051D00009280100303132333435363738396162CD
:1051E0006364656600000000303132333435363791
:1051F0003839414243444546000000002DE9F04162
:10520000044600251E461746880404D405E03946A6
:105210002020B0476D1C641EF9D52846BDE8F081FA
:105220002DE9F041044600251E469046C80301D5ED
:10523000302700E02027880404D505E041463846A1
:10524000B0476D1C641EF9D52846BDE8F08100000A
:105250000149FFF73DBD00000000002010B50446E5
:1052600001E0FFF735FD14F8010B04490028F8D1DF
:10527000BDE810400A20FFF72BBD00000000002011
:10528000DDDDDDDDDCBBBBDDDDDDDDDDDDDDDDDD93
:1052900098888888888888887777777777888888D3
:1052A000855555566666666666666666666888886B
:1052B0008333333222222222222222222228888D64
:1052C00000000000000000000102030406070809B6
:1052D00000000000010203040100000004000000BF
:1052E00002000000080000000000000004000000B0
:1052F000020000000800000000061016000610164C
:10530000456E746572202777272077697468696E07
:105310002025647320746F20616363657373207448
:10532000686520426F6F744C6F61646572207365AD
:105330007269616C20636F6D6D616E64206D6F6466
:10534000650D0A0045726173696E672E2E2E0D0081
:10535000446F776E6C6F6164207468652070726F43
:105360006772616D20666F72204172656120412015
:105370007669612073657269616C20706F72742048
:10538000494150207573696E6720586D6F64656D73
:105390002070726F746F636F6C2C706C65617365D5
:1053A0002075736520612062696E20666F726D6181
:1053B000742066696C652E0D00506C656173652004
:1053C000656E74657220746865204F54412076655F
:1053D0007273696F6E206E756D6265722E546865AA
:1053E00020666F726D61742073686F756C642062E3
:1053F0006520617320666F6C6C6F77733A20564539
:10540000522D312E302E302D323032362D31302D7E
:1054100030312D31323A300D00526573746172743F
:105420002053544D33320D005B315D45726173651D
:10543000204172656120410D00457261737572658E
:10544000206661696C65640D005468652070726F38
:105450006772616D20696E2041726561204120682C
:105460006173206265656E206572617365640D000D
:10547000506C656173652073656C65637420746836
:105480006520626C6F636B2028317E382920746F31
:1054900020646F776E6C6F616420616E6420736549
:1054A0006E642074686520636F72726573706F6ECE
:1054B00064696E67202E62696E2066696C650D00F6
:1054C0005B355D446F776E6C6F6164207468652036
:1054D00070726F6772616D2066726F6D207468659F
:1054E0002065787465726E616C20466C6173680D1E
:1054F000004F54412076657273696F6E206E756D32
:105500006265722073657474696E672069732073B5
:1055100075636365737366756C0D005B325D53650F
:105520007269616C20706F72742049415220646FFF
:10553000776E6C6F616420666F72204172656120C6
:10554000412070726F6772616D0D005B365D55733F
:1055500065207468652065787465726E616C20469C
:105560006C61736820696E7465726E616C20707214
:105570006F6772616D0D005B335D536574204F542E
:10558000412076657273696F6E206E756D6265720B
:105590000D005B345D5175657279204F5441207662
:1055A000657273696F6E206E756D6265720D005B5A
:1055B000375D526573746172740D003100320033CF
:1055C000003400350037005700770000F055000820
:1055D0000000002010000000CC4D0008005600081C
:1055E00010000020B8160000DC4D0008000000008C
:1055F000000000000024F400010000001000000082
:04000005080001F9F5
:00000001FF
