:020000040800F2
:10000000C00D00200D020008E92E0008D92C0008C0
:10001000E12E000839070008F1390008000000004F
:10002000000000000000000000000000D1310008C6
:100030006108000800000000F12E0008D931000816
:1000400027020008270200082702000827020008EC
:1000500027020008270200082702000827020008DC
:1000600027020008270200082702000827020008CC
:1000700027020008270200082702000827020008BC
:1000800027020008270200082702000827020008AC
:10009000270200082702000827020008270200089C
:1000A000270200082702000827020008270200088C
:1000B000270200082702000827020008270200087C
:1000C000270200082702000827020008270200086C
:1000D00027020008513900082702000827020008FB
:1000E000270200082702000827020008270200084C
:1000F000270200082702000827020008270200083C
:10010000270200082702000827020008270200082B
:10011000270200082702000827020008270200081B
:10012000270200082702000811080008270200081B
:1001300027020008270200082702000827020008FB
:1001400027020008270200082702000827020008EB
:1001500027020008270200082702000827020008DB
:1001600027020008270200082702000827020008CB
:1001700027020008270200082702000800000000EC
:1001800027020008270200082702000827020008AB
:10019000270200082702000827020008270200089B
:1001A000270200082702000827020008270200088B
:1001B000270200082702000827020008270200087B
:1001C000270200082702000800000000270200089C
:1001D000270200082702000827020008270200085B
:1001E000270200082702000827020008270200084B
:1001F0002702000827020008DFF80CD000F07AF888
:1002000000480047513A0008C00D002006488047CA
:1002100006480047FEE7FEE7FEE7FEE7FEE7FEE7EB
:10022000FEE7FEE7FEE7FEE7A9320008F901000855
:100230002DE9F05F0546002092469B46884606461B
:10024000814640241BE0284641464746224600F0AE
:1002500041F853465A46C01A914110D311461846E8
:10026000224600F028F82D1A67EB01084F46224677
:100270000120002100F01FF817EB00094E41201E5D
:10028000A4F10104DFDC484631462A464346BDE876
:10029000F09FD2B201E000F8012B491EFBD270475B
:1002A0000022F6E710B513460A4604461946FFF742
:1002B000F0FF204610BD202A04DB203A00FA02F1AC
:1002C000002070479140C2F1200320FA03F3194344
:1002D00090407047202A04DB203A21FA02F00021E6
:1002E000704721FA02F3D040C2F120029140084346
:1002F000194670471CB50948009009480190054609
:10030000009C06E0E06840F0010394E8070098478D
:100310001034AC42F6D3FFF773FF0000984000089A
:10032000B8400008000000002DE9F04784B0002527
:100330008046C4F2020506208DF80F00102100222D
:10034000284600F091FD012003F056FB40F2CC401E
:100350000DF10F01C2F200000122642301F0B4FE8E
:10036000044610210122284600F07EFD01201CB128
:1003700003F042FB002661E000F092FC20208DF8A3
:100380000B004FEA18408DF80C004FEA18208DF84A
:100390000D001021002228468DF80E80002600F066
:1003A00063FD012003F028FB40F2CC400DF10B016E
:1003B000C2F20000042264234FF0640901F084FEBD
:1003C000044610210122284600F04EFD012003F0D2
:1003D00013FB9CBBADF806604BF2E01640F2CC4A32
:1003E000CFF6FF76C2F2000A02AF0DF106044FF617
:1003F0000570ADF8080000BF10210022284600F06B
:1004000033FD012003F0F8FA022350463946224614
:10041000CDF8009001F038FF012003F0EDFA102133
:100420000122284600F020FD012000F039FC0136B1
:1004300008D29DF80700C007DED10126304604B07F
:10044000BDE8F08702A0414603F0A2FB92E700BF9F
:10045000536563746F722065726173652074696D92
:10046000656F757420617420616464722030782532
:100470003036580D0A000000F0B581B00024032387
:10048000C4F202048DF80030030C8DF80130030A29
:1004900015460E468DF803001021002220468DF8E7
:1004A000023000F0E1FC012003F0A6FA40F2CC4754
:1004B0006946C2F200070422C823384601F004FE50
:1004C000C823384631462A4601F036FD012003F0A4
:1004D00093FA10210122204600F0C6FC012003F00F
:1004E0008BFA01B0F0BD00002DE9F04F85B0A2F20B
:1004F000011313F5807FC0F09680814610440023DD
:10050000B3EBD05F40F08F8052FA89F0B0F5807F76
:1005100005D955A005B0BDE8F04F03F08BBD00250F
:100520000620C4F202058DF81300884610211746F4
:1005300000222846002400F097FC012003F05CFA1A
:1005400040F2CC4B0DF11301C2F2000B01226423E7
:1005500058464FF0640A01F0B7FD012003F04CFA51
:1005600010210122284600F07FFC012000F098FBBA
:1005700002208DF80F004FEA19408DF810004FEA65
:1005800019208DF811001021002228468DF81290B4
:1005900000F06AFC012003F02FFA0DF10F01042294
:1005A000C823584601F090FDC823584641463A46B4
:1005B00001F08AFD012003F01FFA102101222846D4
:1005C00000F052FC012003F017FA4DF6F006ADF8EA
:1005D0000A40CFF6FF7603AF0DF10A044FF605701F
:1005E000ADF80C0010210022284600F03DFC01204F
:1005F00003F002FA0223584639462246CDF800A0FD
:1006000001F042FE012003F0F7F9102101222846F3
:1006100000F02AFC012003F0EFF9013606D29DF824
:100620000B00C007DED105B0BDE8F08F03A049463E
:1006300003F0AEFA05B0BDE8F08F00BF4572726FEF
:10064000723A205772697465207061676520746919
:100650006D656F75742061742061646472203078F8
:10066000253036580D0A00004572726F723A2043E9
:10067000726F73732D706167652077726974652C72
:100680002073706C697420796F7572206461746175
:10069000210D000000000000B0B584B000256FF00F
:1006A0006000C4F202050390002002901021012294
:1006B000284600F0D9FB022003F09EF91021002209
:1006C000284600F0D1FB022003F096F940F2CC401E
:1006D00003A9C2F2000002AA04236424009401F0DA
:1006E000D3FD022003F088F910210122284600F0F2
:1006F000BBFB022003F080F99DF8091004A09DF8CF
:100700000A209DF80B3003F043FA04B0B0BD00BFDF
:100710004A454445432049443A20307825303258F0
:100720002C203078253032582C2030782530325823
:100730000D0A000000000000FEE7000000000000BD
:1007400000230281C0E90031704700000000000072
:10075000B2FA82F34FEA531CBAB370B5B0F800E0B6
:1007600003890EF10104B4FBF3F505FB1343448840
:10077000A34228D0A2F1010C002400BF4568234603
:100780000C5D9C4505F80E400688058906F10106BA
:10079000B6FBF5F404FB156606800DD0B0F800E05A
:1007A00004890EF10105B5FBF4F606FB14544588E7
:1007B000AC4203F10104E1D1581C4FF0000C90420F
:1007C00028BF4FF0010CBDE8704060467047000044
:1007D00080B5B0F800C0B0F808E00CF10102B2FB3F
:1007E000FEF303FB1E2243889A4201D1002080BD04
:1007F000426802F80C10018802890131B1FBF2F362
:1008000003FB12110180012080BD000000000000E8
:1008100040F21840C2F2000000F086B8000000006C
:100820004EF6FC50CEF20000016841F0807101608C
:1008300041F6B470CEF200000068C00741F200003B
:10084000CEF2000005D04CF65561CCF2AC51C0F8A8
:10085000B01F00214160016841F001010160704753
:100860007047000000000000EFF3108072B600BF78
:10087000FEE700000000000070B50446866D00F041
:10088000FBFA94F83510022925D105462068216C21
:100890000268002922F016020260426922F08001FB
:1008A000416101D1A16C19B1016821F00801016019
:1008B000016821F00101016020680068C0070ED0C6
:1008C00000F0DAFA401B0628F6D3202060650320EA
:1008D00084F835000CE080206065012008E0E06DC0
:1008E0003F2101FA00F0B060012084F835000020BB
:1008F000002184F8341070BD90F83510022909D118
:10090000052180F835100068016821F001010160BF
:1009100000207047802141650120704700000000E1
:10092000406D704700000000F0B581B000210091DB
:1009300040F2040148F2B515C2F20001C1F64E358D
:1009400008220B68D0E916618A40A3FB0535376899
:100950003A420CD003681C68640708D51C6824F070
:1009600004041C60B260426D42F001024265012243
:100970008A403A4208D003685B691B0604D5B2601E
:10098000426D42F00202426504228A403A4208D097
:1009900003681B689B0704D5B260426D42F00402F5
:1009A000426510228A403A4216D001680B681B0744
:1009B00012D5B2600A6852030A6806D4D20506D47A
:1009C0000A6822F008020A6001E011033FD4016CBA
:1009D00011B1044688472046C26D202101FA02F376
:1009E0003B4241D001680F68FF063DD5B36090F8E7
:1009F0003530052B0B681AD123F016030B604B69B9
:100A000023F080034B61036C0BB9836C1BB10B6843
:100A100023F008030B603F219140B160012180F871
:100A20003510016D002280F83420D9BB3EE05A0316
:100A30000A6810D4D20512D40A6822F010020A60A3
:100A4000012180F83510002180F8341007E0816C16
:100A50000029BED1C0E7110301D4416C00E0C16B95
:100A600011B1044688472046416DF9B1416DC9076F
:100A700016D0052180F835100168AA0A0B6823F00A
:100A800001030B60009B01330093934202D80B6873
:100A9000DB07F7D1012180F83510002180F83410F0
:100AA000C16C19B101B0BDE8F040084701B0F0BD1C
:100AB000B0B5044600F0E0F9CCB10546022084F858
:100AC00035000021206884F83410016821F001010C
:100AD000016000BF20680168C9070AD000F0CCF9A6
:100AE000401B0528F6D90321202203207AE00120AB
:100AF000B0BD48F23F0204F1040C0168CEF21002CE
:100B00001140D4F818E09CE82C1011436269194395
:100B1000E3692943256A41EA0C01114341EA0302D2
:100B2000616A2A43042942EA0E0303D1D4E90B2562
:100B30002A43134303600429426922F0070241EA71
:100B400002012DD1D4E90A5341EA050143B3BEF5B0
:100B5000005F08D0BEF1000F12D1022D16D0012D7A
:100B600007D09DB119E0032D17D8DFE805F00B0F72
:100B70000B02A3F1C072B2FA82F252094AB90FE035
:100B8000032D02D2012222B90AE006D1C3F300628A
:100B900032B101200021402224E00022002AF8D1B5
:100BA00000F0F8024AF6AB23103ACAF6AA23A2FBD9
:100BB0000335416140F2FF315F2A20EA010044F22F
:100BC00090014FEA1513C0F600014FF03F02C95CD7
:100BD00088BF0430C4E9160102FA01F181600022E5
:100BE00001210020626584F83510B0BD00000000CE
:100BF00090F834C0BCF1010F01D10220704770B5EC
:100C00004FF0010C80F834C0D0F858E090F835C0AF
:100C1000BCF1010F3DD14FF0020C80F835C04FF010
:100C2000000CC0F854C0D0F800C08468056CC06DDA
:100C3000DCF80060402C26F48026CCF80060CCF86C
:100C400004300B4604BF13460A463F21CCF8083057
:100C500001FA00F0CCF80C20CEF80800DCF8000017
:100C600040F01600CCF80000DCF8140040F08000E2
:100C7000CCF814002DB1DCF8000040F00800CCF8EE
:100C80000000DCF8000040F00100CCF8000000207B
:100C900070BD002180F83410022070BD00000000FB
:100CA000B0B5044600F0E8F840F208010546C2F28B
:100CB0000001621C097818BF0C4400BF00F0DCF88A
:100CC000401BA042FAD3B0BD2DE9F04F83B000F134
:100CD0003E430A2203F1FF7742F20043C4F20203CB
:100CE0004FEAB726984200F1200308BF0922092ED7
:100CF000009338BF4FEAB722002500244FF0000AC6
:100D0000019208E00AF1010A0234BAF1100F05F16C
:100D1000040500F0A48001220F6802FA0AFC17EA19
:100D20000C09EFD04F68032207F0030B02FA04F816
:100D3000ABF10106012E11D8C7F300178668D1F870
:100D40000CE026EA08060EFA04F23243826042689A
:100D500007FA0AF722EA0C023A434260BBF1030F9A
:100D60001CD0C2688F6822EA0802A740BBF1020FBC
:100D700042EA0702C26011D16FF0030205F01C06BF
:100D800002EA5A0E009A0F2352F80EC0B3400F69C0
:100D90002CEA0303B7403B4342F80E3002684B682D
:100DA00003F0030722EA0802A74013F4403F42EA97
:100DB00007020260A6D043F6440343F6004EC4F295
:100DC0000203C4F2010E4FF6084C0F261A68CFF644
:100DD000FF7C42F480421A601A682AF0030302F48E
:100DE000804202920EEB0302029B05F00C0352F8C4
:100DF0000C709E40B743019E06FA03F33B4342F852
:100E00000C30DEF808204B6842EA0907DE0258BFC2
:100E100022EA090743F60C4C9E02C4F2010CCEF8FC
:100E20000870DCF8002042EA090758BF22EA0907E7
:100E30009E03CCF80070DEF8042042EA090758BF90
:100E400022EA0907DB03CEF80470DEF8002042EA4C
:100E5000090758BF22EA0907CEF8007052E703B02D
:100E6000BDE8F08F00000000002A08BF090481617E
:100E7000704700000000000040F6BC10C2F2000005
:100E8000006870470000000090F84120202A03D13C
:100E900090F84020012A01D102207047242280F8D6
:100EA00041200268136823F001031360136823F4E0
:100EB00080531360136819431160116841F00101F8
:100EC0001160202180F84110002180F8401000209E
:100ED000704700000000000090F84120202A03D154
:100EE00090F84020012A01D102207047242280F886
:100EF00041200268136823F001031360136823F490
:100F0000706343EA01211160116841F00101116031
:100F1000202180F84110002180F840100020704707
:100F200000284FD010B590F8411031B9002180F859
:100F30004010044600F048F82046242180F8411073
:100F400090E80610C46822F070620B68012C23F050
:100F500001030B600A614FF404428B6808BF4FF431
:100F6000004223F400438B6042EA0C028A604A6824
:100F7000022C22F4006200F1100408BF02F50062A6
:100F80004A604A6842F0007242F400424A60CA680D
:100F900022F40042CA601CCC1A4342EA0422CA600E
:100FA000D0E907231A430A600A6842F001020A6086
:100FB00000214164202280F84120016380F8421022
:100FC000002010BD0120704770B5AAB0044645F658
:100FD000000501A8902100262996CDE927662696CE
:100FE000C4F200052596FFF75BF92068A84201D0FE
:100FF0002AB070BD4FF40040019001A81B9600F08C
:1010000023F908B1FFF730FC43F6300425A9C4F2F8
:101010000204206840F080002060206800F080001A
:1010200000900098302025901220269001202790D3
:10103000032028900420299005F5E230FFF744FEB4
:10104000206940F480002061206900F48000009055
:1010500000982AB070BD000040F2080040F6BC11B4
:10106000C2F20000C2F2000100780A681044086071
:10107000704700000000000080B5032000F08CF8ED
:101080000F2000F005F800F02BF8002080BD0000D4
:10109000B0B540F2080140F20402C2F20001C2F20F
:1010A00000024FF47A73044609781268B3FBF1F139
:1010B000B2FBF1F1084601F01FFA0F2C4FF00105C9
:1010C0000CD858B94FF0FF3000222146002500F01F
:1010D00033F840F20C00C2F2000004602846B0BDB4
:1010E00082B043F64000C4F20200016841F0805132
:1010F0000160016801F0805101910199416841F45A
:1011000080414160406800F480400090009802B047
:101110007047000000000000002848BF70471C21F5
:101120004EF2001300F01F0201EAD000CEF20003DD
:1011300001219140C150704770B54EF60C5C4FF0E4
:10114000FF36CEF2000C00F1604505F56445DCF891
:101150000030C3F3022E8EF00703042B28BF0423B4
:10116000BEF1030406FA03F321EA030100F00F03C2
:1011700038BF0024043B0028634406FA04F048BF4B
:1011800003F10C05A14022EA000008430001287089
:1011900070BD0000000000004EF60C514FF6FF033A
:1011A000CEF200010A681A4060F30A2242F0806021
:1011B00040F0FD7008607047B0B582B043F6400063
:1011C00047F20005C4F20200C4F20005016841F0D4
:1011D00080510160006800F08050019001982868FB
:1011E00040F480302860FFF747FE04466868C0037B
:1011F00006D4FFF741FE001BB0F57A7FF6D910E068
:10120000286840F400302860FFF736FE044600BF2F
:101210006868800308D4FFF72FFE001BB0F57A7FC3
:10122000F6D9032002B0B0BD002002B0B0BD00006E
:1012300047F20000C4F20000016841F480710160CF
:1012400070470000000000002DE9F04782B0D0F8A0
:1012500000A043F6900604465FEACA70C4F2020694
:101260001AD14FF000095FEA0A3028D556F8040C6D
:10127000E16B20F44010B1F5801F40EA010046F810
:10128000040CB1FA81F04FEA501808BF4FF0010981
:101290005FEACA2018D429E056F8880C20F4000030
:1012A00046F8880C606B56F8881C014346F8881C89
:1012B000B0FA80F04FEA50195FEA0A30D6D44FF006
:1012C00000085FEACA2011D556F8040C216C20F4FE
:1012D0004000B1F5800F40EA010008BF4FF001095E
:1012E000002908BF4FF0010846F8040C5FEA8A6045
:1012F00059D556F8500C47F2000740F0805046F898
:10130000500CC4F2000756F8500C00F080500190C9
:101310000198386840F480703860FFF7ADFD0546ED
:101320003868C00505D4FFF7A7FD401B6428F7D92E
:101330005CE256F8200C10F440701BD0216B01F4D5
:101340004071884216D056F8200C56F8201C41F403
:10135000803146F8201C56F8201C20F4407021F4FF
:10136000803146F8201C46F8200C56F8200CC007A7
:1013700040F0C1814FF6FF43206B56F8882CC0F631
:10138000FF7300F4407122F4F8120340B1F5407F7E
:1013900008BF1A436FF31F3046F8882C56F8201CFC
:1013A000084346F8200C2768F80632D478043ED467
:1013B000380444D4F8034AD4B80350D4780656D439
:1013C00038065CD4F80562D4B80568D478056ED4C4
:1013D000380575D4F8047CD4B80400F18380780211
:1013E00000F18980B80200F18F80780300F19B80C2
:1013F000380200F1A180780100F1A880380100F1E5
:10140000AF80F80000F1B8805FEACA1040F1C080F8
:10141000CDE056F8040C20F0807046F8040CA06B68
:1014200056F8041C084346F8040C7804C0D530680C
:10143000616E20F44030084330603804BAD530681B
:10144000A16E20F4402008433060F803B4D5306822
:10145000E16E20F4401008433060B803AED5306828
:10146000216F20F44000084330607806A8D530682A
:10147000616C20F00300084330603806A2D5306864
:10148000A16C20F00C0008433060F8059CD5306852
:10149000E16C20F0300008433060B80596D5306824
:1014A000216D20F0C00008433060780590D5306889
:1014B000616D20F440700843306038057FF58AAFD5
:1014C0003068A16D20F4406008433060F8047FF577
:1014D00083AF3068E16D20F4405008433060B804B9
:1014E0007FF57DAF3068216E20F4404008433060C6
:1014F00078027FF577AF3068A16F20F080600843F5
:101500003060B8027FF571AF3068E16F20F00060A5
:10151000B1F1006F40EA010008BF4FF001083060F0
:1015200078037FF565AF3068616F20F04070084345
:10153000306038027FF55FAF3068D4F8801020F05B
:1015400080500843306078017FF558AF3068D4F898
:10155000841020F000500843306038017FF551AF0F
:1015600056F8040CD4F8881020F00070084346F8B0
:10157000040CF8007FF548AF56F8040CD4F88C1032
:1015800020F08060084346F8040C5FEACA100ED4CD
:10159000B9F1010F0BD017F0007008D1380719D43A
:1015A000B8F1000F16D1002002B0BDE8F08756F860
:1015B000900C20F0806046F8900CFFF75DFC05462B
:1015C00056F8900C000119D5FFF756FC401B642813
:1015D000F6D90BE156F8900C20F0805046F8900CAC
:1015E000FFF74AFC054600BF56F8900C800015D561
:1015F000FFF742FC401B6428F6D9F7E02068C107DA
:1016000003D0616B002900F08880010340F19980CC
:10161000E16BB1F5801F40F0948098E020680103F1
:1016200001D5E16B19B1C1021ED5216CE1B956F8A3
:10163000081C56F8082C01F4403102F0E042D4E9CD
:1016400005371144A26A41EA83116FF0FF0341EAB2
:10165000076146F8081C56F8041C03EB022221F42B
:10166000F851114346F8041C810214D5E16FB1F121
:10167000006F10D156F8081C56F8082C01F0706164
:1016800002F0E0426369276A114441EA831141EAAA
:10169000074146F8081C000718D556F8080C56F8FC
:1016A000081C00F0706001F4403162690844E1698F
:1016B00040EA8210E36A40EA017046F8080C56F8E6
:1016C000040C20F44030184346F8040C56F8900CF3
:1016D00040F0805046F8900CFFF7CEFB044600BF68
:1016E00056F8900C80003FF55EAFFFF7C5FB001B7E
:1016F0006528F5D37AE0FFF7BFFB054641F288374E
:1017000056F8200C80073FF535AEFFF7B5FB401BC0
:10171000B8424FF00300F3D969E056F80C1C56F8B4
:101720000C2C01F4403102F07062D4E9013511440F
:1017300041EA831141EA057146F80C1C01033FF5AB
:1017400067AFC1021DD5216CB1F5800F19D156F8D4
:101750000C1C56F80C2C01F4403102F0E042636896
:101760001144E26841EA8311656A41EA026146F880
:101770000C1C56F8041C6A1E21F01F01114346F888
:10178000041CC10110D556F80C1C56F80C2C01F0A5
:10179000706102F0E04263682569114441EA8311F7
:1017A00041EA054146F80C1C80010CD56068A3682D
:1017B000D4E90321090441EA801040EA026040EACA
:1017C000037046F80C0C56F8900C40F0806046F818
:1017D000900CFFF751FB054656F8900C00013FF5C1
:1017E000DDAEFFF749FB401B6428F5D9032002B0AA
:1017F000BDE8F0870000000000286DD02DE9F04121
:1018000043F608080446C4F202080D46D8F8F80367
:1018100000F00F0088420CD2D8F8F80320F00F0037
:101820002843C8F8F803D8F8F80300F00F00A842DE
:1018300067D12068810717D5410705D5D8F8001072
:1018400041F4E051C8F80010010705D5D8F80010A0
:1018500041F46041C8F80010D8F80010A26821F0E7
:10186000F0011143C8F80010C00737D1D8F8F803C9
:1018700000F00F00A8420CD9D8F8F80320F00F00B0
:101880002843C8F8F803D8F8F80300F00F00A8427E
:1018900037D12068410707D5D8F80010E26821F455
:1018A000E0511143C8F80010000708D5D8F800002F
:1018B000216920F4604040EAC100C8F80000D8F86F
:1018C000000000F00C0008283AD004285BD147F64D
:1018D0004000C0F27D105AE001207047606858F85F
:1018E000081C022806D0012809D189030CD4012044
:1018F000BDE8F081890107D40120BDE8F0818907A6
:1019000002D40120BDE8F081D8F8001021F00301D5
:101910000843C8F80000FFF7AFFA064641F28837DF
:10192000D8F80000616800F00C00B0EB810F9DD08A
:10193000FFF7A2FA801BB842F2D90320BDE8F0817C
:1019400058F8042C58F8040C400247F6400058F8A8
:10195000041CC0F27D105CBF42F20040C0F2F400F3
:10196000C1F3881102F03F02A0FB01010023FEF742
:101970005FFC58F8041C0222C1F3014102EB410153
:10198000B0FBF1F003E042F20040C0F2F400D8F8FE
:10199000001044F25802C0F60002C1F30311515C7A
:1019A00040F20C02C2F20002C84040F20401C2F24E
:1019B000000108601068FFF76BFB0020BDE8F081B4
:1019C00040F2040043F60801C2F20000C4F2020132
:1019D00044F2680200680968C0F60002C1F382217F
:1019E000515CC8407047000040F2040043F6080113
:1019F000C2F20000C4F2020144F268020068096801
:101A0000C0F60002C1F34231515CC840704700008B
:101A100010B543F60404C4F20204606800F00C0040
:101A2000082806D0042823D147F64000C0F27D10D4
:101A300010BD22682068400247F640002168C0F2CD
:101A40007D105CBF42F20040C0F2F400C1F3881187
:101A500002F03F02A0FB01010023FEF7E9FB216831
:101A60000222C1F3014102EB4101B0FBF1F010BDD4
:101A700042F20040C0F2F40010BD0000000000007F
:101A8000C8B12DE9F04182B00446007843F6000663
:101A9000C007C4F202064AD0B06800F00C00042867
:101AA0000BD13068800342D5606800283FD1012007
:101AB00002B0BDE8F08101207047B06800F00C0072
:101AC000082802D170684002EBD4656830682DB1F7
:101AD000B5F5A02F09D0B5F5803F0AD020F48030AD
:101AE0003060306820F4802005E040F480203060D1
:101AF000306840F480303060FFF7BEF9002D0546B5
:101B000012D000BF3068800311D4FFF7B5F9401B35
:101B10006428F7D924E100BFFFF7AEF9401B642821
:101B20004FF0030000F2038130688003F4D4207882
:101B300080071BD5B06810F00C0F09D0B06800F01A
:101B40000C00082840F089807068400200F1858010
:101B50003068800703D5E068012840F0A180306834
:101B6000216920F0F80040EAC100306020780007C9
:101B70003BD4207840074CD4A56995B3B06800F0F9
:101B80000C00082840F0A080012D706800F08880CB
:101B900000F48001E269914240F0828000F03F0150
:101BA000226A91427CD147F6C071626A0140B1EB72
:101BB000821F75D1A16A4FF6FF72C903914300F4E9
:101BC0004032A1F580318A426AD1E16A00F0706248
:101BD000B2EB016F64D1216B00F0E040B0EB017F0C
:101BE0005ED1002002B0BDE8F08160690028706F0E
:101BF0005AD040F001007067FFF73EF9054600BF7C
:101C0000706F8007B5D4FFF737F9401B0228F7D96A
:101C1000A6E0306C5FEAC00808D4306C40F0805019
:101C20003064306C00F080500190019847F200075A
:101C3000C4F200073868C00524D4386840F48070C6
:101C40003860FFF719F905463868C0051AD4FFF760
:101C500013F9401B6428F7D982E0E0680028306857
:101C600054D040F001003060FFF706F9054600BF90
:101C7000306880073FF573AFFFF7FEF8401B02287E
:101C8000F6D96DE0A568306F1DB1052D52D0012D3C
:101C900054D020F001003067306F20F004004FE096
:101CA000012002B0BDE8F08120F001007067FFF76D
:101CB000E3F80546706F80077FF55BAFFFF7DCF850
:101CC000401B0228F6D94BE0306820F0807030606D
:101CD000FFF7D2F8022D05460CD100BF3068800115
:101CE00055D5FFF7C9F8401B02284FF00300F5D97E
:101CF0001DE000BF306880017FF573AFFFF7BCF8CF
:101D0000401B02284FF00300F4D910E020F001003E
:101D10003060FFF7B1F80546306880077FF526AFE1
:101D2000FFF7AAF8401B02284FF00300F4D902B0D5
:101D3000BDE8F08140F004003067306F40F00100F2
:101D40003067FFF799F8002D054641F2883712D029
:101D5000306F800712D4FFF78FF8401BB842F7D9D5
:101D6000032002B0BDE8F081FFF786F8401BB842BF
:101D70004FF00300DBD8306F8007F5D4B8F1000FC7
:101D80003FF5FAAE306C20F080503064F4E604F198
:101D90001C07256B8FCF0843D9034FF6FF7340EA2A
:101DA0008210994340EA0760A1F58031084340EA78
:101DB00005707060306840F080703060FFF75CF84C
:101DC000044600BF306880013FF50BAFFFF754F8C1
:101DD000001B02284FF00300F4D9A8E70000000020
:101DE00028B1416A29B100210161142106E00120D6
:101DF00070474168B1F5827F02D01C210022425019
:101E0000B0B50025856290F85D1029B980F85C5066
:101E1000044600F059F82046022180F85D10016860
:101E2000D0F80CE0BEF5E06F4EF400640B6898BF8C
:101E30000125B4F5706F23F040034FEA053C0B60B9
:101E400001D000258562D0E90154D0E9043205F4BF
:101E5000827504F404442C4403F00203234402F08A
:101E600001021A44836903F40074C569224405F031
:101E700038042244046A04F08004856A224405F48C
:101E80000054224304240A600EF4706504EA1342ED
:101E9000436A45EA0C0503F01003446B2A4304F03F
:101EA00008051A432A434A60CA6922F40062CA61DB
:101EB00000210166012280F85D20BDE8B04008469F
:101EC000704700000000000080B586B043F20001BA
:101ED0000068C4F20101002288420592CDE9032284
:101EE0000292019201D006B080BD43F63000C4F2E8
:101EF0000200436943F480534361436903F4805310
:101F00000093009B036843F001030360006800F046
:101F1000010000900098E02001900220CDE902022B
:101F2000032004900520059001F5504001A9FEF71B
:101F3000CBFE06B080BD00002DE9F04182B0044622
:101F400090F85D00012818D10120002918BF002A4F
:101F500002D102B0BDE8F08160681D461746B0F5B9
:101F6000827F03D1A068002800F09F800E46FEF714
:101F700083FF94F85C10012903D1022002B0BDE870
:101F8000F0818046012084F85C00042084F85D0024
:101F9000002020662664A4F84470A4F84670A0636C
:101FA000A087E0872168C4E91300D4E902204B68C8
:101FB000B0F5E06F23F4805398BF03F58053B2F57A
:101FC000004F4B6008D121680A6822F040020A6085
:101FD0000A6822F480420A6021680A68520603D423
:101FE0000A6842F040020A60B4F84610B0F5E06FAB
:101FF0001FD8002943D06F1C0EE000BF007B216C6E
:102000000870206C01302064B4F846000138A4F850
:102010004600B4F8460090B320688168C907EDD146
:10202000FEF72AFF002FF4D0A0EB0800A842F0D35F
:102030001BE021B36F1C0CE0C068216C21F8020B7F
:102040002164B4F846000138A4F84600B4F846000C
:10205000A8B120688168C907EED1FEF70DFF002FF7
:10206000F4D0A0EB0800A842F0D3012084F85D0072
:10207000002084F85C00032002B0BDE8F081204617
:102080002946424600F038FF00281CBF2020206669
:10209000012084F85D00002084F85C00206E002898
:1020A00018BF012002B0BDE8F081042084F85D0073
:1020B00020460A463B46009500F0E6F802B0BDE82F
:1020C000F0810000000000002DE9F04182B01D46C3
:1020D00016460F460446FEF7CFFE94F85D10012920
:1020E0000CD180460120002F18BF002E02D102B073
:1020F000BDE8F08194F85C00012803D1022002B011
:10210000BDE8F081012084F85C00032084F85D00C4
:1021100000202066A763A687E6872064A4F8440011
:10212000A4F84600A168B1F5004FC4E9130008D136
:102130002068016821F040010160016841F480419C
:10214000016020680168490603D4016841F040013C
:1021500001606168731EB1FA81F1E268B3FA83F33A
:1021600049095B09B2F5E06F41EA03012DD931B1AC
:1021700037F8021BC160A763E08F0138E087E08F6A
:1021800000285FD06E1C0AE0A16B31F8022BC26000
:10219000A163E08F0138E087E08F002852D02068EB
:1021A00081688907F0D4FEF767FE002EF4D0A0EB1B
:1021B0000800A842F0D3012084F85D00002084F8D4
:1021C0005C00032002B0BDE8F08100294FF6FE71EB
:1021D00011D0E28F022A05D337F8022BC2604FF6E6
:1021E000FE7004E03A780273A06B471C481CA7639A
:1021F000E28F1044E087E08F20B36E1C4F1C0AE092
:10220000007808733946A06B0130A063E08F084462
:10221000E087E08FB0B121688868800708D4FEF7B6
:102220002BFE002EF5D0A0EB0800A842F1D3C2E7A8
:10223000E08F0228A06BE3D330F8022BCA604FF680
:10224000FE71E2E720462946424600F0ADFE002836
:102250001CBF20202066A06838B9002001902068AB
:10226000C1680191806801900198012084F85D00A7
:10227000002084F85C00206E002818BF012002B006
:10228000BDE8F081000000002DE9F04381B01E465A
:1022900015460F460446FEF7EFFD94F85D108046A4
:1022A000012909D14FF001001FB1002D18BF002EE8
:1022B0000ED101B0BDE8F0836068B0F5827F0BD12C
:1022C00004294FF00200F4D1A1680029EAD0F0E718
:1022D00094F85C00012803D1022001B0BDE8F0832E
:1022E000012084F85C0094F85D00042802D00520E9
:1022F00084F85D00002121662564A4F84660A4F8F6
:102300004460A763E6872068A687E1642165E168E9
:102310004268B1F5E06F22F48052134698BF03F58E
:102320008053012E88BF134643600268520603D4CF
:10233000026842F0400202606268731EB2FA82F2E2
:10234000B1F5E06FB3FA83F34FEA52124FEA531339
:10235000089E43EA02013BD931B137F8021BC16044
:10236000A763E08F0138E0870127751CE08F20B953
:10237000B4F84600002800F0A3802068816889072F
:102380000CD5E18F51B1012F08D1A16B002731F895
:10239000022BC260A163E18F0139E1878168C9071F
:1023A0000DD0B4F8461051B1C068216C012721F856
:1023B000020B2164B4F846000138A4F84600FEF789
:1023C0005BFD002DD2D0A0EB0800B042CED36DE073
:1023D00000294FF6FE7111D0E28F022A05D337F89B
:1023E000022BC2604FF6FE7004E03A780273A06BD5
:1023F000471C481CA763E28F1044E0870127751C27
:1024000001F10109E08F18B9B4F84600002857D04F
:1024100020688168890717D5E18FA9B1012F13D1F1
:10242000E18F0229A16B05D331F8022BC2604FF670
:10243000FE7004E009780173A06B411C4846A1635B
:102440000027E18F0844E08720688168C90725D00C
:10245000B4F8461011B3B4F84610022912D3C1687B
:10246000226C22F8021B2264B4F846100239A4F848
:102470004610B4F8461001290FD8416841F4805144
:1024800041600AE0007B216C0870206C0130206400
:10249000B4F846000138A4F846000127FEF7ECFC2A
:1024A000002DAFD0A0EB0800B042ABD3012084F8E0
:1024B0005D00002084F85C00032001B0BDE8F083DB
:1024C00020463146424600F06FFD40B12020206694
:1024D000002084F85C00012001B0BDE8F0830120F9
:1024E00084F85D00002084F85C00206E002818BF8E
:1024F000012001B0BDE8F083411E0020B0EB116F58
:1025000001D0012070474EF21002F023CEF20002FB
:1025100051604EF62351CEF200010B7007219060FE
:1025200011607047000000007047000000000000CC
:102530007047000000000000B0B504460168C06F9D
:10254000D4F880508968090622D5212820D100BFFF
:10255000206850E8020F216820F0800041E8020264
:10256000002AF5D1206F38B1FEF786F920B1206F2F
:10257000FEF7D6F9202829D0206850E8000F2168FE
:1025800020F0C00041E80002002AF5D12020E067D9
:102590002068806840064FF0000045D5222D18BF06
:1025A000B0BD00BF206850E8020F216820F0400055
:1025B00041E80202002AF5D1606F68B1FEF75CF9CC
:1025C00050B1606FFEF7ACF9202805D11020C4F897
:1025D00084000320B0BD00BF206850E8000F2168D0
:1025E00020F4907041E80002002AF5D1206850E8FC
:1025F000020F216820F0010041E80202002AF5D113
:10260000206E01280AD100BF206850E8000F216821
:1026100020F0100041E80002002AF5D12020C4F883
:10262000800000202066A066B0BD00000000000011
:102630007047000000000000B0B5026840F62F03AC
:10264000D16915680B409468202B05F0200E07D146
:10265000BEF1000F04D0816E41B3BDE8B040084721
:1026600040F60F03194209D040F2201304F0010C88
:10267000C0F200432B4013EB0C0324D1CB06036EB6
:1026800015D5012B13D115F0100310D010211162B4
:10269000916849062CD4B0F85810B0F85A20B0F818
:1026A0005A30002B18BF914240F04081B0BDCB02A0
:1026B00011D514F480030ED04FF480111162BDE8DF
:1026C000B040FFF735BFCB0718BF15F480736AD150
:1026D0008B0772D47CE00A0640F10B8115F0800272
:1026E00000F00781C16E0029E0D0BDE8B040084786
:1026F000426F116849688BB2002B49D0B0F858502E
:10270000AB4245D2A0F85A10D169B1F5807F33D0E1
:10271000016851E8001F026821F4807142E800134B
:10272000002BF5D1016851E8021F026821F0010178
:1027300042E80213002BF5D1016851E8021F02683C
:1027400021F0400142E80213002BF5D12021C0F80E
:1027500080100021016600BF016851E8001F026877
:1027600021F0100142E80013002BF5D1416F04461F
:102770000846FEF781F8204602214166B0F858105D
:10278000B0F85A20891A89B2BDE8B040FFF7CCBE34
:10279000B0F8581099427FF489AFD269B2F5807FC2
:1027A0007FF484AFE9E001231362D0F8843043F072
:1027B0000103C0F884308B070AD5BCF1000F07D0A5
:1027C00002231362D0F8843043F00403C0F884304D
:1027D0004B070AD5BCF1000F07D004231362D0F8D1
:1027E000843043F00203C0F884300B070AD55CEA5A
:1027F0000E0307D008231362D0F8843043F0080397
:10280000C0F884300B050BD515F0806308D04FF469
:1028100000631362D0F8842042F02002C0F88420C4
:10282000D0F88420002A3FF441AF890607D5BEF1D5
:10283000000F04D0816E11B104468847204601681C
:10284000D0F8842002F02802896801F0400189183C
:1028500006D10446FFF7ECFE0020C4F88400B0BDAA
:10286000016851E8001F026821F4907142E80013EA
:10287000002BF5D1016851E8021F026821F0010127
:1028800042E80213002BF5D1016E01290AD100BFE5
:10289000016851E8001F026821F0100142E80013AE
:1028A000002BF5D12021C0F88010002101660268BC
:1028B00081669168490635D5016851E8021F0268B2
:1028C00021F0400142E80213002BF5D1416F49B3DA
:1028D00043F2594204460846C0F600020A65FEF774
:1028E0000BF800283FF4E2AE606F016DBDE8B04028
:1028F000084749067FF5DAAE15F0400108BFB0BDC4
:10290000016851E8001F026821F0400142E800130D
:10291000002BF5D12021C1670021C166BDE8B04080
:1029200000F0D6B9BDE8B040FFF782BE891A00BFFB
:10293000026852E8002F036822F4907243E80025F1
:10294000002DF5D1026852E8022F036822F001023F
:1029500043E80225002DF5D12022C0F88020002276
:1029600002668266026852E8002F036822F01002B5
:1029700043E80025002DF5D189B202224266BDE868
:10298000B040FFF7D1BD000010B5C8B10446C06F1C
:1029900028B9002084F87800204600F025F824208B
:1029A000E0672068616A0029026822F00101016085
:1029B00002D0204600F084FC204600F019FE08B149
:1029C000012010BD2068416821F490414160816878
:1029D00021F02A018160016841F001010160204677
:1029E000BDE8104000F0DCBC70B5AAB0044641F26E
:1029F000000501A8902100262996CDE92766269694
:102A0000C4F201052596FDF74BFC2068A84201D0D1
:102A10002AB070BD4020019001A81296FEF714FC68
:102A200008B1FDF721FF43F630000026C4F2020092
:102A3000416941F010014161416901F010010091CB
:102A40000099016841F002010160006825A900F0C9
:102A50000200009000984FF44040259002202690FC
:102A6000032028900420299005F574402796FEF74E
:102A70002BF940F2184546F24040C2F20005C4F27C
:102A8000020028604FF00060C5E901064FF4806045
:102A9000EE60C5E904062846C5E90666C5E908668C
:102AA000FEF706F808B1FDF7DFFE25200021002221
:102AB0006567AC63FEF740FB2520FEF72DFB2AB0CF
:102AC00070BD000000000000D0F88030202B0AD13B
:102AD00094460A4600294FF0010118BFBCF1000FCF
:102AE00004D10846704702210846704710B54FF0E0
:102AF000000EC0F860E003685B681B020AD500BFE7
:102B0000036853E8003F046843F0806344E8003101
:102B10000029F5D142652221A0F858C0C0F884E010
:102B2000C0F88010436F13B343F2115143F2B9540C
:102B3000C0F60001C0F60004C3E90F1443F2694176
:102B40000024C0F60001C3E91314016804462431CF
:102B500018466346FEF74CF80146204639B110216D
:102B6000C0F884102021C0F88010012121E0016903
:102B700051B100BF016851E8001F026841F4807143
:102B800042E80013002BF5D1016851E8021F0268EA
:102B900041F0010142E80213002BF5D1016851E830
:102BA000021F026841F0400142E80213002BF5D1F8
:102BB0000021BDE8104008467047000000000000FA
:102BC0007047000000000000704700000000000097
:102BD0002DE9F04381B00446C06F202808D1884613
:102BE0000120002918BF002A06D101B0BDE8F083FA
:102BF000022001B0BDE8F0831D460020C4F8840027
:102C00002120E0671646FEF737F9A4F85060A4F8D3
:102C100052600646A168B1F5805F02D120690028A4
:102C200050D0C1464FF00008B4F8520058B36F1CA2
:102C30000EE0B9F1000F1DD0206819F8011B816268
:102C4000B4F852000138A4F85200B4F85200D0B1E0
:102C50002068C0690006ECD4002FF9D0FEF70CF90B
:102C600001464FF0030045B3891BA94225D82068CF
:102C70000068EDE738F8020B21684FF000096FF3A8
:102C80005F208862DCE72068C069400614D46F1CAE
:102C900004E000BF2068C06940060DD4002FF9D0C1
:102CA000FEF7EAF801464FF0030035B1891BA9424F
:102CB00003D820680068EDE700202021E16701B01B
:102CC000BDE8F0834FF00009AEE70000000000000F
:102CD0007047000000000000FEE700000000000058
:102CE00080B582B043F630000022C4F202000168D1
:102CF00041F4800101600068002100F4800001902F
:102D000001983A20FEF718FA3A2002B0BDE8804058
:102D1000FEF702BA000000002DE9F04387B043F649
:102D200030000027C4F202000697CDE90477CDE910
:102D300002770168002441F0040101600168C4F2D7
:102D4000020401F0040101910199016841F0800140
:102D500001600168012201F080010191019901687F
:102D600041F0010101600168102601F001010191AB
:102D70000199016841F0020101600068102100F032
:102D800002000190019820464FF00108FEF76CF810
:102D900004F580650221002228464FF00209FEF763
:102DA00063F8CDE9026802AE032005902046314663
:102DB0000497FDF789FF28463146CDE90298CDE911
:102DC0000477FDF781FF07B0BDE8F0830000000045
:102DD00010B540F2784045F60001C2F2000042F61C
:102DE0003122C4F20001C4F2D302C0E90012002172
:102DF00081600122C0E90321C0E90511C0E9071182
:102E0000FEF78EF808B1FDF72FFD40F27840002163
:102E1000C2F20000FEF738F808B1FDF725FD40F2D8
:102E200078440021C2F200042046FEF755F808B1AC
:102E3000FDF71AFD2068016841F00101016010BD35
:102E400080B540F2CC4043F20001C2F20000C4F26F
:102E500001014FF4E06201604FF482714160002192
:102E60008160C0E9032141614FF400728261082250
:102E7000C0E90721C0E9091107224163C0E90B211C
:102E8000FEF7AEFF002808BF80BDBDE88040FDF71B
:102E9000EBBC00000000000010B540F2305441F2DD
:102EA0000000C2F20004C4F201000C2120604FF4C3
:102EB000E13060600020C4E902002061C4E905102F
:102EC000C4E9070060622046FFF75EFD08B1FDF728
:102ED000CBFC2068016841F01001016010BD0000CA
:102EE000FEE7000000000000FEE700000000000018
:102EF000704700000000000070B582B004464068D2
:102F0000B0F5827F15460E4615D1A168B1F5004F88
:102F100018BFB1F5806F04D121680A6822F0400221
:102F20000A60B0F5827F06D1204631462A4600F07D
:102F3000F3F868BB19E040F2040049F68171C2F26F
:102F40000000C1F25E610068A0FB0101480D4FF472
:102F50007A714843019000BF019830B1019801385F
:102F60000190206880680006F6D46068B0F5827F22
:102F700015D1A068B0F5004F18BFB0F5806F0ED125
:102F80004FF4C061204632462B4600F051F830B174
:102F9000206E40F020002066032002B070BD0020AB
:102FA00002B070BD0000000070B582B015460E463C
:102FB0004FF4C05132462B46044600F039F860BB4E
:102FC00040F2040049F68171C2F20000C1F25E6174
:102FD0000068A0FB0101480D4FF47A71484301904D
:102FE0006068B0F5827F07D1204631462A4600F05E
:102FF00093F890B909E000BF019830B10198013809
:103000000190206880680006F6D44FF4C061204625
:1030100032462B4600F00CF830B1206E40F0200014
:103020002066032002B070BD002002B070BD000019
:103030002DE9F04F83B01E4690460D4683464FF073
:1030400000098DF80790FDF717FF301A00EB08070D
:10305000FDF712FF40F204012322C2F20001DBF867
:1030600000A009685143090D79430291DAF808106C
:1030700029424CD0064608F1010407E002980138C5
:103080000290DBF800008068284214D0B5F5C06FCC
:1030900005D19AF80C008DF807009DF80700002C68
:1030A000EFD0FDF7E9FE801BB84207D20298002856
:1030B000E4D10027E5E74FF0000928E0DBE9000153
:1030C000B1F5827F426822F0E00141600AD1DBF86D
:1030D0000810B1F5004F11BFB1F5806F016821F004
:1030E00040010160DBF82810B1F5005F07D10168ED
:1030F00021F400510160016841F400510160012098
:103100008BF85D0000208BF85C004FF00309484607
:1031100003B0BDE8F08F0000F0B581B015460E4653
:103120000446FDF7A9FE281A8719FDF7A5FE40F20F
:103130000401C2F200010968C1F3CB317943009167
:1031400021688968090602D4002001B0F0BD054657
:10315000013606E00098013800902068806800067B
:10316000F2D5002EF9D0FDF787FE401BB84204D2FD
:1031700000980028EED10027EFE7D4E90001B1F56F
:10318000827F426822F0E001416009D1A168B1F577
:10319000004F11BFB1F5806F016821F0400101605F
:1031A000A16AB1F5005F07D1016821F40051016007
:1031B000016841F400510160012084F85D000020A5
:1031C00084F85C00032001B0F0BD000000000000A6
:1031D0007047000000000000FDF73EBF0000000047
:1031E00010B594B007AC34212046FDF759F8002003
:1031F0000690CDE90400CDE90200FEF719F843F688
:103200004000C4F20200016841F080510160006892
:1032100000F08050019047F200000199C4F20000D4
:10322000016841F44041016000684FF4800100F4FE
:10323000404001900198012007904FF480300890A1
:1032400002200D900E9119210F914FF4D871CDE904
:103250001010CDE912002046FEF712FC18B1EFF372
:10326000108072B6FEE7FDF7A7FF20B1EFF31080E4
:1032700072B600BFFEE70F200290022003900020EC
:1032800004904FF4A05005904FF48050069002A88F
:103290000721FEF7B1FA20B1EFF3108072B600BF3C
:1032A000FEE714B010BD00004EF68850CEF20000CC
:1032B000016841F4700101607047000000000000E7
:1032C000416A0A070CD4CA0715D18A071ED44A07D7
:1032D00027D4CA0630D48A0639D44A0642D454E0E8
:1032E0000268D0F834C0536823F4004343EA0C0367
:1032F0005360CA07E9D00268D0F828C0536823F4A5
:10330000003343EA0C0353608A07E0D50268D0F823
:103310002CC0536823F4803343EA0C0353604A07FC
:10332000D7D50268D0F830C0536823F4802343EA2D
:103330000C035360CA06CED50268D0F838C0936833
:1033400023F4805343EA0C0393608A06C5D50268D0
:10335000D0F83CC0936823F4005343EA0C03936015
:103360004A0612D50268D0F840C05368BCF5801FE9
:1033700023F4801343EA0C03536006D1536823F40B
:10338000C00C436C43EA0C035360090658BF7047F6
:103390000168806C4A6822F400221043486070473C
:1033A000B0B582B004460020C4F88400FDF764FD87
:1033B000216805460968090718D54FF40011002255
:1033C0006FF07E40009020462B4600F025FA68B151
:1033D000206850E8000F216820F0800041E80002DA
:1033E000002AF5D1032020217C222FE020680068EC
:1033F000400723D54FF4800100226FF07E400090FB
:1034000020462B4600F008FAC0B100BF206850E803
:10341000000F216820F4907041E80002002AF5D1E5
:10342000206850E8020F216820F0010041E8020204
:10343000002AF5D103202021802207E02020E06728
:10344000C4F880000021642200202166A1500021E0
:1034500084F8781002B0B0BD806B0021A0F85A103B
:10346000FFF7E6B800000000806B0368C26FD0F879
:1034700080C09B681B0611D5212A0FD10022A0F81D
:10348000522000BF026852E8002F036822F0C002F9
:1034900043E800210029F5D12021C167016889682E
:1034A00049062DD5BCF1220F2AD10021A0F85A10CF
:1034B000016851E8001F026821F4907142E800138E
:1034C000002BF5D1016851E8021F026821F00101CB
:1034D00042E80213002BF5D1016E01290AD100BF89
:1034E000016851E8001F026821F0100142E8001352
:1034F000002BF5D12021C0F88010002101668166E3
:10350000D0F8841041F01001C0F88410FFF790B893
:103510008446C069B0F5807FDCF8380030D00022E6
:10352000A0F85A20026852E8002F036822F4807243
:1035300043E800210029F5D1016851E8021F026823
:1035400021F0010142E80213002BF5D1016851E896
:10355000021F026821F0400142E80213002BF5D15E
:103560002021C0F88010016E012909D1016851E8BD
:10357000001F026821F0100142E80013002BF5D172
:1035800000224266016E012911D1A0F85A20DCF810
:1035900000104A68B0F8581093B28B4238BFA0F8B8
:1035A0005A20B0F85A20891A89B2FEF7BDBFFFF73A
:1035B00007BB0000000000000146806B012242664C
:1035C000026E012A11D1B0F858205308A0F85A30E1
:1035D000096849688BB2934298BFA0F85A10B0F8B6
:1035E0005A10511A89B2FEF79FBFFFF7EDBA0000DB
:1035F00070B506460268806846F6F314D6E90331D2
:1036000001437569D6F81CC01068CEF6FF742943D3
:103610002040084340EA0C001060506820F44050FD
:1036200018435060B06947F2FF73316AC4F2000377
:103630000843916821F430619A4240EA01004FF05A
:103640001001906018DC44F6FF30C4F200008242A2
:103650002BDC44F20040C4F2000082424AD044F61F
:103660000000C4F2000082426BD143F69000C4F225
:1036700002000068010951E040F6FF70C4F2010049
:10368000824225DC47F60000C4F20000824238D0B6
:1036900047F60040C4F20000824252D143F6900047
:1036A000C4F202000068810B38E044F60040C4F226
:1036B000000082422CD045F20000C4F20000824299
:1036C0003FD143F69000C4F202000068010A25E0F1
:1036D00041F20040C4F20100824224D041F20000D5
:1036E000C4F2010082422CD143F69000C4F20200E1
:1036F00001681EE043F69000C4F2020000688108F1
:103700000CE043F69000C4F202000068010B05E0F3
:1037100043F69000C4F202000068810944F280027E
:10372000C0F6000209E043F69000C4F2020000680F
:10373000810A44F27002C0F6000201F0030052F860
:10374000201042F20040BCF5004FC0F2F4000DD151
:10375000082919D80025DFE801F0051F29172717C8
:1037600017175400FEF72CF908BB45E008290FD8BD
:103770000025DFE801F00515310D2F0D0D0D4B0073
:10378000FEF71EF948BB37E00020012578B933E089
:103790000020012508BB2FE0FEF726F938B92BE001
:1037A000FEF722F9C8B927E0FEF732F920B37168B5
:1037B0004A0802EB40004FF6EF72B0FBF1F0A0F1C7
:1037C0001001914217D84FF6F0710140C0F342004A
:1037D00008440DE0FEF71CF970B171684FF6EF7206
:1037E00000EB5100B0FBF1F0A0F11001914202D8C2
:1037F0003168C86000E001250020C6E91A002846AB
:1038000070BD4FF400400028D1D1F5E74FF40040DF
:103810000028E2D1F0E700002DE9F04381B0044632
:103820000068C0690840401AB0FA80F04009904230
:1038300055D1DDF820800D461646994608F101075E
:1038400009E000BF2068C0692840401BB0FA80F042
:103850004009B04243D1002FF4D0FDF70DFBB8F181
:10386000000F01464FF003003AD0A1EB090141459A
:1038700036D8206801684907E4D5402D18BF802D4F
:10388000E0D0C16909072ED4C1690905DAD54FF422
:1038900000610162206850E8000F216820F49070F8
:1038A00041E80002002AF5D1206850E8020F2168A3
:1038B00020F0010041E80202002AF5D1206E012823
:1038C0000AD100BF206850E8000F216820F01000E6
:1038D00041E80002002AF5D1032020212AE000203F
:1038E00001B0BDE8F0830821016200BF206850E804
:1038F000000F216820F4907041E80002002AF5D101
:10390000206850E8020F216820F0010041E802021F
:10391000002AF5D1206E01280AD100BF206850E8A6
:10392000000F216820F0100041E80002002AF5D1C4
:10393000012008212022C4F8802000222266A266ED
:10394000C4F8841084F8782001B0BDE8F08300004A
:1039500040F23050C2F200000068C169C90640D58B
:1039600010B51021016240F23050C2F20000FEF7A3
:10397000E3FD40F2184040F6B811C2F20000C2F276
:10398000000100684068C0F5806008800888D0B1F8
:1039900008880022B2EB902F15D140F21004C2F239
:1039A000000420680A8840F21501C2F20001FCF709
:1039B000CFFE20680021FCF70BFF40F2140001212C
:1039C000C2F20000017040F2305040F21501C2F224
:1039D0000000C2F200014FF48062FFF775F8BDE805
:1039E000104040F23050C2F20000FEF725BE000049
:1039F000FEE700000000000080B541F2040E40F236
:103A00000403CEF2000EC2F20003DEF80020D3F869
:103A100000C04DF68363C4F21B33ACFB0331890C49
:103A2000484300BFDEF80010891A8142FAD380BDF6
:103A300080B582B0019040F23050C2F2000001A97E
:103A400001224FF0FF33FFF7C3F8019802B080BDA9
:103A5000ADF5007DFDF710FBFFF7C2FBFFF75CF94A
:103A6000FFF73EF9FFF7B4F9FFF716FAFFF7E8F9A9
:103A7000FCF7D6FE30A000F0DDFA6420FDF710F967
:103A8000FCF70AFE4FF0FF3140A800BF4218013199
:103A9000B1F5807F5170F9D100200024FCF744FC7F
:103AA0006420FDF7FDF840AD4FF4807220462946B2
:103AB000FCF71AFD0A20FDF7F3F804F58074B4F55D
:103AC000805FF1D100246D460FF288082BA700BF5C
:103AD00020024FF480722946FCF7CEFC4046214676
:103AE00000F056F8002600BFAA5D3846314600F0C7
:103AF0004FF80136B6F5807FF6D10134102CE7D1AE
:103B000040F2100040F2B851C2F20000C2F20001CF
:103B10004FF480620068FCF713FE40F2305040F230
:103B20001501C2F20000C2F200014FF48062FEF7FC
:103B3000CBFF00BFFEE700BF68656C6C6F20686557
:103B4000726520697320422073656374696F6E0D1E
:103B5000000000002D2D2D2D2D2D2D2D2D2D2D2D49
:103B60002D706167655B25645D2D2D2D2D2D2D2D0F
:103B70002D2D2D2D2D2D0D0A00000000725F64618A
:103B800074615B25645D203D2025640D0A00000002
:103B90000FB4054B10B503A9044A029800F018F8B9
:103BA00010BC5DF814FB0000313A00080000002052
:103BB00002E008C8121F08C1002AFAD170477047F6
:103BC000002001E001C1121F002AFBD17047000054
:103BD0002DE9FF4F8DB00F460546002606E025284B
:103BE0000BD0DDE90F1290476D1C761C2878002859
:103BF000F5D111B03046BDE8F08F0024A246A146B1
:103C00000122EC4900E0044315F8013F203B02FA91
:103C100003F00842F7D128782A2810D06FF02F023D
:103C20002878A0F13001092914D80AEB8A0102EBA7
:103C3000410144F0020400EB010A6D1CF0E701CFE2
:103C40005FEA000A03D544F40054CAF1000A44F0C4
:103C500002046D1C28782E2817D115F8010F44F0A6
:103C600004042A280ED06FF02F022878A0F130012A
:103C700009290AD809EB890102EB410100EB01098E
:103C80006D1CF2E757F8049B6D1C28786C280FD048
:103C900006DC4C2817D068280DD06A2814D104E01F
:103CA000742810D07A280FD10DE044F400140AE0F3
:103CB00044F4801401E044F440146978814202D154
:103CC00004F580146D1C6D1C2A786E2A1FD00CDC44
:103CD000632A31D004DC002A8BD0582A11D1A3E00A
:103CE000642A68D0692A0CD165E0732A2ED004DCDE
:103CF0006F2A73D0702A04D19BE0752A6FD0782A7E
:103D00006ED01046DDE90F129047761C50E1C4F3E7
:103D10000250022806D0032809D0042801CF09D078
:103D2000066045E101CFF117C0E9006140E101CF34
:103D300006803DE106703BE117F8040B8DF80000AA
:103D400000208DF80100EB46012003E057F804BB8A
:103D50004FF0FF3061074FF0000102D40DE008F191
:103D60000101884649450FDA8045F8DB1BF8081049
:103D70000029F4D108E008F1010188468142FADB0C
:103D80001BF808100029F6D1DDE90F23AAEB080083
:103D90008146214600F036F9304400EB080604E085
:103DA000DDE90F121BF8010B9047B8F10108F7D2BB
:103DB00021464846F7E00A21C4F302534FF0000BB6
:103DC0000891022B04D001CFC117032B09D00AE0C0
:103DD000FF1D27F00707F7E8020108E032E01FE0C7
:103DE00020E000B2C117042B01D140B2C117031E5D
:103DF00071F1000307DA4FF0000CD0EB0C006CEB14
:103E000001012D2302E0230504D52B238DF8243056
:103E1000012303E0E30701D02023F7E7984658E0A9
:103E20000A2110E010210EE010204FF0000B089046
:103E30000CE010214FF0000B44F004044FF008098F
:103E4000089103E008214FF0000B0891C4F30253DE
:103E5000022B04D001CF0021032B06D006E0FF1D6A
:103E600027F00707F7E8020103E080B2042B00D136
:103E7000C0B24FF0000823072BD5702A07D0DDF819
:103E800020C08CF0100C5CEA0B0C05D00EE0402337
:103E90008DF82430012308E050EA010306D03023D6
:103EA0008DF824308DF8252002239846DDF820C0B7
:103EB0008CF0080C5CEA0B0C0BD150EA010301D129
:103EC000630706D530238DF824304FF00108A9F19F
:103ED0000109582A04D038A20B9208AA0A920BE0D2
:103EE0003AA2F9E75B46089AFCF7A2F90B9B9B5CA8
:103EF0000A9A521E0A92137050EA0102F2D10A98ED
:103F0000ADEB000000F1200B600702D524F48034F3
:103F100001E04FF00109D94502DDA9EB0B0000E0FB
:103F2000002000EB0B0141440890AAEB010AE003DA
:103F300006D4DDE90F232146504600F063F806441D
:103F40004FF0000908E009A911F80900DDE90F1296
:103F5000904709F10109761CC145F4DBE0030CD55B
:103F6000DDE90F232146504600F04CF8064404E0FA
:103F7000DDE90F1230209047761C0899481E089002
:103F80000029F5DC08E00A980A990078491C0A9192
:103F9000DDE90F129047761CBBF10001ABF1010B7C
:103FA000F1DC21465046DDE90F2300F019F8064404
:103FB0006D1C1BE6092801003031323334353637A9
:103FC0003839616263646566000000003031323365
:103FD0003435363738394142434445460000000005
:103FE0002DE9F041044600251E461746880404D4F6
:103FF00005E039462020B0476D1C641EF9D52846DF
:10400000BDE8F0812DE9F041044600251E469046AA
:10401000C80301D5302700E02027880404D505E037
:1040200041463846B0476D1C641EF9D52846BDE8A8
:10403000F081000010B5044601E0FFF7F9FC14F828
:10404000010B04490028F8D1BDE810400A20FFF711
:10405000EFBC000000000020000000000000000095
:10406000010203040607080900000000010203041E
:104070000100000004000000020000000800000031
:104080000000000004000000020000000800000022
:104090000006101600061016B840000800000020A8
:1040A00010000000B03B0008C840000810000020CD
:1040B000B00D0000C03B0008000000000024F40028
:0840C0000100000010000000E7
:04000005080001F9F5
:00000001FF
