:020000040800F2
:10000000C01200200D020008194C0008E14600084B
:10001000114C000871140008695600080000000027
:10002000000000000000000000000000514E000829
:10003000E115000800000000214C0008594E00089E
:1000400027020008270200082702000827020008EC
:1000500027020008270200082702000827020008DC
:1000600027020008270200082702000827020008CC
:1000700027020008270200082702000827020008BC
:1000800027020008270200082702000827020008AC
:10009000270200082702000827020008270200089C
:1000A000270200082702000827020008270200088C
:1000B000270200082702000827020008270200087C
:1000C000270200082702000827020008270200086C
:1000D00027020008D155000827020008270200085F
:1000E000270200082702000827020008270200084C
:1000F000270200082702000827020008270200083C
:10010000270200082702000827020008270200082B
:10011000270200082702000827020008270200081B
:10012000270200082702000891150008270200088E
:1001300027020008270200082702000827020008FB
:1001400027020008270200082702000827020008EB
:1001500027020008270200082702000827020008DB
:1001600027020008270200082702000827020008CB
:1001700027020008270200082702000800000000EC
:1001800027020008270200082702000827020008AB
:10019000270200082702000827020008270200089B
:1001A000270200082702000827020008270200088B
:1001B000270200082702000827020008270200087B
:1001C000270200082702000800000000270200089C
:1001D000270200082702000827020008270200085B
:1001E000270200082702000827020008270200084B
:1001F0002702000827020008DFF80CD000F0A0F961
:1002000000480047F1560008C01200200648804709
:1002100006480047FEE7FEE7FEE7FEE7FEE7FEE7EB
:10022000FEE7FEE7FEE7FEE7294F0008F9010008B8
:100230002DE9F05F0546002092469B46884606461B
:10024000814640241BE0284641464746224600F0AE
:1002500024F953465A46C01A914110D31146184604
:10026000224600F00BF92D1A67EB01084F46224693
:100270000120002100F002F917EB00094E41201E79
:10028000A4F10104DFDC484631462A464346BDE876
:10029000F09F40EA01039B0703D009E008C9121F41
:1002A00008C0042AFAD203E011F8013B00F8013B30
:1002B000521EF9D27047D2B201E000F8012B491E5C
:1002C000FBD270470022F6E710B513460A460446F3
:1002D0001946FFF7F0FF204610BD10B5002200E0E0
:1002E000521C835C8C5CA34201D1002BF8D1D8B2A4
:1002F000E1B2401A10BD00000FB400B58DB010A9D6
:1003000009900B9000914FF0FF300A9000200C9064
:1003100005480690054807906A4609A80F9900F01D
:10032000E1F80DB05DF814FB010500081F05000899
:100330002DE9FF5F1D464FF0FF3BD5E90146914691
:100340005F464FF00008A9697F1C01988847296A19
:10035000824688470028F6D1BAF1FF3F0CD024F43A
:10036000C064002E19DD600614D5BAF12B0F09D038
:10037000BAF12D0F0ED103E0584604B0BDE8F09F4E
:1003800044F48064A9697F1C01988847761E8246E0
:10039000002E02DDBAF1300F03D0B9F1000F26D0E4
:1003A00032E0A969761E44F400747F1C01988847E6
:1003B0008246002E05DDBAF1780F06D0BAF1580F4B
:1003C00003D0B9F1000F10D01EE0B9F1000F02D038
:1003D000B9F1100F18D1A969761E24F400747F1C9E
:1003E000019888478246102002E0082000E00A2099
:1003F000814609E008FB0908A969761E44F40074E7
:100400007F1C019888478246002E05DD49465046EC
:1004100000F053F80028EDDAE96901988847A00553
:1004200002D46FF00100A8E7E00725D1600613D5DC
:10043000600502D5C8F1000000E0404629680A1DA9
:100440002A600968220501D5087015E0220701D548
:10045000088011E008600FE02868011D296000682D
:10046000210502D580F8008006E0210702D5A0F81A
:10047000008001E0C0F8008038467EE7202A04DBD7
:10048000203A00FA02F1002070479140C2F12003A7
:1004900020FA03F3194390407047202A04DB203AE6
:1004A00021FA02F00021704721FA02F3D040C2F194
:1004B000200291400843194670473A2800D230384C
:1004C00020F02002412A01D3A2F13700884201D353
:1004D0004FF0FF307047000002681144137801604C
:1004E00018467047D16004495161044911620021E6
:1004F0001161114600F042B8D904000871050008E6
:10050000426842B1016811F8013B23B1521EC0E9B3
:100510000012184670470121C160881E704742686A
:100520005AB1C368016843B983688B4205D0491E3C
:10053000521CC0E90012002070474FF0FF30704796
:100540001CB509480090094801900546009C06E04A
:10055000E06840F0010394E8070098471034AC428B
:10056000F6D3FFF74DFE0000A05F0008C05F000853
:10057000C0B24FF4F05100F097B900002DE9F34FED
:100580008BB04FF0000801F10C000C464FF0010B4E
:1005900046460DF1080A01906269012101989047D1
:1005A000051E2DD0252D2CD0216A8847C0B1626947
:1005B000012101989047216A88470028F7D1411E00
:1005C00062690198904700E0761CA1690B98884702
:1005D000216A88470028F7D1E1690B988847DBE753
:1005E000A1690B9888470746A84201D1761CD3E73A
:1005F000E1690B9888477F1C02D1B8F1000F6FD0DA
:1006000046E1002762693D463946019890472A280D
:1006100004D162690121019890470125DFF8849295
:100620006269012101989047A0F130010A290AD29C
:100630004F45E5DC07EB870100EB4107303FDFD496
:1006400045F01005ECE7E90601D46FF000476C288F
:100650000AD04C2814D0682815D06A280DD07428E8
:100660001CD07A281AD01DE06269012101989047B8
:100670006C2802D045F0040514E045F002050DE0B9
:1006800045F020050AE06269012101989047682839
:1006900002D045F0080505E045F4006562690121D6
:1006A00001989047C4E9015765283DD019DC5828C6
:1006B0007AD00CDC452837D004DC252826D0412808
:1006C00031D131E046282FD047282CD12CE05B28AF
:1006D00077D0612828D063287CD0642823D15AE0C1
:1006E000D0E06F2848D008DC66281DD067281BD0D2
:1006F000692821D06E2816D127E0702845D07328AC
:1007000068D0752847D078280DD14DE0A1690B98A5
:100710008847054625283FF469AFE1690B9888476B
:100720006D1C3FF46AAFB3E023466A466FF00100E8
:100730000B99AFF300809EE045F040006060A80791
:1007400023464FF0000236D43EE0E8077FF447AF7F
:100750002068011D21600068290501D506701BE78E
:10076000290701D5068017E7A90703D5F117C0E9C6
:10077000006111E706600FE745F040006060A807E0
:1007800023464FF0080216D41EE040F60E0125EA7B
:100790000100606016E045F040006060A807234655
:1007A0004FF00A0207D40FE045F040006060A80750
:1007B00008D5234610226FF001000B99AFF300809B
:1007C00059E007E0234610226FF001000B99FFF774
:1007D000AFFD50E04FF000094F464B46632802D072
:1007E0005B2806D040E0E80601D40120A060012784
:1007F0003AE062690121019890475E2805D14FF0E7
:1008000001096269494601989047216939B9002177
:100810000A46534643F82120491C0829FADBB0B3A5
:10082000216969B9C11700EBD16253110AEB830149
:1008300022F01F02821A01200B68904003430B60D4
:1008400062690121019890475D28E8D1B9F1000F54
:1008500009D00020514651F82020D24341F82020F1
:10086000401C0828F7DB02AB224600976FF001001E
:100870000B99AFF3008000280CDA401C08D1BBF1C3
:10088000000F05D04FF0FF300DB0BDE8F08FFFE74F
:100890004046F9E7E90701D108F1010806444FF0A5
:1008A000000B79E6CCCCCC0C7F2801D9002208E0E3
:1008B000064A02EB5002C007127800D1120902F07A
:1008C0000F0201209040084070470000805C000843
:1008D0002DE9F04381B045F600500221C0F600003A
:1008E00004F064FF40F2F44740F2E00840F21C04D8
:1008F0001426C2F20007C2F20008C2F200044FF050
:10090000000920A506E000BF6420013E01F038F98F
:1009100030061AD038780028F6D0D8F800002146E2
:1009200000F012FE2046294687F80090FFF7D5FC1C
:100930000028E9D140F21D000121C2F2000001703F
:1009400001B0BDE8F04300F02FB840F2200043F2C0
:100950004431C2F20000C1F222110068884205D180
:100960000EA001B0BDE8F04305F078B906A005F08F
:1009700075F948F20000C0F6000001B0BDE8F04390
:1009800003F082BF770000006A756D7020746F20DD
:10099000412073656374696F6E0D00006F74612090
:1009A0007570646174610D002DE9F0438DB040F203
:1009B0001D04C2F20004207888B345F69E70C0F68C
:1009C000000005F04BF945F65D60C0F6000005F04B
:1009D00045F945F60070C0F6000005F03FF945F610
:1009E0005C70C0F6000005F039F945F67770C0F686
:1009F000000005F033F945F6A560C0F6000005F0EB
:100A00002DF945F63070C0F6000005F027F945F6DF
:100A10009470C0F6000005F021F90020207040F22B
:100A2000F440C2F200000178002973D040F21809A6
:100A30000021C2F200090170D9F8000000B381075B
:100A40006BD4410700F1B880010763D540F6B86167
:100A5000C2F20001098801295CD140F25B01C2F2B7
:100A600000010978312955D3392953D840F2E402DD
:100A700040F00300C2F20002303982F8001415E29F
:100A800040F2E00040F21C04C2F20000C2F2000496
:100A90002146006800F058FD0FF2CC412046FFF7D8
:100AA0001CFC002800F0C08040F21C000FF2BC418A
:100AB000C2F20000FFF711FC002800F05E8140F256
:100AC0001C000FF2AC41C2F20000FFF706FC002848
:100AD00000F08B8140F21C000FF29841C2F200003E
:100AE000FFF7FBFB002800F0C18140F21C000FF271
:100AF0008841C2F20000FFF7F0FB002800F0CC8133
:100B000040F21C000FF27441C2F20000FFF7E5FB57
:100B1000002849D00DB0BDE8F08340F2E00040F27B
:100B20005B05C2F20000C2F200052946006800F031
:100B30000BFD40F6B8632A78C2F2000395F801C0B5
:100B400095F802E01F88852F08BF012A00F0B780C2
:100B500018880128DED1042ADCD1062005F078F8B7
:100B600040F2E400D9F80020C2F20000D0F80404FA
:100B700010F0070122F00200C9F8000011D040F285
:100B8000100048F20002C2F20000C0F60002006845
:100B900002EB80204A0140F2E401C2F2000100F0C1
:100BA000ABFA642000F0ECFF45F64E60C0F60000A2
:100BB00005F054F804F05CFD40F2E00040F2400122
:100BC000C2F20000C2F20001006800F0BDFC40F675
:100BD000B860C2F2000000881A2840F00481D9F8F9
:100BE000000006AA20F00400C9F8000040F240000E
:100BF000CCA1C2F200001346CDE90022CDE90222C9
:100C000004920592FFF778FB082840F0F98040F243
:100C100040010820C2F200011A2200F0E9F945F66D
:100C2000D660C0F60000ECE045F67850C0F6000053
:100C300005F014F80120072100F02EFA45F67E6237
:100C400045F66E61C0F60002C0F60001002808BF3C
:100C50001146084605F002F845F69E70C0F6000001
:100C600004F0FCFF45F65D60C0F6000004F0F6FFFE
:100C700045F60070C0F6000004F0F0FF45F65C7029
:100C8000C0F6000004F0EAFF45F67770C0F60000F9
:100C900004F0E4FF45F6A560C0F6000004F0DEFFB6
:100CA00045F63070C0F6000004F0D8FF45F69470A9
:100CB000C0F600000DB0BDE8F04304F0CFBF05F171
:100CC0000308D9F800200020802341F22104474680
:100CD00022F00102C9F800203E7880EA06200026B2
:100CE00001B202464000002948BF84EA4200072EB4
:100CF00006F10106F4D3013B01371904ECD10EEBE8
:100D00000C01FF2969D180B2B5F8831009BAB0EBA4
:100D1000114F62D1062004F09BFF40F2E40540F23F
:100D20001001C2F20005C2F20001D5F8040400F07F
:100D30000702C4080C60461C05EBC2108022414625
:100D4000C5F80464FFF7A5FA70077FF4E3AE99F8DD
:100D50000000000700F1AF8048F2000040F2E4011B
:100D6000C0F60000C2F2000100EB84204FF4807254
:100D70000DB0BDE8F04300F0BFB945F68450C0F6B1
:100D8000000004F06BFF45F67850C0F6000004F058
:100D900065FF0120072100F07FF945F67E6245F6E8
:100DA0006E61C0F60002C0F60001002808BF1146BF
:100DB000084604F053FFD9F80000002140F003007A
:100DC000C9F8000040F2E400C2F20000C0F80414C8
:100DD000C0F808140DB0BDE8F08315200DB0BDE8D3
:100DE000F04304F035BF45A00BE045F6ED50C0F6EA
:100DF000000004F033FFD9F8000040F0040055E093
:100E00004FA004F02BFF45F69E70C0F6000004F0E2
:100E100025FF45F65D60C0F6000004F01FFF45F6B3
:100E20000070C0F6000004F019FF45F65C70C0F6D3
:100E3000000004F013FF45F67770C0F6000004F0E0
:100E40000DFF45F6A560C0F6000004F007FF45F66B
:100E50003070C0F6000004F001FF45F69470C0F653
:100E6000000004F0FBFE0DB0BDE8F08306AC0820E6
:100E70001A2221460025CDF82F50CDE90A55CDE99B
:100E80000855CDE9065500F083F83DA021468DF8C0
:100E9000325004F08BFCB6E745F64450C0F6000033
:100EA00004F0DCFED9F8000040F00800C9F80000AA
:100EB0000DB0BDE8F08340F21400C2F200000178EA
:100EC00061B995F800144FF4801301220270C1EB50
:100ED000C10103EB4140E02100F0E2F995F8000484
:100EE0004FF480114FF48062C0EBC00001EB404032
:100EF00029460DB0BDE8F04300F0E2B9496E636FDA
:100F00007272656374206C656E677468206F66200A
:100F10004F54412076657273696F6E206E756D62F5
:100F200065720D005645522D25642E25642E2564CC
:100F30002D25642D25642D25642D25643A25640016
:100F4000496E636F727265637420666F726D61744F
:100F5000206F66204F54412076657273696F6E2052
:100F60006E756D6265720D00310000003200000088
:100F7000330000003400000035000000370000009E
:100F80005645523A205B25735D0D0A0000000000B3
:100F900010B584B0044640F65810CDE90012C2F2F4
:100FA0000000A121012364220292224601F010FADE
:100FB00038B1024604A0214604B0BDE8104004F058
:100FC000F5BB04B010BD00BF726561642066616945
:100FD0006C20617420616464722025642C20737419
:100FE000617475733D25640D0A0000000000000067
:100FF0002DE9F04F83B08AB340F6581793468846E0
:1010000082464FF06409C2F2000700BF1FFA8AF55A
:101010000AF00700C0F10806A0211FFA8BF0012397
:10102000B042384638BF5E462A46CDF80890F4B242
:10103000CDE9008401F060FB98B900BFA0210A222D
:101040006423384601F0F8F80028F7D1ABEB040B25
:10105000A2445FEA0B4058FA86F8D7D103B0BDE846
:10106000F08F024603A0294603B0BDE8F04F04F01C
:101070009DBB00BF7772697465206661696C2061F1
:101080007420616464722025642C2073746174750B
:10109000733D25640D0A000070B586B00C46054608
:1010A0000026009600F090FE0220059001A86946F7
:1010B0000196CDE9035400F077FD044600F008FEE8
:1010C0001CB1009903A004F071FB00F001FE204662
:1010D00006B070BD4572617365206661696C6564B8
:1010E00020617420736563746F7220256C750D0A1E
:1010F00000000000000000002DE9F04114460D46FC
:10110000064600F061FEACB10FF2340804E000BF07
:10111000013C06F104060DD055F8042B02200023F3
:10112000314600F0E1FD07460028F1D0404604F0CA
:1011300095FDEDE700F0CCFDF8B2BDE8F08100BF11
:101140007772697465206661696C65640D000000E2
:101150002DE9F04784B000258046C4F20205062040
:101160008DF80F0010210022284600F099FF012081
:1011700004F092FA40F6AC100DF10F01C2F200003B
:101180000122642302F064FC044610210122284657
:1011900000F086FF01201CB104F07EFA002661E019
:1011A00000F0EEFCD8208DF80B004FEA18408DF8C7
:1011B0000C004FEA18208DF80D001021002228465F
:1011C0008DF80E80002600F06BFF012004F064FA19
:1011D00040F6AC100DF10B01C2F2000004226423B2
:1011E0004FF0640902F034FC044610210122284625
:1011F00000F056FF012004F04FFA9CBBADF80660EA
:101200004BF2E01640F6AC1ACFF6FF76C2F2000AB7
:1012100002AF0DF106044FF60570ADF8080000BFEF
:1012200010210022284600F03BFF012004F034FA90
:101230000223504639462246CDF8009002F0E8FCE1
:10124000012004F029FA10210122284600F028FF8D
:10125000012000F095FC013608D29DF80700C00778
:10126000DED10126304604B0BDE8F08702A0414639
:1012700004F09CFA92E700BF536563746F722065B7
:10128000726173652074696D656F75742061742077
:1012900061646472203078253036580D0A000000F1
:1012A000002908BF7047B0B50C4605462846FFF731
:1012B0004FFF013C05F58055F8D1BDE8B0407047BF
:1012C0002DE9F04F85B0A2F2011313F5807FC0F035
:1012D0009680814610440023B3EBD05F40F08F80AE
:1012E00052FA89F0B0F5807F05D955A005B0BDE868
:1012F000F04F04F0B3BC00250620C4F202058DF8BF
:10130000130088461021174600222846002400F0CA
:10131000C7FE012004F0C0F940F6AC1B0DF113012B
:10132000C2F2000B0122642358464FF0640A02F017
:101330008FFB012004F0B0F910210122284600F0B3
:10134000AFFE012000F01CFC02208DF80F004FEAD8
:1013500019408DF810004FEA19208DF81100102166
:10136000002228468DF8129000F09AFE012004F029
:1013700093F90DF10F010422C823584602F068FBCF
:10138000C823584641463A4602F062FB012004F069
:1013900083F910210122284600F082FE012004F08A
:1013A0007BF94DF6F006ADF80A40CFF6FF7603AFB5
:1013B0000DF10A044FF60570ADF80C001021002263
:1013C000284600F06DFE012004F066F9022358461D
:1013D00039462246CDF800A002F01AFC012004F0A4
:1013E0005BF910210122284600F05AFE012004F08A
:1013F00053F9013606D29DF80B00C007DED105B0C7
:10140000BDE8F08F03A0494604F0D0F905B0BDE86F
:10141000F08F00BF4572726F723A2057726974651F
:1014200020706167652074696D656F7574206174E3
:101430002061646472203078253036580D0A00002F
:101440004572726F723A2043726F73732D706167C9
:10145000652077726974652C2073706C69742079CB
:101460006F75722064617461210D0000000000003E
:10147000FEE700000000000000230281C0E9003107
:101480007047000000000000B2FA82F34FEA531CDC
:10149000BAB370B5B0F800E003890EF10104B4FBF3
:1014A000F3F505FB13434488A34228D0A2F1010CB5
:1014B000002400BF456823460C5D9C4505F80E409E
:1014C0000688058906F10106B6FBF5F404FB1566EE
:1014D00006800DD0B0F800E004890EF10105B5FBDF
:1014E000F4F606FB14544588AC4203F10104E1D143
:1014F000581C4FF0000C904228BF4FF0010CBDE883
:10150000704060467047000080B5B0F800C0B0F889
:1015100008E00CF10102B2FBFEF303FB1E2243883C
:101520009A4201D1002080BD426802F80C10018867
:1015300002890131B1FBF2F303FB1211018001209A
:1015400080BD00000000000003884288934208BF6D
:101550007047B0B5002500BF1FFA85FED0F804C063
:1015600001351CF8022001F80E20B0F802C00289F3
:101570000CF10103B3FBF2F404FB12320388428046
:101580009342E9D1BDE8B040704700000000000080
:1015900040F6F800C2F2000000F036B9000000008A
:1015A0004EF6FC50CEF20000016841F080710160FF
:1015B00041F6B470CEF200000068C00741F20000AE
:1015C000CEF2000005D04CF65561CCF2AC51C0F81B
:1015D000B01F00214160016841F0010101607047C6
:1015E0007047000000000000EFF3108072B600BFEB
:1015F000FEE70000000000002DE9F04140F69C28C5
:1016000043F60C46C2F200080446C4F2020600206B
:10161000C8F8180000F04CFD3168C90335D43068B3
:1016200010F0F20F306837D0800705D5D8F81800D1
:1016300040F02000C8F818003068C00605D5D8F87A
:10164000180040F01000C8F818003068800605D572
:10165000D8F8180040F00800C8F8180030684006B4
:1016600005D5D8F8180040F00400C8F81800306814
:10167000000605D5D8F8180040F00200C8F8180098
:101680000120F2213160BDE8F0810546671C0DD0D4
:101690008CB90320BDE8F081C0074FF0000008BFFF
:1016A000BDE8F08101213160BDE8F0813068C00300
:1016B000B5D5002FFAD000F0FBFC401BA042F5D9B5
:1016C0000320BDE8F081000070B50446866D00F08F
:1016D000EFFC94F83510022925D105462068216CCD
:1016E0000268002922F016020260426922F080019D
:1016F000416101D1A16C19B1016821F008010160BB
:10170000016821F00101016020680068C0070ED067
:1017100000F0CEFC401B0628F6D320206065032095
:1017200084F835000CE080206065012008E0E06D61
:101730003F2101FA00F0B060012084F8350000205C
:10174000002184F8341070BD90F83510022909D1B9
:10175000052180F835100068016821F00101016061
:101760000020704780214165012070470000000083
:1017700028B190F83510022903D1022070470120CA
:10178000704710B502684AF6AB2C02F0F803CAF6AF
:10179000AA2CA3F110041168A4FB0C3C21F0010158
:1017A000116001464FEA1C1345F6F84C002010600A
:1017B00050604FF0210E9060C0F6000CD0605F2C9E
:1017C00010614FF03F04C2F814E040F2FF3E22EAFD
:1017D0000E021CF8033088BF0432C1E9162304FA54
:1017E00003F39360C1E90F00C1E91100C1E91300DF
:1017F000486581F8350081F8340010BD0000000014
:10180000406D704700000000F0B581B000210091EC
:1018100040F2040148F2B515C2F20001C1F64E359E
:1018200008220B68D0E916618A40A3FB05353768AA
:101830003A420CD003681C68640708D51C6824F081
:1018400004041C60B260426D42F001024265012254
:101850008A403A4208D003685B691B0604D5B2602F
:10186000426D42F00202426504228A403A4208D0A8
:1018700003681B689B0704D5B260426D42F0040206
:10188000426510228A403A4216D001680B681B0755
:1018900012D5B2600A6852030A6806D4D20506D48B
:1018A0000A6822F008020A6001E011033FD4016CCB
:1018B00011B1044688472046C26D202101FA02F387
:1018C0003B4241D001680F68FF063DD5B36090F8F8
:1018D0003530052B0B681AD123F016030B604B69CA
:1018E00023F080034B61036C0BB9836C1BB10B6855
:1018F00023F008030B603F219140B160012180F883
:101900003510016D002280F83420D9BB3EE05A0327
:101910000A6810D4D20512D40A6822F010020A60B4
:10192000012180F83510002180F8341007E0816C27
:101930000029BED1C0E7110301D4416C00E0C16BA6
:1019400011B1044688472046416DF9B1416DC90780
:1019500016D0052180F835100168AA0A0B6823F01B
:1019600001030B60009B01330093934202D80B6884
:10197000DB07F7D1012180F83510002180F8341001
:10198000C16C19B101B0BDE8F040084701B0F0BD2D
:10199000B0B5044600F08CFBCCB10546022084F8BB
:1019A00035000021206884F83410016821F001011D
:1019B000016000BF20680168C9070AD000F078FB09
:1019C000401B0528F6D90321202203207AE00120BC
:1019D000B0BD48F23F0204F1040C0168CEF21002DF
:1019E0001140D4F818E09CE82C10114362691943A7
:1019F000E3692943256A41EA0C01114341EA0302E4
:101A0000616A2A43042942EA0E0303D1D4E90B2573
:101A10002A43134303600429426922F0070241EA82
:101A200002012DD1D4E90A5341EA050143B3BEF5C1
:101A3000005F08D0BEF1000F12D1022D16D0012D8B
:101A400007D09DB119E0032D17D8DFE805F00B0F83
:101A50000B02A3F1C072B2FA82F252094AB90FE046
:101A6000032D02D2012222B90AE006D1C3F300629B
:101A700032B101200021402224E00022002AF8D1C6
:101A800000F0F8024AF6AB23103ACAF6AA23A2FBEA
:101A90000335416140F2FF315F2A20EA010045F63B
:101AA000F8414FEA1513C0F600014FF03F02C95C40
:101AB00088BF0430C4E9160102FA01F181600022F6
:101AC00001210020626584F83510B0BD00000000DF
:101AD00090F834C0BCF1010F01D10220704770B5FD
:101AE0004FF0010C80F834C0D0F858E090F835C0C1
:101AF000BCF1010F3DD14FF0020C80F835C04FF022
:101B0000000CC0F854C0D0F800C08468056CC06DEB
:101B1000DCF80060402C26F48026CCF80060CCF87D
:101B200004300B4604BF13460A463F21CCF8083068
:101B300001FA00F0CCF80C20CEF80800DCF8000028
:101B400040F01600CCF80000DCF8140040F08000F3
:101B5000CCF814002DB1DCF8000040F00800CCF8FF
:101B60000000DCF8000040F00100CCF8000000208C
:101B700070BD002180F83410022070BD000000000C
:101B8000B0B5044600F094FA40F208010546C2F2EE
:101B90000001621C097818BF0C4400BF00F088FAED
:101BA000401BA042FAD3B0BD2DE9F04381B040F60E
:101BB0009C28C2F2000898F81420012A03D10220C0
:101BC00001B0BDE8F0830446012088F814004CF20F
:101BD00050308946FFF710FD002870D14FF0FF31DB
:101BE000C9F800102168012928D143F61045606822
:101BF000C4F202050423216902282A6808BF4FF4B1
:101C0000004322F4407203282A6008BF48F204030C
:101C10002868184328600802296880B2084340F405
:101C200080302860BFF34F8F4CF25030FFF7E4FC58
:101C3000296848F204029143296040E0D4E9027126
:101C400039448F423BD243F61046FD00C4F20206EF
:101C50002069C1B2000203294FF4407138BF81B23C
:101C600030680B2F20F440703060306840EA01008B
:101C70003060306820F0F8003060284688BF20309F
:101C80003168084340F002003060306840F4803032
:101C90003060BFF34F8F4CF25030FFF7ADFC31682E
:101CA00021F0FA01316040B9D4E902120137114440
:101CB0008F4205F10805CBD301E0C9F8007000217F
:101CC00088F8141001B0BDE8F083000000000000A7
:101CD00043F610410020C4F202010A6842F00042BB
:101CE0000A607047000000002DE9F04140F69C2496
:101CF000C2F20004277D012F02D10220BDE8F0814D
:101D00000546012020754CF250301E4690460F4685
:101D1000FFF772FC002850D12846032D43F61045EA
:101D2000C4F2020541D8DFE800F002300F1E286837
:101D300020F44070286028682860286840F001007E
:101D4000286087F800802EE0286820F44070286022
:101D5000286840F400702860286840F0010028607E
:101D6000C7F800801FE0286820F4407028602868C9
:101D700040F440702860286840F001002860C7F8EF
:101D80000080BFF36F8F7E600DE0286820F4407004
:101D90002860286840F480702860286840F00100BE
:101DA0002860A7F80080BFF34F8F4CF25030FFF748
:101DB00023FC296821F00101296000212175BDE87B
:101DC000F08100000000000043F60440C4F202006D
:101DD000C168B1F1FF3FC4BF0020704740F223113A
:101DE000C4F26751016048F6AB11CCF6EF510160C7
:101DF000C068C00F704700002DE9F04F82B000F1BD
:101E00003E42019102F1FF7742F20042C4F2020227
:101E10000A2190424FEAB72608BF0921092E00F196
:101E2000200E38BF4FEAB72100240027002500917B
:101E300024E000BF0321036801FA04F26FF00301FC
:101E400001EA55069343036007F01C030F2101FAD2
:101E500003F35EF8061099434EF80610C1689143EB
:101E6000C160416821EA0A01416081689143816053
:101E700001350437102D04F102043CD0012101FA90
:101E800005FA01991AEA0108F2D043F6004125F05B
:101E90000303C4F2010107F00C0BA1F57E7C0F21B6
:101EA00001FA0BF95CF80330009903EA090301FA1F
:101EB0000BF29342BED143F6004643F60C41C4F206
:101EC0000106C4F20101326822EA08023260726837
:101ED00022EA080272600A6822EA08020A60AA0876
:101EE000B36823EA0803B3605CF8223023EA0903ED
:101EF0004CF822309EE702B0BDE8F08F00000000F1
:101F00002DE9F04F83B000F13E430A2203F1FF7741
:101F100042F20043C4F202034FEAB726984200F1AE
:101F2000200308BF0922092E009338BF4FEAB722C9
:101F3000002500244FF0000A019208E00AF1010A8E
:101F40000234BAF1100F05F1040500F0A48001225B
:101F50000F6802FA0AFC17EA0C09EFD04F68032257
:101F600007F0030B02FA04F8ABF10106012E11D8B9
:101F7000C7F300178668D1F80CE026EA08060EFAC7
:101F800004F232438260426807FA0AF722EA0C023E
:101F90003A434260BBF1030F1CD0C2688F6822EA4B
:101FA0000802A740BBF1020F42EA0702C26011D14A
:101FB0006FF0030205F01C0602EA5A0E009A0F2386
:101FC00052F80EC0B3400F692CEA0303B7403B43FD
:101FD00042F80E3002684B6803F0030722EA080259
:101FE000A74013F4403F42EA07020260A6D043F63E
:101FF000440343F6004EC4F20203C4F2010E4FF64E
:10200000084C0F261A68CFF6FF7C42F480421A6013
:102010001A682AF0030302F4804202920EEB0302D4
:10202000029B05F00C0352F80C709E40B743019ED2
:1020300006FA03F33B4342F80C30DEF808204B6805
:1020400042EA0907DE0258BF22EA090743F60C4CB0
:102050009E02C4F2010CCEF80870DCF8002042EABF
:10206000090758BF22EA09079E03CCF80070DEF882
:10207000042042EA090758BF22EA0907DB03CEF829
:102080000470DEF8002042EA090758BF22EA090777
:10209000CEF8007052E703B0BDE8F08F00000000FA
:1020A000002A08BF09048161704700000000000099
:1020B00040F6BC60C2F200000068704700000000FB
:1020C00090F84120202A03D190F84020012A01D124
:1020D00002207047242280F841200268136823F010
:1020E00001031360136823F48053136013681943CA
:1020F0001160116841F001011160202180F8411048
:10210000002180F84010002070470000000000000F
:1021100090F84120202A03D190F84020012A01D1D3
:1021200002207047242280F841200268136823F0BF
:1021300001031360136823F4706343EA0121116003
:10214000116841F001011160202180F84110002147
:1021500080F8401000207047A8B110B5242180F805
:102160004110016804460A6822F001020A6000F08A
:1021700053FC0020606484F84100206384F842002E
:1021800084F8400010BD01207047000000000000EE
:1021900000284FD010B590F8411031B9002180F8D7
:1021A0004010044600F058FC2046242180F84110DD
:1021B00090E80610C46822F070620B68012C23F0CE
:1021C00001030B600A614FF404428B6808BF4FF4AF
:1021D000004223F400438B6042EA0C028A604A68A2
:1021E000022C22F4006200F1100408BF02F5006224
:1021F0004A604A6842F0007242F400424A60CA688B
:1022000022F40042CA601CCC1A4342EA0422CA608B
:10221000D0E907231A430A600A6842F001020A6003
:1022200000214164202280F84120016380F842109F
:10223000002010BD012070472DE9F04F81B000272C
:102240000097044690F84100202807D12068806953
:10225000000403D494F84000012803D1022001B007
:10226000BDE8F08F012084F84000242084F841006C
:1022700048F208001D4660F39F214FF000085F1CE4
:102280004FF02009C4F84480E068934601280846CE
:1022900022688A4618BF40F400605060FFF708FFCC
:1022A000216806468A69896902F0200201F010015E
:1022B000891810D020688169C9061CD51021C16118
:1022C00031E000BF20688169806901F0200100F0E1
:1022D00010004018EED1002FF4D0FFF7E9FE002DDA
:1022E00060D0801BA842EDD95CE000BF2068806907
:1022F00080062FD52068806980065CD42046294658
:10230000324602F0F1F978BB002FF3D0FFF7D0FE90
:10231000002DEBD0801BA842ECD9E7E7206880694C
:10232000800634D52068806980060FD4204629466F
:10233000324602F0D9F9F8B9002FF3D0FFF7B8FE12
:10234000002DEBD0801BA842ECD9E7E72068C0F84D
:102350001C9011E0606C40F02000606484F84190B3
:1023600084F8428084F84080606C042804D120689E
:10237000C0F81C90C4F8448000985A460130009080
:102380000098514600985845FFF47EAF0AE0606C13
:1023900040F02000606484F8419084F8428084F822
:1023A0004080E9E7202084F84100606C40F0200084
:1023B0006064012005E020682021C161002084F8CC
:1023C0004110002184F8401001B0BDE8F08F0000FA
:1023D0002DE9F04F81B0044690F84100202807D144
:1023E0000A9E4EB10B9F3FB194F84000012807D1DF
:1023F000022001B0BDE8F08F4FF40070606476E118
:102400009B4692468846012084F84000FFF750FE24
:10241000216805468969090428D4222084F84100EE
:10242000402084F8420000206064666249F600099A
:102430005FFA8BF16785606320684246CFF60049FA
:102440006FF39F224368904642EA014103EA090282
:102450000C9E114401F500514160806980073CD415
:10246000771C28E0206880690004D6D51921204611
:102470002A4602F039F9002840F03981FFF718FEAA
:10248000401B1A28EED3206880690004EAD5606CEE
:1024900040F020006064202084F84100002084F88F
:1024A000420022E120688069800740F111812068A4
:1024B0008069800711D4204631462A4602F014F97B
:1024C000002840F01181002FF1D0FFF7F1FD002E20
:1024D000E8D0401BB042EAD9E4E7BBF1010F206825
:1024E00023D04FEA1A218162806980071CD4771CAF
:1024F00008E020688069800740F1EA8020688069F0
:10250000800711D4204631462A4602F0EDF8002813
:1025100040F0EA80002FF1D0FFF7CAFD002EE8D08E
:10252000401BB042EAD9E4E720685FFA8AF1816291
:102530002068806940061CD4771C08E02068806908
:10254000400640F1C58020688069400611D42046CD
:1025500031462A4602F0C8F8002840F0C580002F16
:10256000F1D0FFF7A5FD002EE8D0401BB042EAD91C
:10257000E4E7608DB0F5807F40460CD321680122EE
:1025800022850023C0F2011351F8042F02EA090248
:1025900003F510530DE0628D21682285D2B251F807
:1025A000043F03EA090343EA024242F20043C0F255
:1025B000002340F2000A1A43771CC0F2011A4FF0C0
:1025C000010B09F580691043086004E02068806908
:1025D00040077FF55CAF20688069400711D4204632
:1025E00031462A4602F080F8002840F08080002F13
:1025F000F1D0FFF75DFD002EE8D0401BB042EAD9D4
:10260000E4E72068616A406A0870218D606A0130E1
:102610006062481E2085618D01396185618DD1B36D
:10262000000405D037E02068806900067FF52FAFF1
:1026300020688069000610D4204631462A4602F000
:1026400053F8002853D1002FF2D0FFF731FD002EB0
:10265000E9D0401BB042EBD9E5E7608DB0F5807F53
:1026600008D32068A4F828B0524650F8041F01EAA5
:1026700009010BE0618D20682185C9B250F8042F53
:1026800002EA090242EA01414FF000721143434657
:1026900041EA08010160608D00289CD12046314646
:1026A0002A4602F0BDF810BB206820214EF6000338
:1026B000C161CFF6006342681A40426084F841105D
:1026C000002084F8420084F8400001B0BDE8F08F9B
:1026D000606C40F020006064202084F841000020FD
:1026E00084F8420084F84000002084F84000012073
:1026F00001B0BDE8F08F00002DE9F04F81B0044635
:1027000090F84100202807D10A9E4EB10B9F3FB19F
:1027100094F84000012807D1022001B0BDE8F08FF5
:102720004FF40070606472E19B4692468946012036
:1027300084F84000FFF7BCFC21680546896909045C
:102740002CD4212084F84100402084F8420000204D
:102750006064666249F600486785CFF600482168E4
:1027600060635FFA8BF248466FF39F204B68A8F5D1
:102770008067814640EA024003EA070210440C9E4B
:1027800040F0807040F400504860886980073CD475
:10279000771C28E0206880690004D2D519212046E2
:1027A0002A4601F0A1FF002840F03181FFF780FCAC
:1027B000401B1A28EED3206880690004EAD5606CBB
:1027C00040F020006064202084F84100002084F85C
:1027D00042001AE120688069800740F10981206881
:1027E0008069800711D4204631462A4601F07CFFDB
:1027F000002840F00981002FF1D0FFF759FC002E8E
:10280000E8D0401BB042EAD9E4E7BBF1010F2068F1
:1028100023D04FEA1A218162806980071CD4771C7B
:1028200008E020688069800740F1E28020688069C4
:10283000800711D4204631462A4601F055FF002872
:1028400040F0E280002FF1D0FFF732FC002EE8D0FC
:10285000401BB042EAD9E4E720685FFA8AF181625E
:102860002068806900061CD4771C08E02068806915
:10287000000640F1BD8020688069000611D4204622
:1028800031462A4601F030FF002840F0BD80002F7D
:10289000F1D0FFF70DFC002EE8D0401BB042EAD982
:1028A000E4E7608DB0F5807F48460AD32168FF22B7
:1028B0002285002351F8042FC0F2FF1302EA080218
:1028C0000BE0628D21682285D2B251F8043F03EA01
:1028D000080343EA02424FF0007340F2000A1A4331
:1028E000771CC0F2FF1A4FF0FF0B1043086004E0A2
:1028F0002068806980077FF562AF20688069800763
:1029000010D4204631462A4601F0EEFE00287ED142
:10291000002FF2D0FFF7CCFB002EE9D0401BB042D5
:10292000EBD9E5E7616A206811F8012B82626162E8
:10293000618D01396185218D01392185628DD2B387
:10294000090406D037E02068806900067FF537AFBC
:1029500020688069000610D4204631462A4601F0DE
:10296000C3FE002853D1002FF2D0FFF7A1FB002EA9
:10297000E9D0401BB042EBD9E5E7608DB0F5807F30
:1029800008D32068A4F828B0524650F8041F01EA82
:1029900008010BE0618D20682185C9B250F8042F31
:1029A00002EA080242EA01414FF0007211434B462D
:1029B00041EA09010160608D00289ED12046314620
:1029C0002A4601F02DFF10BB206820214EF600039F
:1029D000C161CFF6006342681A40426084F841103A
:1029E000002084F8420084F8400001B0BDE8F08F78
:1029F000606C40F020006064202084F841000020DA
:102A000084F8420084F84000002084F8400001204F
:102A100001B0BDE8F08F000010B541F60044006839
:102A2000C4F20204A4F5E231884218BF10BD43F697
:102A30004000C4F20200016821F48001016010210D
:102A40002046FFF7D9F920212046BDE81040FFF7C6
:102A5000D3B900000000000070B5AAB0044645F6E6
:102A6000000501A8902100262996CDE92766269623
:102A7000C4F200052596FDF725FC2068A84201D088
:102A80002AB070BD4FF40040019001A81B9600F0E1
:102A900037F908B1FEF7A8FD43F6300425A9C4F2C2
:102AA0000204206840F080002060206800F0800070
:102AB0000090009830202590122026900120279029
:102AC000032028900420299005F5E230FFF718FA3A
:102AD000206940F480002061206900F480000090AB
:102AE00000982AB070BD000040F2080040F6BC61BA
:102AF000C2F20000C2F2000100780A6810440860C7
:102B0000704700000000000080B5032000F0A0F82E
:102B10000F2000F005F800F02BF8002080BD000029
:102B2000B0B540F2080140F20402C2F20001C2F264
:102B300000024FF47A73044609781268B3FBF1F18E
:102B4000B2FBF1F1084601F09BF90F2C4FF00105A3
:102B50000CD858B94FF0FF3000222146002500F074
:102B600047F840F20C00C2F2000004602846B0BDF5
:102B700082B043F64000C4F20200016841F0805187
:102B80000160016801F0805101910199416841F4AF
:102B900080414160406800F480400090009802B09D
:102BA0007047000000000000002848BF70471C214B
:102BB0004EF2801300F01F0201EAD000CEF20003B3
:102BC00001219140C150BFF34F8FBFF36F8F70470A
:102BD000002848BF70471C214EF2001300F01F026E
:102BE00001EAD000CEF2000301219140C1507047AC
:102BF00070B54EF60C5C4FF0FF36CEF2000C00F1D3
:102C0000604505F56445DCF80030C3F3022E8EF014
:102C10000703042B28BF0423BEF1030406FA03F3C1
:102C200021EA030100F00F0338BF0024043B002811
:102C3000634406FA04F048BF03F10C05A14022EA00
:102C4000000008430001287070BD00000000000073
:102C50004EF60C514FF6FF03CEF200010A681A40FF
:102C600060F30A2242F0806040F0FD700860704717
:102C7000B0B582B043F6400047F20005C4F202004E
:102C8000C4F20005016841F080510160006800F065
:102C9000805001900198286840F480302860FFF748
:102CA00007FA04466868C00306D4FFF701FA001B60
:102CB000B0F57A7FF6D910E0286840F4003028603B
:102CC000FFF7F6F9044600BF6868800308D4FFF7F1
:102CD000EFF9001BB0F57A7FF6D9032002B0B0BD42
:102CE000002002B0B0BD000047F20000C4F20000B6
:102CF000016841F48071016070470000000000002D
:102D00002DE9F04782B0D0F800A043F690060446C3
:102D10005FEACA70C4F202061AD14FF000095FEAF6
:102D20000A3028D556F8040CE16B20F44010B1F5B8
:102D3000801F40EA010046F8040CB1FA81F04FEA26
:102D4000501808BF4FF001095FEACA2018D429E0E3
:102D500056F8880C20F4000046F8880C606B56F892
:102D6000881C014346F8881CB0FA80F04FEA5019DD
:102D70005FEA0A30D6D44FF000085FEACA2011D5C6
:102D800056F8040C216C20F44000B1F5800F40EAA5
:102D9000010008BF4FF00109002908BF4FF00108EA
:102DA00046F8040C5FEA8A6059D556F8500C47F291
:102DB000000740F0805046F8500CC4F2000756F867
:102DC000500C00F0805001900198386840F48070F9
:102DD0003860FFF76DF905463868C00505D4FFF780
:102DE00067F9401B6428F7D95CE256F8200C10F410
:102DF00040701BD0216B01F44071884216D056F808
:102E0000200C56F8201C41F4803146F8201C56F85E
:102E1000201C20F4407021F4803146F8201C46F834
:102E2000200C56F8200CC00740F0C1814FF6FF433C
:102E3000206B56F8882CC0F6FF7300F4407122F422
:102E4000F8120340B1F5407F08BF1A436FF31F30FB
:102E500046F8882C56F8201C084346F8200C2768B2
:102E6000F80632D478043ED4380444D4F8034AD463
:102E7000B80350D4780656D438065CD4F80562D42A
:102E8000B80568D478056ED4380575D4F8047CD4B8
:102E9000B80400F18380780200F18980B80200F163
:102EA0008F80780300F19B80380200F1A1807801C7
:102EB00000F1A880380100F1AF80F80000F1B8807F
:102EC0005FEACA1040F1C080CDE056F8040C20F053
:102ED000807046F8040CA06B56F8041C084346F8B2
:102EE000040C7804C0D53068616E20F4403008438B
:102EF00030603804BAD53068A16E20F44020084311
:102F00003060F803B4D53068E16E20F44010084317
:102F10003060B803AED53068216F20F4400008431C
:102F200030607806A8D53068616C20F00300084353
:102F300030603806A2D53068A16C20F00C00084340
:102F40003060F8059CD53068E16C20F03000084313
:102F50003060B80596D53068216D20F0C000084378
:102F60003060780590D53068616D20F4407008437A
:102F7000306038057FF58AAF3068A16D20F440607D
:102F800008433060F8047FF583AF3068E16D20F4CA
:102F9000405008433060B8047FF57DAF3068216E43
:102FA00020F440400843306078027FF577AF306806
:102FB000A16F20F0806008433060B8027FF571AFE8
:102FC0003068E16F20F00060B1F1006F40EA01006D
:102FD00008BF4FF00108306078037FF565AF3068B7
:102FE000616F20F040700843306038027FF55FAFBA
:102FF0003068D4F8801020F08050084330607801A9
:103000007FF558AF3068D4F8841020F000500843A2
:10301000306038017FF551AF56F8040CD4F88810B1
:1030200020F00070084346F8040CF8007FF548AF24
:1030300056F8040CD4F88C1020F08060084346F851
:10304000040C5FEACA100ED4B9F1010F0BD017F0CF
:10305000007008D1380719D4B8F1000F16D100203C
:1030600002B0BDE8F08756F8900C20F0806046F87A
:10307000900CFFF71DF8054656F8900C000119D585
:10308000FFF716F8401B6428F6D90BE156F8900CB0
:1030900020F0805046F8900CFFF70AF8054600BF74
:1030A00056F8900C800015D5FFF702F8401B6428F5
:1030B000F6D9F7E02068C10703D0616B002900F062
:1030C0008880010340F19980E16BB1F5801F40F0E9
:1030D000948098E02068010301D5E16B19B1C10229
:1030E0001ED5216CE1B956F8081C56F8082C01F4DD
:1030F000403102F0E042D4E905371144A26A41EAC6
:1031000083116FF0FF0341EA076146F8081C56F887
:10311000041C03EB022221F4F851114346F8041C6D
:10312000810214D5E16FB1F1006F10D156F8081C7F
:1031300056F8082C01F0706102F0E0426369276ADA
:10314000114441EA831141EA074146F8081C00078F
:1031500018D556F8080C56F8081C00F0706001F4F9
:10316000403162690844E16940EA8210E36A40EA5A
:10317000017046F8080C56F8040C20F4403018434F
:1031800046F8040C56F8900C40F0805046F8900C2D
:10319000FEF78EFF044600BF56F8900C80003FF506
:1031A0005EAFFEF785FF001B6528F5D37AE0FEF7DA
:1031B0007FFF054641F2883756F8200C80073FF51F
:1031C00035AEFEF775FF401BB8424FF00300F3D950
:1031D00069E056F80C1C56F80C2C01F4403102F052
:1031E0007062D4E90135114441EA831141EA057165
:1031F00046F80C1C01033FF567AFC1021DD5216CD9
:10320000B1F5800F19D156F80C1C56F80C2C01F4AE
:10321000403102F0E04263681144E26841EA831100
:10322000656A41EA026146F80C1C56F8041C6A1EE5
:1032300021F01F01114346F8041CC10110D556F8B6
:103240000C1C56F80C2C01F0706102F0E04263682F
:103250002569114441EA831141EA054146F80C1CF5
:1032600080010CD56068A368D4E90321090441EA10
:10327000801040EA026040EA037046F80C0C56F8F1
:10328000900C40F0806046F8900CFEF711FF054668
:1032900056F8900C00013FF5DDAEFEF709FF401B2C
:1032A0006428F5D9032002B0BDE8F08700000000D3
:1032B00000286DD02DE9F04143F608080446C4F219
:1032C00002080D46D8F8F80300F00F0088420CD22F
:1032D000D8F8F80320F00F002843C8F8F803D8F80E
:1032E000F80300F00F00A84267D12068810717D5C6
:1032F000410705D5D8F8001041F4E051C8F8001096
:10330000010705D5D8F8001041F46041C8F8001055
:10331000D8F80010A26821F0F0011143C8F800109D
:10332000C00737D1D8F8F80300F00F00A8420CD935
:10333000D8F8F80320F00F002843C8F8F803D8F8AD
:10334000F80300F00F00A84237D12068410707D5E5
:10335000D8F80010E26821F4E0511143C8F80010D9
:10336000000708D5D8F80000216920F4604040EA41
:10337000C100C8F80000D8F8000000F00C000828D0
:103380003AD004285BD147F64000C0F27D105AE0E5
:1033900001207047606858F8081C022806D00128F0
:1033A00009D189030CD40120BDE8F081890107D43B
:1033B0000120BDE8F081890702D40120BDE8F08139
:1033C000D8F8001021F003010843C8F80000FEF708
:1033D0006FFE064641F28837D8F80000616800F0B9
:1033E0000C00B0EB810F9DD0FEF762FE801BB8424F
:1033F000F2D90320BDE8F08158F8042C58F8040CE9
:10340000400247F6400058F8041CC0F27D105CBF33
:1034100042F20040C0F2F400C1F3881102F03F0212
:10342000A0FB01010023FCF703FF58F8041C022253
:10343000C1F3014102EB4101B0FBF1F003E042F2C4
:103440000040C0F2F400D8F8001045F6C042C0F6C3
:103450000002C1F30311515C40F20C02C2F20002FF
:10346000C84040F20401C2F2000108601068FFF792
:1034700057FB0020BDE8F08140F2040043F608014C
:10348000C2F20000C4F2020145F6D04200680968A9
:10349000C0F60002C1F38221515CC84070470000B1
:1034A00040F2040043F60801C2F20000C4F2020137
:1034B00045F6D04200680968C0F60002C1F3423107
:1034C000515CC8407047000010B543F60404C4F2D4
:1034D0000204606800F00C00082806D0042823D1FC
:1034E00047F64000C0F27D1010BD226820684002FF
:1034F00047F640002168C0F27D105CBF42F20040F8
:10350000C0F2F400C1F3881102F03F02A0FB0101F8
:103510000023FCF78DFE21680222C1F3014102EB7A
:103520004101B0FBF1F010BD42F20040C0F2F400E6
:1035300010BD000000000000C8B12DE9F04182B0CC
:103540000446007843F60006C007C4F202064AD0DB
:10355000B06800F00C0004280BD13068800342D51D
:10356000606800283FD1012002B0BDE8F081012051
:103570007047B06800F00C00082802D17068400263
:10358000EBD4656830682DB1B5F5A02F09D0B5F53D
:10359000803F0AD020F480303060306820F48020F2
:1035A00005E040F480203060306840F480303060C6
:1035B000FEF77EFD002D054612D000BF3068800367
:1035C00011D4FEF775FD401B6428F7D924E100BF34
:1035D000FEF76EFD401B64284FF0030000F20381EC
:1035E00030688003F4D4207880071BD5B06810F0D1
:1035F0000C0F09D0B06800F00C00082840F089805A
:103600007068400200F185803068800703D5E0686B
:10361000012840F0A1803068216920F0F80040EADC
:10362000C1003060207800073BD4207840074CD49C
:10363000A56995B3B06800F00C00082840F0A080A0
:10364000012D706800F0888000F48001E2699142E9
:1036500040F0828000F03F01226A91427CD147F61F
:10366000C071626A0140B1EB821F75D1A16A4FF649
:10367000FF72C903914300F44032A1F580318A42C0
:103680006AD1E16A00F07062B2EB016F64D1216B24
:1036900000F0E040B0EB017F5ED1002002B0BDE859
:1036A000F08160690028706F5AD040F001007067A7
:1036B000FEF7FEFC054600BF706F8007B5D4FEF72D
:1036C000F7FC401B0228F7D9A6E0306C5FEAC0087F
:1036D00008D4306C40F080503064306C00F0805082
:1036E0000190019847F20007C4F200073868C0054E
:1036F00024D4386840F480703860FEF7D9FC054661
:103700003868C0051AD4FEF7D3FC401B6428F7D9EB
:1037100082E0E0680028306854D040F0010030605A
:10372000FEF7C6FC054600BF306880073FF573AF63
:10373000FEF7BEFC401B0228F6D96DE0A568306F8D
:103740001DB1052D52D0012D54D020F0010030675D
:10375000306F20F004004FE0012002B0BDE8F0819E
:1037600020F001007067FEF7A3FC0546706F80072C
:103770007FF55BAFFEF79CFC401B0228F6D94BE0BF
:10378000306820F080703060FEF792FC022D054614
:103790000CD100BF3068800155D5FEF789FC401B75
:1037A00002284FF00300F5D91DE000BF306880010A
:1037B0007FF573AFFEF77CFC401B02284FF003003F
:1037C000F4D910E020F001003060FEF771FC0546EE
:1037D000306880077FF526AFFEF76AFC401B0228A1
:1037E0004FF00300F4D902B0BDE8F08140F00400CE
:1037F0003067306F40F001003067FEF759FC002D54
:10380000054641F2883712D0306F800712D4FEF798
:103810004FFC401BB842F7D9032002B0BDE8F0814D
:10382000FEF746FC401BB8424FF00300DBD8306F78
:103830008007F5D4B8F1000F3FF5FAAE306C20F0F8
:1038400080503064F4E604F11C07256B8FCF0843E9
:10385000D9034FF6FF7340EA8210994340EA0760AC
:10386000A1F58031084340EA05707060306840F08F
:1038700080703060FEF71CFC044600BF3068800199
:103880003FF50BAFFEF714FC001B02284FF00300BE
:10389000F4D9A8E70000000090B110B5022180F82B
:1038A0005D10016804460A6822F040020A6000F0D8
:1038B0007FF80020206684F85D0084F85C0010BD6D
:1038C000012070470000000028B1416A29B10021A1
:1038D0000161142106E0012070474168B1F5827F43
:1038E00002D01C2100224250B0B50025856290F81C
:1038F0005D1029B980F85C50044600F071F820464C
:10390000022180F85D100168D0F80CE0BEF5E06F90
:103910004EF400640B6898BF0125B4F5706F23F076
:1039200040034FEA053C0B6001D000258562D0E9D9
:103930000154D0E9043205F4827504F404442C44A3
:1039400003F00203234402F001021A44836903F4E2
:103950000074C569224405F038042244046A04F066
:103960008004856A224405F40054224304240A603A
:103970000EF4706504EA1342436A45EA0C0503F04D
:103980001003446B2A4304F008051A432A434A6093
:10399000CA6922F40062CA6100210166012280F82E
:1039A0005D20BDE8B0400846704700000000000000
:1039B00043F200010068C4F20101884218BF704759
:1039C00043F6440201F55040C4F20202E0211368BC
:1039D00023F480531360FEF70FBA000000000000CC
:1039E00080B586B043F200010068C4F201010022F4
:1039F00088420592CDE903220292019201D006B0DD
:103A000080BD43F63000C4F20200436943F48053A2
:103A10004361436903F480530093009B036843F0C0
:103A200001030360006800F0010000900098E020AE
:103A300001900220CDE902020320049005200590A8
:103A400001F5504001A9FEF75BFA06B080BD000009
:103A50002DE9F04182B01D4616460F460446FEF79A
:103A600027FB94F85D1001290CD180460120002F1E
:103A700018BF002E02D102B0BDE8F08194F85C00BE
:103A8000012803D1022002B0BDE8F081012084F8B2
:103A90005C00032084F85D0000202066A763A687F1
:103AA000E6872064A4F84400A4F84600A168B1F5B4
:103AB000004FC4E9130008D12068016821F04001DB
:103AC0000160016841F48041016020680168490695
:103AD00003D4016841F0400101606168731EB1FACE
:103AE00081F1E268B3FA83F349095B09B2F5E06F4B
:103AF00041EA03012DD931B137F8021BC160A76338
:103B0000E08F0138E087E08F00285FD06E1C0AE06C
:103B1000A16B31F8022BC260A163E08F0138E0870E
:103B2000E08F002852D0206881688907F0D4FEF722
:103B3000BFFA002EF4D0A0EB0800A842F0D3012079
:103B400084F85D00002084F85C00032002B0BDE82A
:103B5000F08100294FF6FE7111D0E28F022A05D3C1
:103B600037F8022BC2604FF6FE7004E03A78027319
:103B7000A06B471C481CA763E28F1044E087E08FCE
:103B800020B36E1C4F1C0AE0007808733946A06B06
:103B90000130A063E08F0844E087E08FB0B1216876
:103BA0008868800708D4FEF783FA002EF5D0A0EBD2
:103BB0000800A842F1D3C2E7E08F0228A06BE3D34C
:103BC00030F8022BCA604FF6FE71E2E72046294624
:103BD000424601F029F800281CBF20202066A0687A
:103BE00038B9002001902068C16801918068019077
:103BF0000198012084F85D00002084F85C00206EAC
:103C0000002818BF012002B0BDE8F08100000000CC
:103C10002DE9F04381B01E4615460F460446FEF7D7
:103C200047FA94F85D108046012909D14FF0010050
:103C30001FB1002D18BF002E0ED101B0BDE8F083DA
:103C40006068B0F5827F0BD104294FF00200F4D1F7
:103C5000A1680029EAD0F0E794F85C00012803D1BC
:103C6000022001B0BDE8F083012084F85C0094F8E4
:103C70005D00042802D0052084F85D000021216643
:103C80002564A4F84660A4F84460A763E68720682A
:103C9000A687E1642165E1684268B1F5E06F22F42E
:103CA0008052134698BF03F58053012E88BF1346F8
:103CB00043600268520603D4026842F04002026088
:103CC0006268731EB2FA82F2B1F5E06FB3FA83F361
:103CD0004FEA52124FEA5313089E43EA02013BD9BE
:103CE00031B137F8021BC160A763E08F0138E0876C
:103CF0000127751CE08F20B9B4F84600002800F0B9
:103D0000A3802068816889070CD5E18F51B1012F0C
:103D100008D1A16B002731F8022BC260A163E18FAB
:103D20000139E1878168C9070DD0B4F8461051B157
:103D3000C068216C012721F8020B2164B4F8460009
:103D40000138A4F84600FEF7B3F9002DD2D0A0EB5D
:103D50000800B042CED36DE000294FF6FE7111D0BD
:103D6000E28F022A05D337F8022BC2604FF6FE70AD
:103D700004E03A780273A06B471C481CA763E28FEB
:103D80001044E0870127751C01F10109E08F18B983
:103D9000B4F84600002857D020688168890717D5F5
:103DA000E18FA9B1012F13D1E18F0229A16B05D3B6
:103DB00031F8022BC2604FF6FE7004E009780173FF
:103DC000A06B411C4846A1630027E18F0844E087AF
:103DD00020688168C90725D0B4F8461011B3B4F83B
:103DE0004610022912D3C168226C22F8021B2264F9
:103DF000B4F846100239A4F84610B4F84610012968
:103E00000FD8416841F4805141600AE0007B216C89
:103E10000870206C01302064B4F846000138A4F822
:103E200046000127FEF744F9002DAFD0A0EB0800B3
:103E3000B042ABD3012084F85D00002084F85C0020
:103E4000032001B0BDE8F08320463146424600F031
:103E5000EBFE40B120202066002084F85C000120A9
:103E600001B0BDE8F083012084F85D00002084F8F3
:103E70005C00206E002818BF012001B0BDE8F0836F
:103E8000411E0020B0EB116F01D0012070474EF2AF
:103E90001002F023CEF2000251604EF62351CEF212
:103EA00000010B7007219060116070470000000056
:103EB0007047000000000000704700000000000094
:103EC000B0B504460168C06FD4F88050896809060F
:103ED00022D5212820D100BF206850E8020F216898
:103EE00020F0800041E80202002AF5D1206F38B1AD
:103EF000FDF7EAFB20B1206FFDF782FC202829D0D6
:103F0000206850E8000F216820F0C00041E800025E
:103F1000002AF5D12020E0672068806840064FF035
:103F2000000045D5222D18BFB0BD00BF206850E865
:103F3000020F216820F0400041E80202002AF5D17A
:103F4000606F68B1FDF7C0FB50B1606FFDF758FCC2
:103F5000202805D11020C4F884000320B0BD00BF84
:103F6000206850E8000F216820F4907041E80002BA
:103F7000002AF5D1206850E8020F216820F00100E6
:103F800041E80202002AF5D1206E01280AD100BFC3
:103F9000206850E8000F216820F0100041E800027E
:103FA000002AF5D12020C4F8800000202066A066F9
:103FB000B0BD000000000000C8B110B52421C167E9
:103FC000016804460A6822F001020A6000220A60C1
:103FD0004A608A6000F0ECF90020C4F88400E067D1
:103FE000C4F880002066606684F8780010BD012067
:103FF0007047000000000000704700000000000053
:10400000B0B5026840F62F03D16915680B4094687B
:10401000202B05F0200E07D1BEF1000F04D0816ED9
:1040200041B3BDE8B040084740F60F03194209D03C
:1040300040F2201304F0010CC0F200432B4013EBBC
:104040000C0324D1CB06036E15D5012B13D115F02B
:10405000100310D010211162916849062CD4B0F8D9
:104060005810B0F85A20B0F85A30002B18BF9142BF
:1040700040F04081B0BDCB0211D514F480030ED0C6
:104080004FF480111162BDE8B040FFF715BFCB07B8
:1040900018BF15F480736AD18B0772D47CE00A06CE
:1040A00040F10B8115F0800200F00781C16E0029FC
:1040B000E0D0BDE8B0400847426F116849688BB254
:1040C000002B49D0B0F85850AB4245D2A0F85A1056
:1040D000D169B1F5807F33D0016851E8001F0268D3
:1040E00021F4807142E80013002BF5D1016851E8FA
:1040F000021F026821F0010142E80213002BF5D1F2
:10410000016851E8021F026821F0400142E80213F1
:10411000002BF5D12021C0F880100021016600BFDE
:10412000016851E8001F026821F0100142E8001305
:10413000002BF5D1416F04460846FDF7C5FA20462D
:1041400002214166B0F85810B0F85A20891A89B295
:10415000BDE8B040FFF7ACBEB0F8581099427FF40C
:1041600089AFD269B2F5807F7FF484AFE9E00123A3
:104170001362D0F8843043F00103C0F884308B0719
:104180000AD5BCF1000F07D002231362D0F88430A7
:1041900043F00403C0F884304B070AD5BCF1000F8C
:1041A00007D004231362D0F8843043F00203C0F830
:1041B00084300B070AD55CEA0E0307D0082313628C
:1041C000D0F8843043F00803C0F884300B050BD5D9
:1041D00015F0806308D04FF400631362D0F8842098
:1041E00042F02002C0F88420D0F88420002A3FF456
:1041F00041AF890607D5BEF1000F04D0816E11B121
:104200000446884720460168D0F8842002F028023E
:10421000896801F04001891806D10446FFF7ECFED9
:104220000020C4F88400B0BD016851E8001F026896
:1042300021F4907142E80013002BF5D1016851E898
:10424000021F026821F0010142E80213002BF5D1A0
:10425000016E01290AD100BF016851E8001F026800
:1042600021F0100142E80013002BF5D12021C0F805
:10427000801000210166026881669168490635D583
:10428000016851E8021F026821F0400142E8021370
:10429000002BF5D1416F49B345F2D90204460846D7
:1042A000C0F600020A65FDF74FFA00283FF4E2AEBF
:1042B000606F016DBDE8B040084749067FF5DAAE92
:1042C00015F0400108BFB0BD016851E8001F026849
:1042D00021F0400142E80013002BF5D12021C167F5
:1042E0000021C166BDE8B04000F0F6B9BDE8B040BD
:1042F000FFF782BE891A00BF026852E8002F0368E8
:1043000022F4907243E80025002DF5D1026852E8AE
:10431000022F036822F0010243E80225002DF5D1A7
:104320002022C0F88020002202668266026852E8DD
:10433000002F036822F0100243E80025002DF5D17C
:1043400089B202224266BDE8B040FFF7B1BD00006D
:1043500010B5C8B10446C06F28B9002084F87800B1
:10436000204600F045F82420E0672068616A0029B3
:10437000026822F00101016002D0204600F0E0FD59
:10438000204600F075FF08B1012010BD206841688B
:1043900021F490414160816821F02A018160016827
:1043A00041F0010101602046BDE8104000F038BE38
:1043B00010B5044641F20000C4F2010021688142B8
:1043C00018BF10BD43F6440100F57440C4F2020169
:1043D0000A6822F010020A604FF44041FDF70CFD1C
:1043E000606FFDF7C5F92520BDE81040FEF7DCBB86
:1043F00070B5AAB0044641F2000501A8902100263C
:104400002996CDE927662696C4F201052596FBF785
:1044100059FF2068A84201D02AB070BD4020019009
:1044200001A81296FEF76CFC08B1FDF7DDF843F623
:1044300030000026C4F20200416941F010014161E0
:10444000416901F0100100910099016841F00201F9
:104450000160006825A900F00200009000984FF468
:104460004040259002202690032028900420299087
:1044700005F574402796FDF743FD40F6F80546F232
:104480004040C2F20005C4F2020028604FF0006014
:10449000C5E901064FF48060EE60C5E904062846D0
:1044A000C5E90666C5E90866FDF772FA08B1FDF7C9
:1044B0009BF82520002100226567AC63FEF798FB7E
:1044C0002520FEF785FB2AB070BD0000000000002B
:1044D000D0F88030202B0AD194460A4600294FF0AC
:1044E000010118BFBCF1000F04D10846704702213A
:1044F0000846704710B54FF0000EC0F860E0036842
:104500005B681B020AD500BF036853E8003F0468DC
:1045100043F0806344E800310029F5D1426522214F
:10452000A0F858C0C0F884E0C0F88010436F13B3FF
:1045300045F2911145F23924C0F60001C0F600049D
:10454000C3E90F1445F2E9010024C0F60001C3E9F4
:10455000131401680446243118466346FDF7B8FA7F
:104560000146204639B11021C0F884102021C0F83E
:104570008010012121E0016951B100BF016851E8BB
:10458000001F026841F4807142E80013002BF5D14E
:10459000016851E8021F026841F0010142E802137C
:1045A000002BF5D1016851E8021F026841F040017B
:1045B00042E80213002BF5D10021BDE81040084667
:1045C000704700000000000070470000000000007D
:1045D00070470000000000002DE9F04381B0044660
:1045E000C06F202808D188460120002918BF002A62
:1045F00006D101B0BDE8F083022001B0BDE8F08330
:104600001D460020C4F884002120E0671646FDF70F
:104610004FFDA4F85060A4F852600646A168B1F5B9
:10462000805F02D12069002850D0C1464FF00008B9
:10463000B4F8520058B36F1C0EE0B9F1000F1DD052
:10464000206819F8011B8162B4F852000138A4F8FF
:104650005200B4F85200D0B12068C0690006ECD412
:10466000002FF9D0FDF724FD01464FF0030045B3BC
:10467000891BA94225D820680068EDE738F8020BAD
:1046800021684FF000096FF35F208862DCE7206843
:10469000C069400614D46F1C04E000BF2068C069E4
:1046A00040060DD4002FF9D0FDF702FD01464FF072
:1046B000030035B1891BA94203D820680068EDE7E3
:1046C00000202021E16701B0BDE8F0834FF0000930
:1046D000AEE700000000000070470000000000008E
:1046E000FEE70000000000002DE9F04381B0044621
:1046F00000688369DB0602D40021002049E00D46F2
:104700001021C16120688169890635D416460027C9
:1047100005F101094FF0000808E048F020080127E2
:104720002068816901F02001394329D1B9F1000FD6
:10473000F6D0FDF7BDFC15B1801BA842F0D920686A
:10474000426894F8421083691B040BD512F480422E
:1047500008D1202906D0416841F480414160FDF72D
:10476000A7FC0646206880698006D9D4FDF7A0FC26
:10477000801B1A28F6D3D0E70122042132B907E0C2
:10478000B7FA87F14A0948F004010AB12022C26150
:10479000012022689369DF0507D45F050DD49B05CE
:1047A00013D4D0B901B0BDE8F08341F001014FF45A
:1047B0008070D06101205F05F1D541F008014FF410
:1047C0008060D06101209B05EBD541F002014FF4E0
:1047D0000070D06101200028E4D093699B0701D5C7
:1047E000002393629369DB0703D1936943F00103CC
:1047F00093614EF600075368CFF600673B40536065
:10480000626C11436164202184F84110002184F816
:10481000421084F8401001B0BDE8F08300000000B1
:1048200070B5044600688069800619D415460E46A6
:1048300008E000BF20688069800615D5206880697F
:1048400080060DD4204631462A46FFF74DFF48B971
:10485000FDF72EFC002EEDD0401BB042EED9E9E76B
:10486000002070BD012070BD606C40F020006064CD
:10487000202084F84100002084F8420084F84000A1
:10488000012070BD000000002DE9F04381B00468F4
:1048900021466FF31201B1F1005F03D14168481C5A
:1048A000022837D250A001F0D9F945F69E70C0F623
:1048B000000001F0D3F945F65D60C0F6000001F09C
:1048C000CDF945F60070C0F6000001F0C7F945F6D5
:1048D0005C70C0F6000001F0C1F945F67770C0F6D3
:1048E000000001F0BBF945F6A560C0F6000001F03C
:1048F000B5F945F63070C0F6000001F0AFF945F6A5
:104900009470C0F6000001F0A9F901B0BDE8F043D1
:10491000FCF74AB8EFF3108072B64FF68C604EF297
:104920008417CFF6FF70CEF200078946002140F6CB
:10493000102539504FF69060CFF6FF70C2F2000597
:1049400039504FF69460CFF6FF7039502846FFF784
:10495000B7FA00261021C4F202064FF010083046C4
:10496000FDF74AFA06F580600221FDF745FA284670
:10497000FFF722FB40F65810C2F20000FDF7ECFBF7
:1049800040F6AC10C2F20000FEF786FF202038602F
:10499000BFF34F8FBFF36F8FC7F800014022296824
:1049A000C1F820800A6208624FF08060386048F2E7
:1049B0000001BFF34F8FBFF36F8FC7F800014EF6B2
:1049C0000850CEF20000C0F600010160204600F061
:1049D0001BF840F698204946C2F20000C0F800904B
:1049E00001B0BDE8F04308474661696C6564207416
:1049F0006F206A756D7020746F204172656120416F
:104A00000D0000000000000080F3088870470000DF
:104A100080B582B043F630000022C4F20200016883
:104A200041F4800101600068002100F480000190E1
:104A300001983A20FEF7DCF83A2002B0BDE8804049
:104A4000FEF7C6B8000000002DE9F04387B043F63A
:104A500030000027C4F202000697CDE90477CDE9C3
:104A600002770168002441F0040101600168C4F28A
:104A7000020401F0040101910199016841F08001F3
:104A800001600168012201F0800101910199016832
:104A900041F0010101600168102601F0010101915E
:104AA0000199016841F0020101600068102100F0E5
:104AB00002000190019820464FF00108FDF7F0FA3E
:104AC00004F580650221002228464FF00209FDF717
:104AD000E7FACDE9026802AE032005902046314690
:104AE0000497FDF70DFA28463146CDE90298CDE945
:104AF0000477FDF705FA07B0BDE8F0830000000079
:104B000010B540F6581045F60001C2F2000042F61A
:104B10003122C4F20001C4F2D302C0E90012002124
:104B200081600122C0E90321C0E90511C0E9071134
:104B3000FDF72EFB08B1FCF757FD40F65810002199
:104B4000C2F20000FDF7BCFA08B1FCF74DFD40F6DB
:104B500058140021C2F200042046FDF7D9FA08B12A
:104B6000FCF742FD2068016841F00101016010BDC1
:104B700080B540F6AC1043F20001C2F20000C4F26E
:104B800001014FF4E06201604FF482714160002145
:104B90008160C0E9032141614FF4007282613822D3
:104BA000C0E90721C0E9091107224163C0E90B21CF
:104BB000FEF78AFE002808BF80BDBDE88040FCF7F4
:104BC00013BD00000000000010B540F6102441F2B3
:104BD0000000C2F20004C4F201000C2120604FF476
:104BE000E13060600020C4E902002061C4E90510E2
:104BF000C4E9070060622046FFF7AAFB08B1FCF792
:104C0000F3FC2068016841F01001016010BD000054
:104C1000FEE7000000000000FEE7000000000000CA
:104C2000704700000000000070B582B015460E46C7
:104C30004FF4C05132462B46044600F039F860BBB1
:104C400040F2040049F68171C2F20000C1F25E61D7
:104C50000068A0FB0101480D4FF47A7148430190B0
:104C60006068B0F5827F07D1204631462A4600F0C1
:104C700093F890B909E000BF019830B1019801386C
:104C80000190206880680006F6D44FF4C061204689
:104C900032462B4600F00CF830B1206E40F0200078
:104CA0002066032002B070BD002002B070BD00007D
:104CB0002DE9F04F83B01E4690460D4683464FF0D7
:104CC00000098DF80790FDF7F3F9301A00EB08079B
:104CD000FDF7EEF940F204012322C2F20001DBF8F5
:104CE00000A009685143090D79430291DAF80810D0
:104CF00029424CD0064608F1010407E00298013829
:104D00000290DBF800008068284214D0B5F5C06F2F
:104D100005D19AF80C008DF807009DF80700002CCB
:104D2000EFD0FDF7C5F9801BB84207D202980028E2
:104D3000E4D10027E5E74FF0000928E0DBE90001B6
:104D4000B1F5827F426822F0E00141600AD1DBF8D0
:104D50000810B1F5004F11BFB1F5806F016821F067
:104D600040010160DBF82810B1F5005F07D1016850
:104D700021F400510160016841F4005101600120FB
:104D80008BF85D0000208BF85C004FF0030948466B
:104D900003B0BDE8F08F0000F0B581B015460E46B7
:104DA0000446FDF785F9281A8719FDF781F940F2C5
:104DB0000401C2F200010968C1F3CB3179430091CB
:104DC00021688968090602D4002001B0F0BD0546BB
:104DD000013606E0009801380090206880680006DF
:104DE000F2D5002EF9D0FDF763F9401BB84204D28A
:104DF00000980028EED10027EFE7D4E90001B1F5D3
:104E0000827F426822F0E001416009D1A168B1F5DA
:104E1000004F11BFB1F5806F016821F040010160C2
:104E2000A16AB1F5005F07D1016821F4005101606A
:104E3000016841F400510160012084F85D00002008
:104E400084F85C00032001B0F0BD00000000000009
:104E50007047000000000000FDF746BE00000000A3
:104E600010B594B007AC34212046FBF72BFA002094
:104E70000690CDE90400CDE90200FDF735FF43F6C9
:104E80004000C4F20200016841F0805101600068F6
:104E900000F08050019047F200000199C4F2000038
:104EA000016841F44041016000684FF4800100F462
:104EB000404001900198012007904FF48030089005
:104EC00002200D900E9119210F914FF4D871CDE968
:104ED0001010CDE912002046FEF72EFB18B1EFF3BB
:104EE000108072B6FEE7FDF7C3FE20B1EFF310802D
:104EF00072B600BFFEE70F20029002200390002050
:104F000004904FF4A05005904FF48050069002A8F2
:104F10000721FEF7CDF920B1EFF3108072B600BF84
:104F2000FEE714B010BD00004EF68850CEF200002F
:104F3000016841F47001016070470000000000004A
:104F4000416A0A070CD4CA0715D18A071ED44A073A
:104F500027D4CA0630D48A0639D44A0642D454E04B
:104F60000268D0F834C0536823F4004343EA0C03CA
:104F70005360CA07E9D00268D0F828C0536823F408
:104F8000003343EA0C0353608A07E0D50268D0F887
:104F90002CC0536823F4803343EA0C0353604A0760
:104FA000D7D50268D0F830C0536823F4802343EA91
:104FB0000C035360CA06CED50268D0F838C0936897
:104FC00023F4805343EA0C0393608A06C5D5026834
:104FD000D0F83CC0936823F4005343EA0C03936079
:104FE0004A0612D50268D0F840C05368BCF5801F4D
:104FF00023F4801343EA0C03536006D1536823F46F
:10500000C00C436C43EA0C035360090658BF704759
:105010000168806C4A6822F400221043486070479F
:10502000B0B582B004460020C4F88400FDF740F813
:10503000216805460968090718D54FF400110022B8
:105040006FF07E40009020462B4600F025FA68B1B4
:10505000206850E8000F216820F0800041E800023D
:10506000002AF5D1032020217C222FE0206800684F
:10507000400723D54FF4800100226FF07E4000905E
:1050800020462B4600F008FAC0B100BF206850E867
:10509000000F216820F4907041E80002002AF5D149
:1050A000206850E8020F216820F0010041E8020268
:1050B000002AF5D103202021802207E02020E0678C
:1050C000C4F880000021642200202166A150002144
:1050D00084F8781002B0B0BD806B0021A0F85A109F
:1050E000FEF78ABF00000000806B0368C26FD0F833
:1050F00080C09B681B0611D5212A0FD10022A0F881
:10510000522000BF026852E8002F036822F0C0025C
:1051100043E800210029F5D12021C1670168896891
:1051200049062DD5BCF1220F2AD10021A0F85A1032
:10513000016851E8001F026821F4907142E80013F1
:10514000002BF5D1016851E8021F026821F001012E
:1051500042E80213002BF5D1016E01290AD100BFEC
:10516000016851E8001F026821F0100142E80013B5
:10517000002BF5D12021C0F8801000210166816646
:10518000D0F8841041F01001C0F88410FEF734BF4D
:105190008446C069B0F5807FDCF8380030D000224A
:1051A000A0F85A20026852E8002F036822F48072A7
:1051B00043E800210029F5D1016851E8021F026887
:1051C00021F0010142E80213002BF5D1016851E8FA
:1051D000021F026821F0400142E80213002BF5D1C2
:1051E0002021C0F88010016E012909D1016851E821
:1051F000001F026821F0100142E80013002BF5D1D6
:1052000000224266016E012911D1A0F85A20DCF873
:1052100000104A68B0F8581093B28B4238BFA0F81B
:105220005A20B0F85A20891A89B2FEF741BEFFF71A
:10523000CBB90000000000000146806B01224266ED
:10524000026E012A11D1B0F858205308A0F85A3044
:10525000096849688BB2934298BFA0F85A10B0F819
:105260005A10511A89B2FEF723BEFFF7B1B90000F8
:1052700070B506460268806846F6F314D6E9033135
:1052800001437569D6F81CC01068CEF6FF74294337
:105290002040084340EA0C001060506820F4405061
:1052A00018435060B06947F2FF73316AC4F20003DB
:1052B0000843916821F430619A4240EA01004FF0BE
:1052C0001001906018DC44F6FF30C4F20000824206
:1052D0002BDC44F20040C4F2000082424AD044F683
:1052E0000000C4F2000082426BD143F69000C4F289
:1052F00002000068010951E040F6FF70C4F20100AD
:10530000824225DC47F60000C4F20000824238D019
:1053100047F60040C4F20000824252D143F69000AA
:10532000C4F202000068810B38E044F60040C4F289
:10533000000082422CD045F20000C4F200008242FC
:105340003FD143F69000C4F202000068010A25E054
:1053500041F20040C4F20100824224D041F2000038
:10536000C4F2010082422CD143F69000C4F2020044
:1053700001681EE043F69000C4F202000068810854
:105380000CE043F69000C4F202000068010B05E057
:1053900043F69000C4F202000068810945F6E84235
:1053A000C0F6000209E043F69000C4F20200006873
:1053B000810A45F6D842C0F6000201F0030052F817
:1053C000201042F20040BCF5004FC0F2F4000DD1B5
:1053D000082919D80025DFE801F0051F291727172C
:1053E00017175400FEF748F808BB45E008290FD806
:1053F0000025DFE801F00515310D2F0D0D0D4B00D7
:10540000FEF73AF848BB37E00020012578B933E0D1
:105410000020012508BB2FE0FEF742F838B92BE049
:10542000FEF73EF8C8B927E0FEF74EF820B37168E2
:105430004A0802EB40004FF6EF72B0FBF1F0A0F12A
:105440001001914217D84FF6F0710140C0F34200AD
:1054500008440DE0FEF738F870B171684FF6EF724E
:1054600000EB5100B0FBF1F0A0F11001914202D825
:105470003168C86000E001250020C6E91A0028460E
:1054800070BD4FF400400028D1D1F5E74FF4004043
:105490000028E2D1F0E700002DE9F04381B0044696
:1054A0000068C0690840401AB0FA80F04009904294
:1054B00055D1DDF820800D461646994608F10107C2
:1054C00009E000BF2068C0692840401BB0FA80F0A6
:1054D0004009B04243D1002FF4D0FCF7E9FDB8F108
:1054E000000F01464FF003003AD0A1EB09014145FE
:1054F00036D8206801684907E4D5402D18BF802DB3
:10550000E0D0C16909072ED4C1690905DAD54FF485
:1055100000610162206850E8000F216820F490705B
:1055200041E80002002AF5D1206850E8020F216806
:1055300020F0010041E80202002AF5D1206E012886
:105540000AD100BF206850E8000F216820F0100049
:1055500041E80002002AF5D1032020212AE00020A2
:1055600001B0BDE8F0830821016200BF206850E867
:10557000000F216820F4907041E80002002AF5D164
:10558000206850E8020F216820F0010041E8020283
:10559000002AF5D1206E01280AD100BF206850E80A
:1055A000000F216820F0100041E80002002AF5D128
:1055B000012008212022C4F8802000222266A26651
:1055C000C4F8841084F8782001B0BDE8F0830000AE
:1055D00040F61020C2F200000068C169C9063CD53F
:1055E00010B51021016240F61020C2F20000FEF753
:1055F00067FC40F6F800C2F200000068406881B223
:10560000B1F5806F1BD0C0F5806082B20020B0EB96
:10561000922F14D140F2E00440F2F541C2F20004AE
:10562000C2F200012068FBF72FFF20680021FBF782
:105630006BFF40F2F4400121C2F20000017040F61D
:10564000102040F2F541C2F20000C2F200014FF416
:105650008062FEF73DFFBDE8104040F61020C2F228
:105660000000FEF7CDBC0000FEE7000000000000D7
:105670004EF60C500422CEF20000C0F2FA52BFF3F4
:105680004F8F016801F4E06111430160BFF34F8F58
:1056900000BFFDE70000000080B541F2040E40F2BB
:1056A0000403CEF2000EC2F20003DEF80020D3F8AD
:1056B00000C04DF68363C4F21B33ACFB0331890C8D
:1056C000484300BFDEF80010891A8142FAD380BD3A
:1056D00080B582B0019040F61020C2F2000001A90E
:1056E00001224FF0FF33FEF777FF019802B080BD33
:1056F000FDF70AFAFFF7B4FBFFF7A6F9FFF788F901
:10570000FFF7FEF9FFF760FAFFF732FAFBF748FF01
:105710001FA000F0A3FA40F2E00040F6B821C2F268
:105720000000C2F200014FF480620068FBF7A4FEA3
:1057300040F6102040F2F541C2F20000C2F2000132
:105740004FF48062FEF7C4FEFBF7C2F840F2180483
:1057500040F2E405C2F20004C2F20005002604E0B3
:10576000D5F808040130C5F808040A20FCF708FA47
:10577000FBF71AF92078C007F7D0D5F80804642899
:10578000EED3432000F064FAC5F80864E8E700BFF0
:1057900068656C6C6F2068657265206973204220B3
:1057A00073656374696F6E0D000000000FB4054BE4
:1057B00010B503A9044A029800F018F810BC5DF86F
:1057C00014FB0000D15600080000002002E008C8C9
:1057D000121F08C1002AFAD170477047002001E06B
:1057E00001C1121F002AFBD1704700002DE9FF4FB5
:1057F0008DB00F460546002606E025280BD0DDE9D2
:105800000F1290476D1C761C28780028F5D111B036
:105810003046BDE8F08F0024A246A1460122EC49A3
:1058200000E0044315F8013F203B02FA03F0084270
:10583000F7D128782A2810D06FF02F022878A0F10D
:105840003001092914D80AEB8A0102EB410144F026
:10585000020400EB010A6D1CF0E701CF5FEA000AC9
:1058600003D544F40054CAF1000A44F002046D1C4C
:1058700028782E2817D115F8010F44F004042A289F
:105880000ED06FF02F022878A0F1300109290AD834
:1058900009EB890102EB410100EB01096D1CF2E704
:1058A00057F8049B6D1C28786C280FD006DC4C2818
:1058B00017D068280DD06A2814D104E0742810D0BD
:1058C0007A280FD10DE044F400140AE044F4801467
:1058D00001E044F440146978814202D104F5801457
:1058E0006D1C6D1C2A786E2A1FD00CDC632A31D007
:1058F00004DC002A8BD0582A11D1A3E0642A68D096
:10590000692A0CD165E0732A2ED004DC6F2A73D08B
:10591000702A04D19BE0752A6FD0782A6ED0104689
:10592000DDE90F129047761C50E1C4F302500228C3
:1059300006D0032809D0042801CF09D0066045E12C
:1059400001CFF117C0E9006140E101CF06803DE1E0
:1059500006703BE117F8040B8DF8000000208DF86D
:105960000100EB46012003E057F804BB4FF0FF3085
:1059700061074FF0000102D40DE008F101018846F3
:1059800049450FDA8045F8DB1BF808100029F4D1EF
:1059900008E008F1010188468142FADB1BF8081093
:1059A0000029F6D1DDE90F23AAEB08008146214644
:1059B00000F036F9304400EB080604E0DDE90F1290
:1059C0001BF8010B9047B8F10108F7D22146484671
:1059D000F7E00A21C4F302534FF0000B0891022BA9
:1059E00004D001CFC117032B09D00AE0FF1D27F017
:1059F0000707F7E8020108E032E01FE020E000B20C
:105A0000C117042B01D140B2C117031E71F100036D
:105A100007DA4FF0000CD0EB0C006CEB01012D23EA
:105A200002E0230504D52B238DF82430012303E065
:105A3000E30701D02023F7E7984658E00A2110E059
:105A400010210EE010204FF0000B08900CE0102108
:105A50004FF0000B44F004044FF00809089103E0F4
:105A600008214FF0000B0891C4F30253022B04D01D
:105A700001CF0021032B06D006E0FF1D27F007070A
:105A8000F7E8020103E080B2042B00D1C0B24FF06E
:105A9000000823072BD5702A07D0DDF820C08CF032
:105AA000100C5CEA0B0C05D00EE040238DF824307E
:105AB000012308E050EA010306D030238DF824309A
:105AC0008DF8252002239846DDF820C08CF0080CC4
:105AD0005CEA0B0C0BD150EA010301D1630706D538
